{"contracts/Market.sol":{"Market":{"abi":[{"inputs":[{"internalType":"string","name":"_name","type":"string"},{"internalType":"string","name":"_description","type":"string"},{"internalType":"address","name":"_erc20Address","type":"address"},{"internalType":"address[]","name":"_juries","type":"address[]"},{"internalType":"address","name":"courtFactory","type":"address"}],"stateMutability":"nonpayable","type":"constructor"},{"anonymous":false,"inputs":[{"indexed":false,"internalType":"address","name":"courtAddress","type":"address"}],"name":"CourtUpdated","type":"event"},{"anonymous":false,"inputs":[{"indexed":false,"internalType":"uint256","name":"dealId","type":"uint256"},{"indexed":false,"internalType":"uint256","name":"amount","type":"uint256"}],"name":"DealAmountIncreased","type":"event"},{"anonymous":false,"inputs":[{"indexed":false,"internalType":"string","name":"dealName","type":"string"},{"indexed":false,"internalType":"uint256","name":"pricePerUnit","type":"uint256"},{"indexed":false,"internalType":"uint256","name":"minLimitAmount","type":"uint256"},{"indexed":false,"internalType":"uint256","name":"maxLimitAmount","type":"uint256"},{"indexed":false,"internalType":"uint256","name":"availableAmount","type":"uint256"},{"indexed":false,"internalType":"string[]","name":"paymentMethods","type":"string[]"},{"indexed":false,"internalType":"string[]","name":"paymentDetails","type":"string[]"},{"indexed":false,"internalType":"uint256","name":"expiryTime","type":"uint256"}],"name":"DealCreated","type":"event"},{"anonymous":false,"inputs":[{"indexed":false,"internalType":"uint256","name":"pricePerUnit","type":"uint256"},{"indexed":false,"internalType":"uint256","name":"minLimitAmount","type":"uint256"},{"indexed":false,"internalType":"uint256","name":"maxLimitAmount","type":"uint256"},{"indexed":false,"internalType":"string[]","name":"paymentMethods","type":"string[]"},{"indexed":false,"internalType":"string[]","name":"paymentDetails","type":"string[]"},{"indexed":false,"internalType":"uint256","name":"expiryTime","type":"uint256"}],"name":"DealUpdated","type":"event"},{"anonymous":false,"inputs":[{"indexed":false,"internalType":"uint256","name":"dealId","type":"uint256"},{"indexed":false,"internalType":"address","name":"raisedBy","type":"address"},{"indexed":false,"internalType":"address","name":"raisedAgainst","type":"address"},{"indexed":false,"internalType":"uint256","name":"amount","type":"uint256"}],"name":"DisputeRaised","type":"event"},{"anonymous":false,"inputs":[{"indexed":false,"internalType":"uint256","name":"orderId","type":"uint256"}],"name":"OrderAccepted","type":"event"},{"anonymous":false,"inputs":[{"indexed":false,"internalType":"uint256","name":"orderId","type":"uint256"}],"name":"OrderCancelled","type":"event"},{"anonymous":false,"inputs":[{"indexed":false,"internalType":"uint256","name":"orderId","type":"uint256"},{"indexed":false,"internalType":"address","name":"userAddress","type":"address"},{"indexed":false,"internalType":"address","name":"dealerAddress","type":"address"},{"indexed":false,"internalType":"uint256","name":"dealPrice","type":"uint256"},{"indexed":false,"internalType":"uint256","name":"amount","type":"uint256"}],"name":"OrderCreated","type":"event"},{"anonymous":false,"inputs":[{"indexed":false,"internalType":"uint256","name":"orderId","type":"uint256"}],"name":"OrderDoneByUser","type":"event"},{"anonymous":false,"inputs":[{"indexed":false,"internalType":"uint256","name":"orderId","type":"uint256"}],"name":"OrderSettled","type":"event"},{"anonymous":false,"inputs":[{"indexed":false,"internalType":"uint256","name":"orderId","type":"uint256"},{"indexed":false,"internalType":"uint256","name":"amount","type":"uint256"}],"name":"OrderUpdated","type":"event"},{"inputs":[{"internalType":"uint256","name":"orderId","type":"uint256"}],"name":"acceptOrder","outputs":[],"stateMutability":"nonpayable","type":"function"},{"inputs":[{"internalType":"uint256","name":"orderId","type":"uint256"}],"name":"cancelOrder","outputs":[],"stateMutability":"nonpayable","type":"function"},{"inputs":[],"name":"courtAddress","outputs":[{"internalType":"address","name":"","type":"address"}],"stateMutability":"view","type":"function"},{"inputs":[{"internalType":"string","name":"dealerName","type":"string"},{"internalType":"uint256","name":"pricePerUnit","type":"uint256"},{"internalType":"uint256","name":"minLimitAmount","type":"uint256"},{"internalType":"uint256","name":"maxLimitAmount","type":"uint256"},{"internalType":"uint256","name":"availableAmount","type":"uint256"},{"internalType":"string[]","name":"paymentMethods","type":"string[]"},{"internalType":"string[]","name":"paymentDetails","type":"string[]"},{"internalType":"uint256","name":"expiryTime","type":"uint256"}],"name":"createDeal","outputs":[],"stateMutability":"nonpayable","type":"function"},{"inputs":[{"internalType":"uint256","name":"dealId","type":"uint256"},{"internalType":"uint256","name":"amount","type":"uint256"}],"name":"createOrder","outputs":[],"stateMutability":"nonpayable","type":"function"},{"inputs":[{"internalType":"address","name":"","type":"address"},{"internalType":"uint256","name":"","type":"uint256"}],"name":"dealerOrders","outputs":[{"internalType":"uint256","name":"","type":"uint256"}],"stateMutability":"view","type":"function"},{"inputs":[{"internalType":"uint256","name":"","type":"uint256"}],"name":"deals","outputs":[{"internalType":"uint256","name":"id","type":"uint256"},{"internalType":"uint256","name":"pricePerUnit","type":"uint256"},{"internalType":"uint256","name":"minLimitAmount","type":"uint256"},{"internalType":"uint256","name":"maxLimitAmount","type":"uint256"},{"internalType":"uint256","name":"availableAmount","type":"uint256"},{"internalType":"uint256","name":"expiryTime","type":"uint256"},{"internalType":"enum Market.DealStatus","name":"status","type":"uint8"},{"internalType":"address","name":"dealerAddress","type":"address"},{"internalType":"string","name":"dealerName","type":"string"}],"stateMutability":"view","type":"function"},{"inputs":[],"name":"dealsCount","outputs":[{"internalType":"uint256","name":"","type":"uint256"}],"stateMutability":"view","type":"function"},{"inputs":[],"name":"description","outputs":[{"internalType":"string","name":"","type":"string"}],"stateMutability":"view","type":"function"},{"inputs":[{"internalType":"uint256","name":"dealId","type":"uint256"},{"internalType":"uint256","name":"amount","type":"uint256"}],"name":"increaseDealAmount","outputs":[],"stateMutability":"nonpayable","type":"function"},{"inputs":[],"name":"marketOwner","outputs":[{"internalType":"address","name":"","type":"address"}],"stateMutability":"view","type":"function"},{"inputs":[],"name":"name","outputs":[{"internalType":"string","name":"","type":"string"}],"stateMutability":"view","type":"function"},{"inputs":[{"internalType":"uint256","name":"","type":"uint256"}],"name":"orders","outputs":[{"internalType":"uint256","name":"id","type":"uint256"},{"internalType":"uint256","name":"dealId","type":"uint256"},{"internalType":"uint256","name":"dealPrice","type":"uint256"},{"internalType":"uint256","name":"amount","type":"uint256"},{"internalType":"uint256","name":"startedAt","type":"uint256"},{"internalType":"uint256","name":"settledAt","type":"uint256"},{"internalType":"enum Market.OrderStatus","name":"status","type":"uint8"},{"internalType":"address","name":"userAddress","type":"address"}],"stateMutability":"view","type":"function"},{"inputs":[],"name":"ordersCount","outputs":[{"internalType":"uint256","name":"","type":"uint256"}],"stateMutability":"view","type":"function"},{"inputs":[{"internalType":"uint256","name":"orderId","type":"uint256"}],"name":"raiseDispute","outputs":[],"stateMutability":"nonpayable","type":"function"},{"inputs":[{"internalType":"uint256","name":"orderId","type":"uint256"}],"name":"settleOrder","outputs":[],"stateMutability":"nonpayable","type":"function"},{"inputs":[{"internalType":"uint256","name":"orderId","type":"uint256"}],"name":"txDoneByUser","outputs":[],"stateMutability":"nonpayable","type":"function"},{"inputs":[{"internalType":"address","name":"_courtAddress","type":"address"}],"name":"updateCourt","outputs":[],"stateMutability":"nonpayable","type":"function"},{"inputs":[{"internalType":"uint256","name":"dealId","type":"uint256"},{"internalType":"uint256","name":"pricePerUnit","type":"uint256"},{"internalType":"uint256","name":"minLimitAmount","type":"uint256"},{"internalType":"uint256","name":"maxLimitAmount","type":"uint256"},{"internalType":"string[]","name":"paymentMethods","type":"string[]"},{"internalType":"string[]","name":"paymentDetails","type":"string[]"},{"internalType":"uint256","name":"expiryTime","type":"uint256"}],"name":"updateDeal","outputs":[],"stateMutability":"nonpayable","type":"function"},{"inputs":[{"internalType":"uint256","name":"orderId","type":"uint256"},{"internalType":"uint256","name":"amount","type":"uint256"}],"name":"updateOrder","outputs":[],"stateMutability":"nonpayable","type":"function"},{"inputs":[{"internalType":"address","name":"","type":"address"},{"internalType":"uint256","name":"","type":"uint256"}],"name":"userOrders","outputs":[{"internalType":"uint256","name":"","type":"uint256"}],"stateMutability":"view","type":"function"}],"evm":{"bytecode":{"linkReferences":{},"object":"60806040523480156200001157600080fd5b50604051620027a5380380620027a5833981016040819052620000349162000229565b6000620000428682620003e4565b506001620000518582620003e4565b50600880546001600160a01b03199081166001600160a01b0386161790915560078054339216821790556200008a903090848462000095565b50505050506200053a565b604051631dc43f0960e11b815281906001600160a01b03821690633b887e1290620000c990889088908890600401620004b0565b6020604051808303816000875af1158015620000e9573d6000803e3d6000fd5b505050506040513d601f19601f820116820180604052508101906200010f919062000515565b600680546001600160a01b0319166001600160a01b03929092169190911790555050505050565b634e487b7160e01b600052604160045260246000fd5b604051601f8201601f191681016001600160401b038111828210171562000177576200017762000136565b604052919050565b600082601f8301126200019157600080fd5b81516001600160401b03811115620001ad57620001ad62000136565b6020620001c3601f8301601f191682016200014c565b8281528582848701011115620001d857600080fd5b60005b83811015620001f8578581018301518282018401528201620001db565b506000928101909101919091529392505050565b80516001600160a01b03811681146200022457600080fd5b919050565b600080600080600060a086880312156200024257600080fd5b85516001600160401b03808211156200025a57600080fd5b6200026889838a016200017f565b96506020915081880151818111156200028057600080fd5b6200028e8a828b016200017f565b9650506200029f604089016200020c565b9450606088015181811115620002b457600080fd5b8801601f81018a13620002c657600080fd5b805182811115620002db57620002db62000136565b8060051b9250620002ee8484016200014c565b818152928201840192848101908c8511156200030957600080fd5b928501925b84841015620003325762000322846200020c565b825292850192908501906200030e565b80975050505050505062000349608087016200020c565b90509295509295909350565b600181811c908216806200036a57607f821691505b6020821081036200038b57634e487b7160e01b600052602260045260246000fd5b50919050565b601f821115620003df57600081815260208120601f850160051c81016020861015620003ba5750805b601f850160051c820191505b81811015620003db57828155600101620003c6565b5050505b505050565b81516001600160401b0381111562000400576200040062000136565b620004188162000411845462000355565b8462000391565b602080601f831160018114620004505760008415620004375750858301515b600019600386901b1c1916600185901b178555620003db565b600085815260208120601f198616915b82811015620004815788860151825594840194600190910190840162000460565b5085821015620004a05787850151600019600388901b60f8161c191681555b5050505050600190811b01905550565b60006060820160018060a01b03808716845260208187168186015260606040860152828651808552608087019150828801945060005b8181101562000506578551851683529483019491830191600101620004e6565b50909998505050505050505050565b6000602082840312156200052857600080fd5b62000533826200020c565b9392505050565b61225b806200054a6000396000f3fe608060405234801561001057600080fd5b50600436106101375760003560e01c80637284e416116100b8578063a5c1674e1161007c578063a5c1674e14610282578063a85c38ef14610295578063abbb9ff014610308578063b50e801d1461031b578063b67fc9e61461032e578063ef18e9ed1461034157600080fd5b80637284e4161461022e5780637567a4c61461023657806379109baa146102495780637fb5ecd71461025c578063856652e91461026f57600080fd5b80633bcfe71a116100ff5780633bcfe71a146101c15780633bf251b9146101d457806347d90b5c146101dd578063514fcac714610208578063587b71a61461021b57600080fd5b806303988f841461013c57806306a2f8b31461016d57806306fdde031461018e57806320b68524146101a357806335daa731146101b8575b600080fd5b61014f61014a366004611971565b610354565b604051610164999897969594939291906119e6565b60405180910390f35b61018061017b366004611a72565b610439565b604051908152602001610164565b61019661046a565b6040516101649190611a9c565b6101b66101b1366004611c0c565b6104f8565b005b610180600a5481565b6101b66101cf366004611ca0565b610655565b61018060095481565b6007546101f0906001600160a01b031681565b6040516001600160a01b039091168152602001610164565b6101b6610216366004611971565b61077c565b6101b6610229366004611ca0565b610898565b6101966109de565b6101b6610244366004611cc2565b6109eb565b6101b6610257366004611ca0565b610fa9565b6101b661026a366004611d7b565b6111c5565b61018061027d366004611a72565b611273565b6101b6610290366004611971565b61128f565b6102f46102a3366004611971565b600360208190526000918252604090912080546001820154600283015493830154600484015460058501546006909501549395929492939192909160ff81169061010090046001600160a01b031688565b604051610164989796959493929190611d96565b6101b6610316366004611971565b6114de565b6101b6610329366004611971565b61159b565b6006546101f0906001600160a01b031681565b6101b661034f366004611971565b6116d9565b600260208190526000918252604090912080546001820154928201546003830154600484015460058501546006860154600787018054969897959694959394929360ff8316936101009093046001600160a01b0316929091906103b690611df4565b80601f01602080910402602001604051908101604052809291908181526020018280546103e290611df4565b801561042f5780601f106104045761010080835404028352916020019161042f565b820191906000526020600020905b81548152906001019060200180831161041257829003601f168201915b5050505050905089565b6004602052816000526040600020818154811061045557600080fd5b90600052602060002001600091509150505481565b6000805461047790611df4565b80601f01602080910402602001604051908101604052809291908181526020018280546104a390611df4565b80156104f05780601f106104c5576101008083540402835291602001916104f0565b820191906000526020600020905b8154815290600101906020018083116104d357829003601f168201915b505050505081565b6000878152600260205260409020600681015461010090046001600160a01b0316331461056c5760405162461bcd60e51b815260206004820152601d60248201527f4e6f7420617574686f726973656420746f20757064617465206465616c00000060448201526064015b60405180910390fd5b80600401546000036105905760405162461bcd60e51b815260040161056390611e2e565b6000600682015460ff1660018111156105ab576105ab61198a565b146105c85760405162461bcd60e51b815260040161056390611e2e565b600281018690556003810185905583516105eb9060088301906020870190611838565b5082516106019060098301906020860190611838565b50600581018290556040517f47ac4b17899c00340ca7fca21078446670d22cab288e9f08a9cd8fa791e627dd9061064390899089908990899089908990611ea9565b60405180910390a15050505050505050565b600082815260026020526040812090600682015460ff16600181111561067d5761067d61198a565b1461069a5760405162461bcd60e51b815260040161056390611e2e565b6008546040516323b872dd60e01b8152336004820152306024820152604481018490526000916001600160a01b0316906323b872dd906064016020604051808303816000875af11580156106f2573d6000803e3d6000fd5b505050506040513d601f19601f820116820180604052508101906107169190611ef4565b9050806107235750505050565b828260040160008282546107379190611f2c565b909155505060408051858152602081018590527f8224596221a891477d576170099e3dc61c9a2d957df11653d7cf2e3d737e441091015b60405180910390a150505050565b6000818152600360205260409020600681015461010090046001600160a01b031633146107eb5760405162461bcd60e51b815260206004820152601e60248201527f4e6f7420617574686f726973656420746f20757064617465206f7264657200006044820152606401610563565b600060068083015460ff16908111156108065761080661198a565b146108235760405162461bcd60e51b815260040161056390611f45565b600181015460009081526002602052604090206003820154600482015461084a9190611f2c565b60048201556006828101805460ff191690911790556040518381527f61b9399f2f0f32ca39ce8d7be32caed5ec22fe07a6daba3a467ed479ec606582906020015b60405180910390a1505050565b6000828152600360205260409020600681015461010090046001600160a01b031633146109075760405162461bcd60e51b815260206004820152601e60248201527f4e6f7420617574686f726973656420746f20757064617465206f7264657200006044820152606401610563565b600060068083015460ff16908111156109225761092261198a565b1461093f5760405162461bcd60e51b815260040161056390611f45565b60018101546000908152600260205260409020600481015460038301546109669082611f2c565b9050838110156109885760405162461bcd60e51b815260040161056390611f94565b600383018490556109998482611fdf565b600483015560408051868152602081018690527f8e73a807b83fde44e6e12224a9b4fade736ffe96ab8d511abd64e9a1b4e8c0ca910160405180910390a15050505050565b6001805461047790611df4565b8151835114610a3c5760405162461bcd60e51b815260206004820152601960248201527f5061796d656e7420617267756d656e747320696e76616c6964000000000000006044820152606401610563565b6009546000908152600260208181526040808420815161016081018352815481526001808301549482019490945293810154918401919091526003810154606084015260048101546080840152600581015460a08401526006810154909160c084019160ff1690811115610ab257610ab261198a565b6001811115610ac357610ac361198a565b8152600682015461010090046001600160a01b03166020820152600782018054604090920191610af290611df4565b80601f0160208091040260200160405190810160405280929190818152602001828054610b1e90611df4565b8015610b6b5780601f10610b4057610100808354040283529160200191610b6b565b820191906000526020600020905b815481529060010190602001808311610b4e57829003601f168201915b5050505050815260200160088201805480602002602001604051908101604052809291908181526020016000905b82821015610c45578382906000526020600020018054610bb890611df4565b80601f0160208091040260200160405190810160405280929190818152602001828054610be490611df4565b8015610c315780601f10610c0657610100808354040283529160200191610c31565b820191906000526020600020905b815481529060010190602001808311610c1457829003601f168201915b505050505081526020019060010190610b99565b50505050815260200160098201805480602002602001604051908101604052809291908181526020016000905b82821015610d1e578382906000526020600020018054610c9190611df4565b80601f0160208091040260200160405190810160405280929190818152602001828054610cbd90611df4565b8015610d0a5780601f10610cdf57610100808354040283529160200191610d0a565b820191906000526020600020905b815481529060010190602001808311610ced57829003601f168201915b505050505081526020019060010190610c72565b50505091525050608081015190915015610d7a5760405162461bcd60e51b815260206004820152601860248201527f596f752061726520616c72656164792061206465616c657200000000000000006044820152606401610563565b6008546040516323b872dd60e01b8152336004820152306024820152604481018790526000916001600160a01b0316906323b872dd906064016020604051808303816000875af1158015610dd2573d6000803e3d6000fd5b505050506040513d601f19601f82011682018060405250810190610df69190611ef4565b905080610e04575050610f9f565b610e0c61188e565b6009805480835261010083018d90523360e0840152602083018c9052604083018b9052606083018a9052608083018990526101208301889052610140830187905260a08301869052906000610e6083611ff2565b9091555050805160009081526002602081815260409283902084518155908401516001808301919091559284015191810191909155606083015160038201556080830151600482015560a0830151600582015560c0830151600682018054859460ff19909116908381811115610ed857610ed861198a565b021790555060e0820151600682018054610100600160a81b0319166101006001600160a01b0390931683021790558201516007820190610f18908261205a565b506101208201518051610f35916008840191602090910190611838565b506101408201518051610f52916009840191602090910190611838565b509050507fbac7d2ff9aa3e75154f2656375f4e0ab12e267de756e22b55d7ea94d0606367c8b8b8b8b8b8b8b8b604051610f9398979695949392919061211a565b60405180910390a15050505b5050505050505050565b600082815260026020526040812090600682015460ff166001811115610fd157610fd161198a565b14610fee5760405162461bcd60e51b815260040161056390611e2e565b818160040154116110115760405162461bcd60e51b815260040161056390611f94565b600a805460008181526003602081905260408083208481558654600180830191825560068084018054610100600160a81b0319163361010002178155828b015460028087019182558689018e8155426004808a019182559d548c5298909a209a8b5594548a85015554938901939093559554948701949094559154958501959095556005808601549085015554838301805486959460ff90931693919260ff19909116919084908111156110c7576110c761198a565b021790555060069182015490820180546001600160a01b036101009384900481168402610100600160a81b031990921691909117909155918401805482900483166000908152600460209081526040808320600a80548254600181810185559387528587200155338086526005855283862082548154948501825590875295859020909201949094559254935460028801548251958652928501939093529390910490931681830152606081019290925260808201859052517f5f88d55333195757ca319aa0ac617520059267f8245f2067982a6caaf6916b819181900360a00190a1600a80549060006111ba83611ff2565b919050555050505050565b6007546001600160a01b0316331461121f5760405162461bcd60e51b815260206004820152601e60248201527f4e6f7420617574686f726973656420746f2075706461746520636f75727400006044820152606401610563565b600680546001600160a01b0319166001600160a01b0383169081179091556040519081527f37f0104bb744a510b6d9827b3bfdf4828cdbdb5f02fb7868916d8bafefdd607c9060200160405180910390a150565b6005602052816000526040600020818154811061045557600080fd5b6006546001600160a01b03166112d95760405162461bcd60e51b815260206004820152600f60248201526e10dbdd5c9d081b9bdd08199bdd5b99608a1b6044820152606401610563565b6000818152600360209081526040808320600181015484526002909252909120600681015461010090046001600160a01b0316331461135a5760405162461bcd60e51b815260206004820152601f60248201527f4e6f7420617574686f726973656420746f2072616973652064697370757465006044820152606401610563565b600260068084015460ff16908111156113755761137561198a565b146113ea576040805162461bcd60e51b81526020600482015260248101919091527f4f72646572207374617475732073686f756c6420626520747820646f6e65206260448201527f79207573657220696e206f7264657220746f20726169736520646973707574656064820152608401610563565b6006828101805460ff191660049081179182905591546001850154600386015460405163fe412bb760e01b8152948501919091523360248501526001600160a01b036101009093048316604485015260648401521690819063fe412bb790608401600060405180830381600087803b15801561146557600080fd5b505af1158015611479573d6000803e3d6000fd5b50505050600183015460068401546003850154604080519384523360208501526101009092046001600160a01b03169183019190915260608201527ff9bb1578be18e79f4b850bc7fffab5baec81f009bf0d9377b4d8c76a094615be9060800161076e565b6000818152600360205260409020600681015461010090046001600160a01b0316331461151d5760405162461bcd60e51b815260040161056390612184565b600160068083015460ff16908111156115385761153861198a565b146115555760405162461bcd60e51b8152600401610563906121c8565b60068101805460ff191660021790556040518281527f9799c19c1e630ca39e9e38767823152ee18a976772547b7c92fea71531ebeeb59060200160405180910390a15050565b6000818152600360205260409020600681015461010090046001600160a01b031633146115da5760405162461bcd60e51b815260040161056390612184565b600160068083015460ff16908111156115f5576115f561198a565b146116125760405162461bcd60e51b8152600401610563906121c8565b600854600382015460405163a9059cbb60e01b815233600482015260248101919091526000916001600160a01b03169063a9059cbb906044016020604051808303816000875af115801561166a573d6000803e3d6000fd5b505050506040513d601f19601f8201168201806040525081019061168e9190611ef4565b90508061169a57505050565b60068201805460ff191660031790556040518381527f824d1e05053f9a7ce963f0d1c34a10ac7b4b16e2d2a473440614f28baba734619060200161088b565b6000818152600360209081526040808320600181015484526002909252909120600681015461010090046001600160a01b0316331461175a5760405162461bcd60e51b815260206004820152601e60248201527f4e6f7420617574686f726973656420746f20616363657074206f7264657200006044820152606401610563565b600060068084015460ff16908111156117755761177561198a565b146117dc5760405162461bcd60e51b815260206004820152603160248201527f4f72646572207374617475732073686f756c64206265206372656174656420696044820152701b881bdc99195c881d1bc81858d8d95c1d607a1b6064820152608401610563565b81600301548160040160008282546117f49190611fdf565b909155505060068201805460ff191660011790556040518381527f262f7ad1922bdcf27203585ef3238620589ce6f74721d45bff6897a19e4f94a19060200161088b565b82805482825590600052602060002090810192821561187e579160200282015b8281111561187e578251829061186e908261205a565b5091602001919060010190611858565b5061188a929150611902565b5090565b604051806101600160405280600081526020016000815260200160008152602001600081526020016000815260200160008152602001600060018111156118d7576118d761198a565b815260200160006001600160a01b031681526020016060815260200160608152602001606081525090565b8082111561188a576000611916828261191f565b50600101611902565b50805461192b90611df4565b6000825580601f1061193b575050565b601f016020900490600052602060002090810190611959919061195c565b50565b5b8082111561188a576000815560010161195d565b60006020828403121561198357600080fd5b5035919050565b634e487b7160e01b600052602160045260246000fd5b6000815180845260005b818110156119c6576020818501810151868301820152016119aa565b506000602082860101526020601f19601f83011685010191505092915050565b60006101208b83528a60208401528960408401528860608401528760808401528660a084015260028610611a1c57611a1c61198a565b60c083018690526001600160a01b03851660e08401526101008301819052611a46818401856119a0565b9c9b505050505050505050505050565b80356001600160a01b0381168114611a6d57600080fd5b919050565b60008060408385031215611a8557600080fd5b611a8e83611a56565b946020939093013593505050565b602081526000611aaf60208301846119a0565b9392505050565b634e487b7160e01b600052604160045260246000fd5b604051601f8201601f1916810167ffffffffffffffff81118282101715611af557611af5611ab6565b604052919050565b600082601f830112611b0e57600080fd5b813567ffffffffffffffff811115611b2857611b28611ab6565b611b3b601f8201601f1916602001611acc565b818152846020838601011115611b5057600080fd5b816020850160208301376000918101602001919091529392505050565b600082601f830112611b7e57600080fd5b8135602067ffffffffffffffff80831115611b9b57611b9b611ab6565b8260051b611baa838201611acc565b9384528581018301938381019088861115611bc457600080fd5b84880192505b85831015611c0057823584811115611be25760008081fd5b611bf08a87838c0101611afd565b8352509184019190840190611bca565b98975050505050505050565b600080600080600080600060e0888a031215611c2757600080fd5b87359650602088013595506040880135945060608801359350608088013567ffffffffffffffff80821115611c5b57600080fd5b611c678b838c01611b6d565b945060a08a0135915080821115611c7d57600080fd5b50611c8a8a828b01611b6d565b92505060c0880135905092959891949750929550565b60008060408385031215611cb357600080fd5b50508035926020909101359150565b600080600080600080600080610100898b031215611cdf57600080fd5b883567ffffffffffffffff80821115611cf757600080fd5b611d038c838d01611afd565b995060208b0135985060408b0135975060608b0135965060808b0135955060a08b0135915080821115611d3557600080fd5b611d418c838d01611b6d565b945060c08b0135915080821115611d5757600080fd5b50611d648b828c01611b6d565b92505060e089013590509295985092959890939650565b600060208284031215611d8d57600080fd5b611aaf82611a56565b6000610100820190508982528860208301528760408301528660608301528560808301528460a083015260078410611dd057611dd061198a565b60c08201939093526001600160a01b039190911660e0909101529695505050505050565b600181811c90821680611e0857607f821691505b602082108103611e2857634e487b7160e01b600052602260045260246000fd5b50919050565b6020808252600f908201526e4465616c206e6f742061637469766560881b604082015260600190565b6000815180845260208085019450848260051b860182860160005b85811015611e9c578383038952611e8a8383516119a0565b98850198925090840190600101611e72565b5090979650505050505050565b86815285602082015284604082015260c060608201526000611ece60c0830186611e57565b8281036080840152611ee08186611e57565b9150508260a0830152979650505050505050565b600060208284031215611f0657600080fd5b81518015158114611aaf57600080fd5b634e487b7160e01b600052601160045260246000fd5b80820180821115611f3f57611f3f611f16565b92915050565b6020808252602f908201527f43616e6e6f7420757064617465206f72646572206f6e6365206974732061636360408201526e32b83a32b210313c903232b0b632b960891b606082015260800190565b6020808252602b908201527f53756666696369656e7420616d6f756e74206e6f7420617661696c61626c652060408201526a3bb4ba34103232b0b632b960a91b606082015260800190565b81810381811115611f3f57611f3f611f16565b60006001820161200457612004611f16565b5060010190565b601f82111561205557600081815260208120601f850160051c810160208610156120325750805b601f850160051c820191505b818110156120515782815560010161203e565b5050505b505050565b815167ffffffffffffffff81111561207457612074611ab6565b612088816120828454611df4565b8461200b565b602080601f8311600181146120bd57600084156120a55750858301515b600019600386901b1c1916600185901b178555612051565b600085815260208120601f198616915b828110156120ec578886015182559484019460019091019084016120cd565b508582101561210a5787850151600019600388901b60f8161c191681555b5050505050600190811b01905550565b600061010080835261212e8184018c6119a0565b905089602084015288604084015287606084015286608084015282810360a084015261215a8187611e57565b905082810360c084015261216e8186611e57565b9150508260e08301529998505050505050505050565b60208082526024908201527f4e6f7420617574686f726973656420746f206d61726b206f7264657220617320604082015263646f6e6560e01b606082015260800190565b6020808252603e908201527f4f72646572207374617475732073686f756c642062652061636365707465642060408201527f6279206465616c657220696e206f7264657220746f20696e697469617465000060608201526080019056fea26469706673582212202310007d31090d0bb6d3d3a6f8fb2a6427c3056e76e3140ff66100b08eef046964736f6c63430008110033","opcodes":"PUSH1 0x80 PUSH1 0x40 MSTORE CALLVALUE DUP1 ISZERO PUSH3 0x11 JUMPI PUSH1 0x0 DUP1 REVERT JUMPDEST POP PUSH1 0x40 MLOAD PUSH3 0x27A5 CODESIZE SUB DUP1 PUSH3 0x27A5 DUP4 CODECOPY DUP2 ADD PUSH1 0x40 DUP2 SWAP1 MSTORE PUSH3 0x34 SWAP2 PUSH3 0x229 JUMP JUMPDEST PUSH1 0x0 PUSH3 0x42 DUP7 DUP3 PUSH3 0x3E4 JUMP JUMPDEST POP PUSH1 0x1 PUSH3 0x51 DUP6 DUP3 PUSH3 0x3E4 JUMP JUMPDEST POP PUSH1 0x8 DUP1 SLOAD PUSH1 0x1 PUSH1 0x1 PUSH1 0xA0 SHL SUB NOT SWAP1 DUP2 AND PUSH1 0x1 PUSH1 0x1 PUSH1 0xA0 SHL SUB DUP7 AND OR SWAP1 SWAP2 SSTORE PUSH1 0x7 DUP1 SLOAD CALLER SWAP3 AND DUP3 OR SWAP1 SSTORE PUSH3 0x8A SWAP1 ADDRESS SWAP1 DUP5 DUP5 PUSH3 0x95 JUMP JUMPDEST POP POP POP POP POP PUSH3 0x53A JUMP JUMPDEST PUSH1 0x40 MLOAD PUSH4 0x1DC43F09 PUSH1 0xE1 SHL DUP2 MSTORE DUP2 SWAP1 PUSH1 0x1 PUSH1 0x1 PUSH1 0xA0 SHL SUB DUP3 AND SWAP1 PUSH4 0x3B887E12 SWAP1 PUSH3 0xC9 SWAP1 DUP9 SWAP1 DUP9 SWAP1 DUP9 SWAP1 PUSH1 0x4 ADD PUSH3 0x4B0 JUMP JUMPDEST PUSH1 0x20 PUSH1 0x40 MLOAD DUP1 DUP4 SUB DUP2 PUSH1 0x0 DUP8 GAS CALL ISZERO DUP1 ISZERO PUSH3 0xE9 JUMPI RETURNDATASIZE PUSH1 0x0 DUP1 RETURNDATACOPY RETURNDATASIZE PUSH1 0x0 REVERT JUMPDEST POP POP POP POP PUSH1 0x40 MLOAD RETURNDATASIZE PUSH1 0x1F NOT PUSH1 0x1F DUP3 ADD AND DUP3 ADD DUP1 PUSH1 0x40 MSTORE POP DUP2 ADD SWAP1 PUSH3 0x10F SWAP2 SWAP1 PUSH3 0x515 JUMP JUMPDEST PUSH1 0x6 DUP1 SLOAD PUSH1 0x1 PUSH1 0x1 PUSH1 0xA0 SHL SUB NOT AND PUSH1 0x1 PUSH1 0x1 PUSH1 0xA0 SHL SUB SWAP3 SWAP1 SWAP3 AND SWAP2 SWAP1 SWAP2 OR SWAP1 SSTORE POP POP POP POP POP JUMP JUMPDEST PUSH4 0x4E487B71 PUSH1 0xE0 SHL PUSH1 0x0 MSTORE PUSH1 0x41 PUSH1 0x4 MSTORE PUSH1 0x24 PUSH1 0x0 REVERT JUMPDEST PUSH1 0x40 MLOAD PUSH1 0x1F DUP3 ADD PUSH1 0x1F NOT AND DUP2 ADD PUSH1 0x1 PUSH1 0x1 PUSH1 0x40 SHL SUB DUP2 GT DUP3 DUP3 LT OR ISZERO PUSH3 0x177 JUMPI PUSH3 0x177 PUSH3 0x136 JUMP JUMPDEST PUSH1 0x40 MSTORE SWAP2 SWAP1 POP JUMP JUMPDEST PUSH1 0x0 DUP3 PUSH1 0x1F DUP4 ADD SLT PUSH3 0x191 JUMPI PUSH1 0x0 DUP1 REVERT JUMPDEST DUP2 MLOAD PUSH1 0x1 PUSH1 0x1 PUSH1 0x40 SHL SUB DUP2 GT ISZERO PUSH3 0x1AD JUMPI PUSH3 0x1AD PUSH3 0x136 JUMP JUMPDEST PUSH1 0x20 PUSH3 0x1C3 PUSH1 0x1F DUP4 ADD PUSH1 0x1F NOT AND DUP3 ADD PUSH3 0x14C JUMP JUMPDEST DUP3 DUP2 MSTORE DUP6 DUP3 DUP5 DUP8 ADD ADD GT ISZERO PUSH3 0x1D8 JUMPI PUSH1 0x0 DUP1 REVERT JUMPDEST PUSH1 0x0 JUMPDEST DUP4 DUP2 LT ISZERO PUSH3 0x1F8 JUMPI DUP6 DUP2 ADD DUP4 ADD MLOAD DUP3 DUP3 ADD DUP5 ADD MSTORE DUP3 ADD PUSH3 0x1DB JUMP JUMPDEST POP PUSH1 0x0 SWAP3 DUP2 ADD SWAP1 SWAP2 ADD SWAP2 SWAP1 SWAP2 MSTORE SWAP4 SWAP3 POP POP POP JUMP JUMPDEST DUP1 MLOAD PUSH1 0x1 PUSH1 0x1 PUSH1 0xA0 SHL SUB DUP2 AND DUP2 EQ PUSH3 0x224 JUMPI PUSH1 0x0 DUP1 REVERT JUMPDEST SWAP2 SWAP1 POP JUMP JUMPDEST PUSH1 0x0 DUP1 PUSH1 0x0 DUP1 PUSH1 0x0 PUSH1 0xA0 DUP7 DUP9 SUB SLT ISZERO PUSH3 0x242 JUMPI PUSH1 0x0 DUP1 REVERT JUMPDEST DUP6 MLOAD PUSH1 0x1 PUSH1 0x1 PUSH1 0x40 SHL SUB DUP1 DUP3 GT ISZERO PUSH3 0x25A JUMPI PUSH1 0x0 DUP1 REVERT JUMPDEST PUSH3 0x268 DUP10 DUP4 DUP11 ADD PUSH3 0x17F JUMP JUMPDEST SWAP7 POP PUSH1 0x20 SWAP2 POP DUP2 DUP9 ADD MLOAD DUP2 DUP2 GT ISZERO PUSH3 0x280 JUMPI PUSH1 0x0 DUP1 REVERT JUMPDEST PUSH3 0x28E DUP11 DUP3 DUP12 ADD PUSH3 0x17F JUMP JUMPDEST SWAP7 POP POP PUSH3 0x29F PUSH1 0x40 DUP10 ADD PUSH3 0x20C JUMP JUMPDEST SWAP5 POP PUSH1 0x60 DUP9 ADD MLOAD DUP2 DUP2 GT ISZERO PUSH3 0x2B4 JUMPI PUSH1 0x0 DUP1 REVERT JUMPDEST DUP9 ADD PUSH1 0x1F DUP2 ADD DUP11 SGT PUSH3 0x2C6 JUMPI PUSH1 0x0 DUP1 REVERT JUMPDEST DUP1 MLOAD DUP3 DUP2 GT ISZERO PUSH3 0x2DB JUMPI PUSH3 0x2DB PUSH3 0x136 JUMP JUMPDEST DUP1 PUSH1 0x5 SHL SWAP3 POP PUSH3 0x2EE DUP5 DUP5 ADD PUSH3 0x14C JUMP JUMPDEST DUP2 DUP2 MSTORE SWAP3 DUP3 ADD DUP5 ADD SWAP3 DUP5 DUP2 ADD SWAP1 DUP13 DUP6 GT ISZERO PUSH3 0x309 JUMPI PUSH1 0x0 DUP1 REVERT JUMPDEST SWAP3 DUP6 ADD SWAP3 JUMPDEST DUP5 DUP5 LT ISZERO PUSH3 0x332 JUMPI PUSH3 0x322 DUP5 PUSH3 0x20C JUMP JUMPDEST DUP3 MSTORE SWAP3 DUP6 ADD SWAP3 SWAP1 DUP6 ADD SWAP1 PUSH3 0x30E JUMP JUMPDEST DUP1 SWAP8 POP POP POP POP POP POP POP PUSH3 0x349 PUSH1 0x80 DUP8 ADD PUSH3 0x20C JUMP JUMPDEST SWAP1 POP SWAP3 SWAP6 POP SWAP3 SWAP6 SWAP1 SWAP4 POP JUMP JUMPDEST PUSH1 0x1 DUP2 DUP2 SHR SWAP1 DUP3 AND DUP1 PUSH3 0x36A JUMPI PUSH1 0x7F DUP3 AND SWAP2 POP JUMPDEST PUSH1 0x20 DUP3 LT DUP2 SUB PUSH3 0x38B JUMPI PUSH4 0x4E487B71 PUSH1 0xE0 SHL PUSH1 0x0 MSTORE PUSH1 0x22 PUSH1 0x4 MSTORE PUSH1 0x24 PUSH1 0x0 REVERT JUMPDEST POP SWAP2 SWAP1 POP JUMP JUMPDEST PUSH1 0x1F DUP3 GT ISZERO PUSH3 0x3DF JUMPI PUSH1 0x0 DUP2 DUP2 MSTORE PUSH1 0x20 DUP2 KECCAK256 PUSH1 0x1F DUP6 ADD PUSH1 0x5 SHR DUP2 ADD PUSH1 0x20 DUP7 LT ISZERO PUSH3 0x3BA JUMPI POP DUP1 JUMPDEST PUSH1 0x1F DUP6 ADD PUSH1 0x5 SHR DUP3 ADD SWAP2 POP JUMPDEST DUP2 DUP2 LT ISZERO PUSH3 0x3DB JUMPI DUP3 DUP2 SSTORE PUSH1 0x1 ADD PUSH3 0x3C6 JUMP JUMPDEST POP POP POP JUMPDEST POP POP POP JUMP JUMPDEST DUP2 MLOAD PUSH1 0x1 PUSH1 0x1 PUSH1 0x40 SHL SUB DUP2 GT ISZERO PUSH3 0x400 JUMPI PUSH3 0x400 PUSH3 0x136 JUMP JUMPDEST PUSH3 0x418 DUP2 PUSH3 0x411 DUP5 SLOAD PUSH3 0x355 JUMP JUMPDEST DUP5 PUSH3 0x391 JUMP JUMPDEST PUSH1 0x20 DUP1 PUSH1 0x1F DUP4 GT PUSH1 0x1 DUP2 EQ PUSH3 0x450 JUMPI PUSH1 0x0 DUP5 ISZERO PUSH3 0x437 JUMPI POP DUP6 DUP4 ADD MLOAD JUMPDEST PUSH1 0x0 NOT PUSH1 0x3 DUP7 SWAP1 SHL SHR NOT AND PUSH1 0x1 DUP6 SWAP1 SHL OR DUP6 SSTORE PUSH3 0x3DB JUMP JUMPDEST PUSH1 0x0 DUP6 DUP2 MSTORE PUSH1 0x20 DUP2 KECCAK256 PUSH1 0x1F NOT DUP7 AND SWAP2 JUMPDEST DUP3 DUP2 LT ISZERO PUSH3 0x481 JUMPI DUP9 DUP7 ADD MLOAD DUP3 SSTORE SWAP5 DUP5 ADD SWAP5 PUSH1 0x1 SWAP1 SWAP2 ADD SWAP1 DUP5 ADD PUSH3 0x460 JUMP JUMPDEST POP DUP6 DUP3 LT ISZERO PUSH3 0x4A0 JUMPI DUP8 DUP6 ADD MLOAD PUSH1 0x0 NOT PUSH1 0x3 DUP9 SWAP1 SHL PUSH1 0xF8 AND SHR NOT AND DUP2 SSTORE JUMPDEST POP POP POP POP POP PUSH1 0x1 SWAP1 DUP2 SHL ADD SWAP1 SSTORE POP JUMP JUMPDEST PUSH1 0x0 PUSH1 0x60 DUP3 ADD PUSH1 0x1 DUP1 PUSH1 0xA0 SHL SUB DUP1 DUP8 AND DUP5 MSTORE PUSH1 0x20 DUP2 DUP8 AND DUP2 DUP7 ADD MSTORE PUSH1 0x60 PUSH1 0x40 DUP7 ADD MSTORE DUP3 DUP7 MLOAD DUP1 DUP6 MSTORE PUSH1 0x80 DUP8 ADD SWAP2 POP DUP3 DUP9 ADD SWAP5 POP PUSH1 0x0 JUMPDEST DUP2 DUP2 LT ISZERO PUSH3 0x506 JUMPI DUP6 MLOAD DUP6 AND DUP4 MSTORE SWAP5 DUP4 ADD SWAP5 SWAP2 DUP4 ADD SWAP2 PUSH1 0x1 ADD PUSH3 0x4E6 JUMP JUMPDEST POP SWAP1 SWAP10 SWAP9 POP POP POP POP POP POP POP POP POP JUMP JUMPDEST PUSH1 0x0 PUSH1 0x20 DUP3 DUP5 SUB SLT ISZERO PUSH3 0x528 JUMPI PUSH1 0x0 DUP1 REVERT JUMPDEST PUSH3 0x533 DUP3 PUSH3 0x20C JUMP JUMPDEST SWAP4 SWAP3 POP POP POP JUMP JUMPDEST PUSH2 0x225B DUP1 PUSH3 0x54A PUSH1 0x0 CODECOPY PUSH1 0x0 RETURN INVALID PUSH1 0x80 PUSH1 0x40 MSTORE CALLVALUE DUP1 ISZERO PUSH2 0x10 JUMPI PUSH1 0x0 DUP1 REVERT JUMPDEST POP PUSH1 0x4 CALLDATASIZE LT PUSH2 0x137 JUMPI PUSH1 0x0 CALLDATALOAD PUSH1 0xE0 SHR DUP1 PUSH4 0x7284E416 GT PUSH2 0xB8 JUMPI DUP1 PUSH4 0xA5C1674E GT PUSH2 0x7C JUMPI DUP1 PUSH4 0xA5C1674E EQ PUSH2 0x282 JUMPI DUP1 PUSH4 0xA85C38EF EQ PUSH2 0x295 JUMPI DUP1 PUSH4 0xABBB9FF0 EQ PUSH2 0x308 JUMPI DUP1 PUSH4 0xB50E801D EQ PUSH2 0x31B JUMPI DUP1 PUSH4 0xB67FC9E6 EQ PUSH2 0x32E JUMPI DUP1 PUSH4 0xEF18E9ED EQ PUSH2 0x341 JUMPI PUSH1 0x0 DUP1 REVERT JUMPDEST DUP1 PUSH4 0x7284E416 EQ PUSH2 0x22E JUMPI DUP1 PUSH4 0x7567A4C6 EQ PUSH2 0x236 JUMPI DUP1 PUSH4 0x79109BAA EQ PUSH2 0x249 JUMPI DUP1 PUSH4 0x7FB5ECD7 EQ PUSH2 0x25C JUMPI DUP1 PUSH4 0x856652E9 EQ PUSH2 0x26F JUMPI PUSH1 0x0 DUP1 REVERT JUMPDEST DUP1 PUSH4 0x3BCFE71A GT PUSH2 0xFF JUMPI DUP1 PUSH4 0x3BCFE71A EQ PUSH2 0x1C1 JUMPI DUP1 PUSH4 0x3BF251B9 EQ PUSH2 0x1D4 JUMPI DUP1 PUSH4 0x47D90B5C EQ PUSH2 0x1DD JUMPI DUP1 PUSH4 0x514FCAC7 EQ PUSH2 0x208 JUMPI DUP1 PUSH4 0x587B71A6 EQ PUSH2 0x21B JUMPI PUSH1 0x0 DUP1 REVERT JUMPDEST DUP1 PUSH4 0x3988F84 EQ PUSH2 0x13C JUMPI DUP1 PUSH4 0x6A2F8B3 EQ PUSH2 0x16D JUMPI DUP1 PUSH4 0x6FDDE03 EQ PUSH2 0x18E JUMPI DUP1 PUSH4 0x20B68524 EQ PUSH2 0x1A3 JUMPI DUP1 PUSH4 0x35DAA731 EQ PUSH2 0x1B8 JUMPI JUMPDEST PUSH1 0x0 DUP1 REVERT JUMPDEST PUSH2 0x14F PUSH2 0x14A CALLDATASIZE PUSH1 0x4 PUSH2 0x1971 JUMP JUMPDEST PUSH2 0x354 JUMP JUMPDEST PUSH1 0x40 MLOAD PUSH2 0x164 SWAP10 SWAP9 SWAP8 SWAP7 SWAP6 SWAP5 SWAP4 SWAP3 SWAP2 SWAP1 PUSH2 0x19E6 JUMP JUMPDEST PUSH1 0x40 MLOAD DUP1 SWAP2 SUB SWAP1 RETURN JUMPDEST PUSH2 0x180 PUSH2 0x17B CALLDATASIZE PUSH1 0x4 PUSH2 0x1A72 JUMP JUMPDEST PUSH2 0x439 JUMP JUMPDEST PUSH1 0x40 MLOAD SWAP1 DUP2 MSTORE PUSH1 0x20 ADD PUSH2 0x164 JUMP JUMPDEST PUSH2 0x196 PUSH2 0x46A JUMP JUMPDEST PUSH1 0x40 MLOAD PUSH2 0x164 SWAP2 SWAP1 PUSH2 0x1A9C JUMP JUMPDEST PUSH2 0x1B6 PUSH2 0x1B1 CALLDATASIZE PUSH1 0x4 PUSH2 0x1C0C JUMP JUMPDEST PUSH2 0x4F8 JUMP JUMPDEST STOP JUMPDEST PUSH2 0x180 PUSH1 0xA SLOAD DUP2 JUMP JUMPDEST PUSH2 0x1B6 PUSH2 0x1CF CALLDATASIZE PUSH1 0x4 PUSH2 0x1CA0 JUMP JUMPDEST PUSH2 0x655 JUMP JUMPDEST PUSH2 0x180 PUSH1 0x9 SLOAD DUP2 JUMP JUMPDEST PUSH1 0x7 SLOAD PUSH2 0x1F0 SWAP1 PUSH1 0x1 PUSH1 0x1 PUSH1 0xA0 SHL SUB AND DUP2 JUMP JUMPDEST PUSH1 0x40 MLOAD PUSH1 0x1 PUSH1 0x1 PUSH1 0xA0 SHL SUB SWAP1 SWAP2 AND DUP2 MSTORE PUSH1 0x20 ADD PUSH2 0x164 JUMP JUMPDEST PUSH2 0x1B6 PUSH2 0x216 CALLDATASIZE PUSH1 0x4 PUSH2 0x1971 JUMP JUMPDEST PUSH2 0x77C JUMP JUMPDEST PUSH2 0x1B6 PUSH2 0x229 CALLDATASIZE PUSH1 0x4 PUSH2 0x1CA0 JUMP JUMPDEST PUSH2 0x898 JUMP JUMPDEST PUSH2 0x196 PUSH2 0x9DE JUMP JUMPDEST PUSH2 0x1B6 PUSH2 0x244 CALLDATASIZE PUSH1 0x4 PUSH2 0x1CC2 JUMP JUMPDEST PUSH2 0x9EB JUMP JUMPDEST PUSH2 0x1B6 PUSH2 0x257 CALLDATASIZE PUSH1 0x4 PUSH2 0x1CA0 JUMP JUMPDEST PUSH2 0xFA9 JUMP JUMPDEST PUSH2 0x1B6 PUSH2 0x26A CALLDATASIZE PUSH1 0x4 PUSH2 0x1D7B JUMP JUMPDEST PUSH2 0x11C5 JUMP JUMPDEST PUSH2 0x180 PUSH2 0x27D CALLDATASIZE PUSH1 0x4 PUSH2 0x1A72 JUMP JUMPDEST PUSH2 0x1273 JUMP JUMPDEST PUSH2 0x1B6 PUSH2 0x290 CALLDATASIZE PUSH1 0x4 PUSH2 0x1971 JUMP JUMPDEST PUSH2 0x128F JUMP JUMPDEST PUSH2 0x2F4 PUSH2 0x2A3 CALLDATASIZE PUSH1 0x4 PUSH2 0x1971 JUMP JUMPDEST PUSH1 0x3 PUSH1 0x20 DUP2 SWAP1 MSTORE PUSH1 0x0 SWAP2 DUP3 MSTORE PUSH1 0x40 SWAP1 SWAP2 KECCAK256 DUP1 SLOAD PUSH1 0x1 DUP3 ADD SLOAD PUSH1 0x2 DUP4 ADD SLOAD SWAP4 DUP4 ADD SLOAD PUSH1 0x4 DUP5 ADD SLOAD PUSH1 0x5 DUP6 ADD SLOAD PUSH1 0x6 SWAP1 SWAP6 ADD SLOAD SWAP4 SWAP6 SWAP3 SWAP5 SWAP3 SWAP4 SWAP2 SWAP3 SWAP1 SWAP2 PUSH1 0xFF DUP2 AND SWAP1 PUSH2 0x100 SWAP1 DIV PUSH1 0x1 PUSH1 0x1 PUSH1 0xA0 SHL SUB AND DUP9 JUMP JUMPDEST PUSH1 0x40 MLOAD PUSH2 0x164 SWAP9 SWAP8 SWAP7 SWAP6 SWAP5 SWAP4 SWAP3 SWAP2 SWAP1 PUSH2 0x1D96 JUMP JUMPDEST PUSH2 0x1B6 PUSH2 0x316 CALLDATASIZE PUSH1 0x4 PUSH2 0x1971 JUMP JUMPDEST PUSH2 0x14DE JUMP JUMPDEST PUSH2 0x1B6 PUSH2 0x329 CALLDATASIZE PUSH1 0x4 PUSH2 0x1971 JUMP JUMPDEST PUSH2 0x159B JUMP JUMPDEST PUSH1 0x6 SLOAD PUSH2 0x1F0 SWAP1 PUSH1 0x1 PUSH1 0x1 PUSH1 0xA0 SHL SUB AND DUP2 JUMP JUMPDEST PUSH2 0x1B6 PUSH2 0x34F CALLDATASIZE PUSH1 0x4 PUSH2 0x1971 JUMP JUMPDEST PUSH2 0x16D9 JUMP JUMPDEST PUSH1 0x2 PUSH1 0x20 DUP2 SWAP1 MSTORE PUSH1 0x0 SWAP2 DUP3 MSTORE PUSH1 0x40 SWAP1 SWAP2 KECCAK256 DUP1 SLOAD PUSH1 0x1 DUP3 ADD SLOAD SWAP3 DUP3 ADD SLOAD PUSH1 0x3 DUP4 ADD SLOAD PUSH1 0x4 DUP5 ADD SLOAD PUSH1 0x5 DUP6 ADD SLOAD PUSH1 0x6 DUP7 ADD SLOAD PUSH1 0x7 DUP8 ADD DUP1 SLOAD SWAP7 SWAP9 SWAP8 SWAP6 SWAP7 SWAP5 SWAP6 SWAP4 SWAP5 SWAP3 SWAP4 PUSH1 0xFF DUP4 AND SWAP4 PUSH2 0x100 SWAP1 SWAP4 DIV PUSH1 0x1 PUSH1 0x1 PUSH1 0xA0 SHL SUB AND SWAP3 SWAP1 SWAP2 SWAP1 PUSH2 0x3B6 SWAP1 PUSH2 0x1DF4 JUMP JUMPDEST DUP1 PUSH1 0x1F ADD PUSH1 0x20 DUP1 SWAP2 DIV MUL PUSH1 0x20 ADD PUSH1 0x40 MLOAD SWAP1 DUP2 ADD PUSH1 0x40 MSTORE DUP1 SWAP3 SWAP2 SWAP1 DUP2 DUP2 MSTORE PUSH1 0x20 ADD DUP3 DUP1 SLOAD PUSH2 0x3E2 SWAP1 PUSH2 0x1DF4 JUMP JUMPDEST DUP1 ISZERO PUSH2 0x42F JUMPI DUP1 PUSH1 0x1F LT PUSH2 0x404 JUMPI PUSH2 0x100 DUP1 DUP4 SLOAD DIV MUL DUP4 MSTORE SWAP2 PUSH1 0x20 ADD SWAP2 PUSH2 0x42F JUMP JUMPDEST DUP3 ADD SWAP2 SWAP1 PUSH1 0x0 MSTORE PUSH1 0x20 PUSH1 0x0 KECCAK256 SWAP1 JUMPDEST DUP2 SLOAD DUP2 MSTORE SWAP1 PUSH1 0x1 ADD SWAP1 PUSH1 0x20 ADD DUP1 DUP4 GT PUSH2 0x412 JUMPI DUP3 SWAP1 SUB PUSH1 0x1F AND DUP3 ADD SWAP2 JUMPDEST POP POP POP POP POP SWAP1 POP DUP10 JUMP JUMPDEST PUSH1 0x4 PUSH1 0x20 MSTORE DUP2 PUSH1 0x0 MSTORE PUSH1 0x40 PUSH1 0x0 KECCAK256 DUP2 DUP2 SLOAD DUP2 LT PUSH2 0x455 JUMPI PUSH1 0x0 DUP1 REVERT JUMPDEST SWAP1 PUSH1 0x0 MSTORE PUSH1 0x20 PUSH1 0x0 KECCAK256 ADD PUSH1 0x0 SWAP2 POP SWAP2 POP POP SLOAD DUP2 JUMP JUMPDEST PUSH1 0x0 DUP1 SLOAD PUSH2 0x477 SWAP1 PUSH2 0x1DF4 JUMP JUMPDEST DUP1 PUSH1 0x1F ADD PUSH1 0x20 DUP1 SWAP2 DIV MUL PUSH1 0x20 ADD PUSH1 0x40 MLOAD SWAP1 DUP2 ADD PUSH1 0x40 MSTORE DUP1 SWAP3 SWAP2 SWAP1 DUP2 DUP2 MSTORE PUSH1 0x20 ADD DUP3 DUP1 SLOAD PUSH2 0x4A3 SWAP1 PUSH2 0x1DF4 JUMP JUMPDEST DUP1 ISZERO PUSH2 0x4F0 JUMPI DUP1 PUSH1 0x1F LT PUSH2 0x4C5 JUMPI PUSH2 0x100 DUP1 DUP4 SLOAD DIV MUL DUP4 MSTORE SWAP2 PUSH1 0x20 ADD SWAP2 PUSH2 0x4F0 JUMP JUMPDEST DUP3 ADD SWAP2 SWAP1 PUSH1 0x0 MSTORE PUSH1 0x20 PUSH1 0x0 KECCAK256 SWAP1 JUMPDEST DUP2 SLOAD DUP2 MSTORE SWAP1 PUSH1 0x1 ADD SWAP1 PUSH1 0x20 ADD DUP1 DUP4 GT PUSH2 0x4D3 JUMPI DUP3 SWAP1 SUB PUSH1 0x1F AND DUP3 ADD SWAP2 JUMPDEST POP POP POP POP POP DUP2 JUMP JUMPDEST PUSH1 0x0 DUP8 DUP2 MSTORE PUSH1 0x2 PUSH1 0x20 MSTORE PUSH1 0x40 SWAP1 KECCAK256 PUSH1 0x6 DUP2 ADD SLOAD PUSH2 0x100 SWAP1 DIV PUSH1 0x1 PUSH1 0x1 PUSH1 0xA0 SHL SUB AND CALLER EQ PUSH2 0x56C JUMPI PUSH1 0x40 MLOAD PUSH3 0x461BCD PUSH1 0xE5 SHL DUP2 MSTORE PUSH1 0x20 PUSH1 0x4 DUP3 ADD MSTORE PUSH1 0x1D PUSH1 0x24 DUP3 ADD MSTORE PUSH32 0x4E6F7420617574686F726973656420746F20757064617465206465616C000000 PUSH1 0x44 DUP3 ADD MSTORE PUSH1 0x64 ADD JUMPDEST PUSH1 0x40 MLOAD DUP1 SWAP2 SUB SWAP1 REVERT JUMPDEST DUP1 PUSH1 0x4 ADD SLOAD PUSH1 0x0 SUB PUSH2 0x590 JUMPI PUSH1 0x40 MLOAD PUSH3 0x461BCD PUSH1 0xE5 SHL DUP2 MSTORE PUSH1 0x4 ADD PUSH2 0x563 SWAP1 PUSH2 0x1E2E JUMP JUMPDEST PUSH1 0x0 PUSH1 0x6 DUP3 ADD SLOAD PUSH1 0xFF AND PUSH1 0x1 DUP2 GT ISZERO PUSH2 0x5AB JUMPI PUSH2 0x5AB PUSH2 0x198A JUMP JUMPDEST EQ PUSH2 0x5C8 JUMPI PUSH1 0x40 MLOAD PUSH3 0x461BCD PUSH1 0xE5 SHL DUP2 MSTORE PUSH1 0x4 ADD PUSH2 0x563 SWAP1 PUSH2 0x1E2E JUMP JUMPDEST PUSH1 0x2 DUP2 ADD DUP7 SWAP1 SSTORE PUSH1 0x3 DUP2 ADD DUP6 SWAP1 SSTORE DUP4 MLOAD PUSH2 0x5EB SWAP1 PUSH1 0x8 DUP4 ADD SWAP1 PUSH1 0x20 DUP8 ADD SWAP1 PUSH2 0x1838 JUMP JUMPDEST POP DUP3 MLOAD PUSH2 0x601 SWAP1 PUSH1 0x9 DUP4 ADD SWAP1 PUSH1 0x20 DUP7 ADD SWAP1 PUSH2 0x1838 JUMP JUMPDEST POP PUSH1 0x5 DUP2 ADD DUP3 SWAP1 SSTORE PUSH1 0x40 MLOAD PUSH32 0x47AC4B17899C00340CA7FCA21078446670D22CAB288E9F08A9CD8FA791E627DD SWAP1 PUSH2 0x643 SWAP1 DUP10 SWAP1 DUP10 SWAP1 DUP10 SWAP1 DUP10 SWAP1 DUP10 SWAP1 DUP10 SWAP1 PUSH2 0x1EA9 JUMP JUMPDEST PUSH1 0x40 MLOAD DUP1 SWAP2 SUB SWAP1 LOG1 POP POP POP POP POP POP POP POP JUMP JUMPDEST PUSH1 0x0 DUP3 DUP2 MSTORE PUSH1 0x2 PUSH1 0x20 MSTORE PUSH1 0x40 DUP2 KECCAK256 SWAP1 PUSH1 0x6 DUP3 ADD SLOAD PUSH1 0xFF AND PUSH1 0x1 DUP2 GT ISZERO PUSH2 0x67D JUMPI PUSH2 0x67D PUSH2 0x198A JUMP JUMPDEST EQ PUSH2 0x69A JUMPI PUSH1 0x40 MLOAD PUSH3 0x461BCD PUSH1 0xE5 SHL DUP2 MSTORE PUSH1 0x4 ADD PUSH2 0x563 SWAP1 PUSH2 0x1E2E JUMP JUMPDEST PUSH1 0x8 SLOAD PUSH1 0x40 MLOAD PUSH4 0x23B872DD PUSH1 0xE0 SHL DUP2 MSTORE CALLER PUSH1 0x4 DUP3 ADD MSTORE ADDRESS PUSH1 0x24 DUP3 ADD MSTORE PUSH1 0x44 DUP2 ADD DUP5 SWAP1 MSTORE PUSH1 0x0 SWAP2 PUSH1 0x1 PUSH1 0x1 PUSH1 0xA0 SHL SUB AND SWAP1 PUSH4 0x23B872DD SWAP1 PUSH1 0x64 ADD PUSH1 0x20 PUSH1 0x40 MLOAD DUP1 DUP4 SUB DUP2 PUSH1 0x0 DUP8 GAS CALL ISZERO DUP1 ISZERO PUSH2 0x6F2 JUMPI RETURNDATASIZE PUSH1 0x0 DUP1 RETURNDATACOPY RETURNDATASIZE PUSH1 0x0 REVERT JUMPDEST POP POP POP POP PUSH1 0x40 MLOAD RETURNDATASIZE PUSH1 0x1F NOT PUSH1 0x1F DUP3 ADD AND DUP3 ADD DUP1 PUSH1 0x40 MSTORE POP DUP2 ADD SWAP1 PUSH2 0x716 SWAP2 SWAP1 PUSH2 0x1EF4 JUMP JUMPDEST SWAP1 POP DUP1 PUSH2 0x723 JUMPI POP POP POP POP JUMP JUMPDEST DUP3 DUP3 PUSH1 0x4 ADD PUSH1 0x0 DUP3 DUP3 SLOAD PUSH2 0x737 SWAP2 SWAP1 PUSH2 0x1F2C JUMP JUMPDEST SWAP1 SWAP2 SSTORE POP POP PUSH1 0x40 DUP1 MLOAD DUP6 DUP2 MSTORE PUSH1 0x20 DUP2 ADD DUP6 SWAP1 MSTORE PUSH32 0x8224596221A891477D576170099E3DC61C9A2D957DF11653D7CF2E3D737E4410 SWAP2 ADD JUMPDEST PUSH1 0x40 MLOAD DUP1 SWAP2 SUB SWAP1 LOG1 POP POP POP POP JUMP JUMPDEST PUSH1 0x0 DUP2 DUP2 MSTORE PUSH1 0x3 PUSH1 0x20 MSTORE PUSH1 0x40 SWAP1 KECCAK256 PUSH1 0x6 DUP2 ADD SLOAD PUSH2 0x100 SWAP1 DIV PUSH1 0x1 PUSH1 0x1 PUSH1 0xA0 SHL SUB AND CALLER EQ PUSH2 0x7EB JUMPI PUSH1 0x40 MLOAD PUSH3 0x461BCD PUSH1 0xE5 SHL DUP2 MSTORE PUSH1 0x20 PUSH1 0x4 DUP3 ADD MSTORE PUSH1 0x1E PUSH1 0x24 DUP3 ADD MSTORE PUSH32 0x4E6F7420617574686F726973656420746F20757064617465206F726465720000 PUSH1 0x44 DUP3 ADD MSTORE PUSH1 0x64 ADD PUSH2 0x563 JUMP JUMPDEST PUSH1 0x0 PUSH1 0x6 DUP1 DUP4 ADD SLOAD PUSH1 0xFF AND SWAP1 DUP2 GT ISZERO PUSH2 0x806 JUMPI PUSH2 0x806 PUSH2 0x198A JUMP JUMPDEST EQ PUSH2 0x823 JUMPI PUSH1 0x40 MLOAD PUSH3 0x461BCD PUSH1 0xE5 SHL DUP2 MSTORE PUSH1 0x4 ADD PUSH2 0x563 SWAP1 PUSH2 0x1F45 JUMP JUMPDEST PUSH1 0x1 DUP2 ADD SLOAD PUSH1 0x0 SWAP1 DUP2 MSTORE PUSH1 0x2 PUSH1 0x20 MSTORE PUSH1 0x40 SWAP1 KECCAK256 PUSH1 0x3 DUP3 ADD SLOAD PUSH1 0x4 DUP3 ADD SLOAD PUSH2 0x84A SWAP2 SWAP1 PUSH2 0x1F2C JUMP JUMPDEST PUSH1 0x4 DUP3 ADD SSTORE PUSH1 0x6 DUP3 DUP2 ADD DUP1 SLOAD PUSH1 0xFF NOT AND SWAP1 SWAP2 OR SWAP1 SSTORE PUSH1 0x40 MLOAD DUP4 DUP2 MSTORE PUSH32 0x61B9399F2F0F32CA39CE8D7BE32CAED5EC22FE07A6DABA3A467ED479EC606582 SWAP1 PUSH1 0x20 ADD JUMPDEST PUSH1 0x40 MLOAD DUP1 SWAP2 SUB SWAP1 LOG1 POP POP POP JUMP JUMPDEST PUSH1 0x0 DUP3 DUP2 MSTORE PUSH1 0x3 PUSH1 0x20 MSTORE PUSH1 0x40 SWAP1 KECCAK256 PUSH1 0x6 DUP2 ADD SLOAD PUSH2 0x100 SWAP1 DIV PUSH1 0x1 PUSH1 0x1 PUSH1 0xA0 SHL SUB AND CALLER EQ PUSH2 0x907 JUMPI PUSH1 0x40 MLOAD PUSH3 0x461BCD PUSH1 0xE5 SHL DUP2 MSTORE PUSH1 0x20 PUSH1 0x4 DUP3 ADD MSTORE PUSH1 0x1E PUSH1 0x24 DUP3 ADD MSTORE PUSH32 0x4E6F7420617574686F726973656420746F20757064617465206F726465720000 PUSH1 0x44 DUP3 ADD MSTORE PUSH1 0x64 ADD PUSH2 0x563 JUMP JUMPDEST PUSH1 0x0 PUSH1 0x6 DUP1 DUP4 ADD SLOAD PUSH1 0xFF AND SWAP1 DUP2 GT ISZERO PUSH2 0x922 JUMPI PUSH2 0x922 PUSH2 0x198A JUMP JUMPDEST EQ PUSH2 0x93F JUMPI PUSH1 0x40 MLOAD PUSH3 0x461BCD PUSH1 0xE5 SHL DUP2 MSTORE PUSH1 0x4 ADD PUSH2 0x563 SWAP1 PUSH2 0x1F45 JUMP JUMPDEST PUSH1 0x1 DUP2 ADD SLOAD PUSH1 0x0 SWAP1 DUP2 MSTORE PUSH1 0x2 PUSH1 0x20 MSTORE PUSH1 0x40 SWAP1 KECCAK256 PUSH1 0x4 DUP2 ADD SLOAD PUSH1 0x3 DUP4 ADD SLOAD PUSH2 0x966 SWAP1 DUP3 PUSH2 0x1F2C JUMP JUMPDEST SWAP1 POP DUP4 DUP2 LT ISZERO PUSH2 0x988 JUMPI PUSH1 0x40 MLOAD PUSH3 0x461BCD PUSH1 0xE5 SHL DUP2 MSTORE PUSH1 0x4 ADD PUSH2 0x563 SWAP1 PUSH2 0x1F94 JUMP JUMPDEST PUSH1 0x3 DUP4 ADD DUP5 SWAP1 SSTORE PUSH2 0x999 DUP5 DUP3 PUSH2 0x1FDF JUMP JUMPDEST PUSH1 0x4 DUP4 ADD SSTORE PUSH1 0x40 DUP1 MLOAD DUP7 DUP2 MSTORE PUSH1 0x20 DUP2 ADD DUP7 SWAP1 MSTORE PUSH32 0x8E73A807B83FDE44E6E12224A9B4FADE736FFE96AB8D511ABD64E9A1B4E8C0CA SWAP2 ADD PUSH1 0x40 MLOAD DUP1 SWAP2 SUB SWAP1 LOG1 POP POP POP POP POP JUMP JUMPDEST PUSH1 0x1 DUP1 SLOAD PUSH2 0x477 SWAP1 PUSH2 0x1DF4 JUMP JUMPDEST DUP2 MLOAD DUP4 MLOAD EQ PUSH2 0xA3C JUMPI PUSH1 0x40 MLOAD PUSH3 0x461BCD PUSH1 0xE5 SHL DUP2 MSTORE PUSH1 0x20 PUSH1 0x4 DUP3 ADD MSTORE PUSH1 0x19 PUSH1 0x24 DUP3 ADD MSTORE PUSH32 0x5061796D656E7420617267756D656E747320696E76616C696400000000000000 PUSH1 0x44 DUP3 ADD MSTORE PUSH1 0x64 ADD PUSH2 0x563 JUMP JUMPDEST PUSH1 0x9 SLOAD PUSH1 0x0 SWAP1 DUP2 MSTORE PUSH1 0x2 PUSH1 0x20 DUP2 DUP2 MSTORE PUSH1 0x40 DUP1 DUP5 KECCAK256 DUP2 MLOAD PUSH2 0x160 DUP2 ADD DUP4 MSTORE DUP2 SLOAD DUP2 MSTORE PUSH1 0x1 DUP1 DUP4 ADD SLOAD SWAP5 DUP3 ADD SWAP5 SWAP1 SWAP5 MSTORE SWAP4 DUP2 ADD SLOAD SWAP2 DUP5 ADD SWAP2 SWAP1 SWAP2 MSTORE PUSH1 0x3 DUP2 ADD SLOAD PUSH1 0x60 DUP5 ADD MSTORE PUSH1 0x4 DUP2 ADD SLOAD PUSH1 0x80 DUP5 ADD MSTORE PUSH1 0x5 DUP2 ADD SLOAD PUSH1 0xA0 DUP5 ADD MSTORE PUSH1 0x6 DUP2 ADD SLOAD SWAP1 SWAP2 PUSH1 0xC0 DUP5 ADD SWAP2 PUSH1 0xFF AND SWAP1 DUP2 GT ISZERO PUSH2 0xAB2 JUMPI PUSH2 0xAB2 PUSH2 0x198A JUMP JUMPDEST PUSH1 0x1 DUP2 GT ISZERO PUSH2 0xAC3 JUMPI PUSH2 0xAC3 PUSH2 0x198A JUMP JUMPDEST DUP2 MSTORE PUSH1 0x6 DUP3 ADD SLOAD PUSH2 0x100 SWAP1 DIV PUSH1 0x1 PUSH1 0x1 PUSH1 0xA0 SHL SUB AND PUSH1 0x20 DUP3 ADD MSTORE PUSH1 0x7 DUP3 ADD DUP1 SLOAD PUSH1 0x40 SWAP1 SWAP3 ADD SWAP2 PUSH2 0xAF2 SWAP1 PUSH2 0x1DF4 JUMP JUMPDEST DUP1 PUSH1 0x1F ADD PUSH1 0x20 DUP1 SWAP2 DIV MUL PUSH1 0x20 ADD PUSH1 0x40 MLOAD SWAP1 DUP2 ADD PUSH1 0x40 MSTORE DUP1 SWAP3 SWAP2 SWAP1 DUP2 DUP2 MSTORE PUSH1 0x20 ADD DUP3 DUP1 SLOAD PUSH2 0xB1E SWAP1 PUSH2 0x1DF4 JUMP JUMPDEST DUP1 ISZERO PUSH2 0xB6B JUMPI DUP1 PUSH1 0x1F LT PUSH2 0xB40 JUMPI PUSH2 0x100 DUP1 DUP4 SLOAD DIV MUL DUP4 MSTORE SWAP2 PUSH1 0x20 ADD SWAP2 PUSH2 0xB6B JUMP JUMPDEST DUP3 ADD SWAP2 SWAP1 PUSH1 0x0 MSTORE PUSH1 0x20 PUSH1 0x0 KECCAK256 SWAP1 JUMPDEST DUP2 SLOAD DUP2 MSTORE SWAP1 PUSH1 0x1 ADD SWAP1 PUSH1 0x20 ADD DUP1 DUP4 GT PUSH2 0xB4E JUMPI DUP3 SWAP1 SUB PUSH1 0x1F AND DUP3 ADD SWAP2 JUMPDEST POP POP POP POP POP DUP2 MSTORE PUSH1 0x20 ADD PUSH1 0x8 DUP3 ADD DUP1 SLOAD DUP1 PUSH1 0x20 MUL PUSH1 0x20 ADD PUSH1 0x40 MLOAD SWAP1 DUP2 ADD PUSH1 0x40 MSTORE DUP1 SWAP3 SWAP2 SWAP1 DUP2 DUP2 MSTORE PUSH1 0x20 ADD PUSH1 0x0 SWAP1 JUMPDEST DUP3 DUP3 LT ISZERO PUSH2 0xC45 JUMPI DUP4 DUP3 SWAP1 PUSH1 0x0 MSTORE PUSH1 0x20 PUSH1 0x0 KECCAK256 ADD DUP1 SLOAD PUSH2 0xBB8 SWAP1 PUSH2 0x1DF4 JUMP JUMPDEST DUP1 PUSH1 0x1F ADD PUSH1 0x20 DUP1 SWAP2 DIV MUL PUSH1 0x20 ADD PUSH1 0x40 MLOAD SWAP1 DUP2 ADD PUSH1 0x40 MSTORE DUP1 SWAP3 SWAP2 SWAP1 DUP2 DUP2 MSTORE PUSH1 0x20 ADD DUP3 DUP1 SLOAD PUSH2 0xBE4 SWAP1 PUSH2 0x1DF4 JUMP JUMPDEST DUP1 ISZERO PUSH2 0xC31 JUMPI DUP1 PUSH1 0x1F LT PUSH2 0xC06 JUMPI PUSH2 0x100 DUP1 DUP4 SLOAD DIV MUL DUP4 MSTORE SWAP2 PUSH1 0x20 ADD SWAP2 PUSH2 0xC31 JUMP JUMPDEST DUP3 ADD SWAP2 SWAP1 PUSH1 0x0 MSTORE PUSH1 0x20 PUSH1 0x0 KECCAK256 SWAP1 JUMPDEST DUP2 SLOAD DUP2 MSTORE SWAP1 PUSH1 0x1 ADD SWAP1 PUSH1 0x20 ADD DUP1 DUP4 GT PUSH2 0xC14 JUMPI DUP3 SWAP1 SUB PUSH1 0x1F AND DUP3 ADD SWAP2 JUMPDEST POP POP POP POP POP DUP2 MSTORE PUSH1 0x20 ADD SWAP1 PUSH1 0x1 ADD SWAP1 PUSH2 0xB99 JUMP JUMPDEST POP POP POP POP DUP2 MSTORE PUSH1 0x20 ADD PUSH1 0x9 DUP3 ADD DUP1 SLOAD DUP1 PUSH1 0x20 MUL PUSH1 0x20 ADD PUSH1 0x40 MLOAD SWAP1 DUP2 ADD PUSH1 0x40 MSTORE DUP1 SWAP3 SWAP2 SWAP1 DUP2 DUP2 MSTORE PUSH1 0x20 ADD PUSH1 0x0 SWAP1 JUMPDEST DUP3 DUP3 LT ISZERO PUSH2 0xD1E JUMPI DUP4 DUP3 SWAP1 PUSH1 0x0 MSTORE PUSH1 0x20 PUSH1 0x0 KECCAK256 ADD DUP1 SLOAD PUSH2 0xC91 SWAP1 PUSH2 0x1DF4 JUMP JUMPDEST DUP1 PUSH1 0x1F ADD PUSH1 0x20 DUP1 SWAP2 DIV MUL PUSH1 0x20 ADD PUSH1 0x40 MLOAD SWAP1 DUP2 ADD PUSH1 0x40 MSTORE DUP1 SWAP3 SWAP2 SWAP1 DUP2 DUP2 MSTORE PUSH1 0x20 ADD DUP3 DUP1 SLOAD PUSH2 0xCBD SWAP1 PUSH2 0x1DF4 JUMP JUMPDEST DUP1 ISZERO PUSH2 0xD0A JUMPI DUP1 PUSH1 0x1F LT PUSH2 0xCDF JUMPI PUSH2 0x100 DUP1 DUP4 SLOAD DIV MUL DUP4 MSTORE SWAP2 PUSH1 0x20 ADD SWAP2 PUSH2 0xD0A JUMP JUMPDEST DUP3 ADD SWAP2 SWAP1 PUSH1 0x0 MSTORE PUSH1 0x20 PUSH1 0x0 KECCAK256 SWAP1 JUMPDEST DUP2 SLOAD DUP2 MSTORE SWAP1 PUSH1 0x1 ADD SWAP1 PUSH1 0x20 ADD DUP1 DUP4 GT PUSH2 0xCED JUMPI DUP3 SWAP1 SUB PUSH1 0x1F AND DUP3 ADD SWAP2 JUMPDEST POP POP POP POP POP DUP2 MSTORE PUSH1 0x20 ADD SWAP1 PUSH1 0x1 ADD SWAP1 PUSH2 0xC72 JUMP JUMPDEST POP POP POP SWAP2 MSTORE POP POP PUSH1 0x80 DUP2 ADD MLOAD SWAP1 SWAP2 POP ISZERO PUSH2 0xD7A JUMPI PUSH1 0x40 MLOAD PUSH3 0x461BCD PUSH1 0xE5 SHL DUP2 MSTORE PUSH1 0x20 PUSH1 0x4 DUP3 ADD MSTORE PUSH1 0x18 PUSH1 0x24 DUP3 ADD MSTORE PUSH32 0x596F752061726520616C72656164792061206465616C65720000000000000000 PUSH1 0x44 DUP3 ADD MSTORE PUSH1 0x64 ADD PUSH2 0x563 JUMP JUMPDEST PUSH1 0x8 SLOAD PUSH1 0x40 MLOAD PUSH4 0x23B872DD PUSH1 0xE0 SHL DUP2 MSTORE CALLER PUSH1 0x4 DUP3 ADD MSTORE ADDRESS PUSH1 0x24 DUP3 ADD MSTORE PUSH1 0x44 DUP2 ADD DUP8 SWAP1 MSTORE PUSH1 0x0 SWAP2 PUSH1 0x1 PUSH1 0x1 PUSH1 0xA0 SHL SUB AND SWAP1 PUSH4 0x23B872DD SWAP1 PUSH1 0x64 ADD PUSH1 0x20 PUSH1 0x40 MLOAD DUP1 DUP4 SUB DUP2 PUSH1 0x0 DUP8 GAS CALL ISZERO DUP1 ISZERO PUSH2 0xDD2 JUMPI RETURNDATASIZE PUSH1 0x0 DUP1 RETURNDATACOPY RETURNDATASIZE PUSH1 0x0 REVERT JUMPDEST POP POP POP POP PUSH1 0x40 MLOAD RETURNDATASIZE PUSH1 0x1F NOT PUSH1 0x1F DUP3 ADD AND DUP3 ADD DUP1 PUSH1 0x40 MSTORE POP DUP2 ADD SWAP1 PUSH2 0xDF6 SWAP2 SWAP1 PUSH2 0x1EF4 JUMP JUMPDEST SWAP1 POP DUP1 PUSH2 0xE04 JUMPI POP POP PUSH2 0xF9F JUMP JUMPDEST PUSH2 0xE0C PUSH2 0x188E JUMP JUMPDEST PUSH1 0x9 DUP1 SLOAD DUP1 DUP4 MSTORE PUSH2 0x100 DUP4 ADD DUP14 SWAP1 MSTORE CALLER PUSH1 0xE0 DUP5 ADD MSTORE PUSH1 0x20 DUP4 ADD DUP13 SWAP1 MSTORE PUSH1 0x40 DUP4 ADD DUP12 SWAP1 MSTORE PUSH1 0x60 DUP4 ADD DUP11 SWAP1 MSTORE PUSH1 0x80 DUP4 ADD DUP10 SWAP1 MSTORE PUSH2 0x120 DUP4 ADD DUP9 SWAP1 MSTORE PUSH2 0x140 DUP4 ADD DUP8 SWAP1 MSTORE PUSH1 0xA0 DUP4 ADD DUP7 SWAP1 MSTORE SWAP1 PUSH1 0x0 PUSH2 0xE60 DUP4 PUSH2 0x1FF2 JUMP JUMPDEST SWAP1 SWAP2 SSTORE POP POP DUP1 MLOAD PUSH1 0x0 SWAP1 DUP2 MSTORE PUSH1 0x2 PUSH1 0x20 DUP2 DUP2 MSTORE PUSH1 0x40 SWAP3 DUP4 SWAP1 KECCAK256 DUP5 MLOAD DUP2 SSTORE SWAP1 DUP5 ADD MLOAD PUSH1 0x1 DUP1 DUP4 ADD SWAP2 SWAP1 SWAP2 SSTORE SWAP3 DUP5 ADD MLOAD SWAP2 DUP2 ADD SWAP2 SWAP1 SWAP2 SSTORE PUSH1 0x60 DUP4 ADD MLOAD PUSH1 0x3 DUP3 ADD SSTORE PUSH1 0x80 DUP4 ADD MLOAD PUSH1 0x4 DUP3 ADD SSTORE PUSH1 0xA0 DUP4 ADD MLOAD PUSH1 0x5 DUP3 ADD SSTORE PUSH1 0xC0 DUP4 ADD MLOAD PUSH1 0x6 DUP3 ADD DUP1 SLOAD DUP6 SWAP5 PUSH1 0xFF NOT SWAP1 SWAP2 AND SWAP1 DUP4 DUP2 DUP2 GT ISZERO PUSH2 0xED8 JUMPI PUSH2 0xED8 PUSH2 0x198A JUMP JUMPDEST MUL OR SWAP1 SSTORE POP PUSH1 0xE0 DUP3 ADD MLOAD PUSH1 0x6 DUP3 ADD DUP1 SLOAD PUSH2 0x100 PUSH1 0x1 PUSH1 0xA8 SHL SUB NOT AND PUSH2 0x100 PUSH1 0x1 PUSH1 0x1 PUSH1 0xA0 SHL SUB SWAP1 SWAP4 AND DUP4 MUL OR SWAP1 SSTORE DUP3 ADD MLOAD PUSH1 0x7 DUP3 ADD SWAP1 PUSH2 0xF18 SWAP1 DUP3 PUSH2 0x205A JUMP JUMPDEST POP PUSH2 0x120 DUP3 ADD MLOAD DUP1 MLOAD PUSH2 0xF35 SWAP2 PUSH1 0x8 DUP5 ADD SWAP2 PUSH1 0x20 SWAP1 SWAP2 ADD SWAP1 PUSH2 0x1838 JUMP JUMPDEST POP PUSH2 0x140 DUP3 ADD MLOAD DUP1 MLOAD PUSH2 0xF52 SWAP2 PUSH1 0x9 DUP5 ADD SWAP2 PUSH1 0x20 SWAP1 SWAP2 ADD SWAP1 PUSH2 0x1838 JUMP JUMPDEST POP SWAP1 POP POP PUSH32 0xBAC7D2FF9AA3E75154F2656375F4E0AB12E267DE756E22B55D7EA94D0606367C DUP12 DUP12 DUP12 DUP12 DUP12 DUP12 DUP12 DUP12 PUSH1 0x40 MLOAD PUSH2 0xF93 SWAP9 SWAP8 SWAP7 SWAP6 SWAP5 SWAP4 SWAP3 SWAP2 SWAP1 PUSH2 0x211A JUMP JUMPDEST PUSH1 0x40 MLOAD DUP1 SWAP2 SUB SWAP1 LOG1 POP POP POP JUMPDEST POP POP POP POP POP POP POP POP JUMP JUMPDEST PUSH1 0x0 DUP3 DUP2 MSTORE PUSH1 0x2 PUSH1 0x20 MSTORE PUSH1 0x40 DUP2 KECCAK256 SWAP1 PUSH1 0x6 DUP3 ADD SLOAD PUSH1 0xFF AND PUSH1 0x1 DUP2 GT ISZERO PUSH2 0xFD1 JUMPI PUSH2 0xFD1 PUSH2 0x198A JUMP JUMPDEST EQ PUSH2 0xFEE JUMPI PUSH1 0x40 MLOAD PUSH3 0x461BCD PUSH1 0xE5 SHL DUP2 MSTORE PUSH1 0x4 ADD PUSH2 0x563 SWAP1 PUSH2 0x1E2E JUMP JUMPDEST DUP2 DUP2 PUSH1 0x4 ADD SLOAD GT PUSH2 0x1011 JUMPI PUSH1 0x40 MLOAD PUSH3 0x461BCD PUSH1 0xE5 SHL DUP2 MSTORE PUSH1 0x4 ADD PUSH2 0x563 SWAP1 PUSH2 0x1F94 JUMP JUMPDEST PUSH1 0xA DUP1 SLOAD PUSH1 0x0 DUP2 DUP2 MSTORE PUSH1 0x3 PUSH1 0x20 DUP2 SWAP1 MSTORE PUSH1 0x40 DUP1 DUP4 KECCAK256 DUP5 DUP2 SSTORE DUP7 SLOAD PUSH1 0x1 DUP1 DUP4 ADD SWAP2 DUP3 SSTORE PUSH1 0x6 DUP1 DUP5 ADD DUP1 SLOAD PUSH2 0x100 PUSH1 0x1 PUSH1 0xA8 SHL SUB NOT AND CALLER PUSH2 0x100 MUL OR DUP2 SSTORE DUP3 DUP12 ADD SLOAD PUSH1 0x2 DUP1 DUP8 ADD SWAP2 DUP3 SSTORE DUP7 DUP10 ADD DUP15 DUP2 SSTORE TIMESTAMP PUSH1 0x4 DUP1 DUP11 ADD SWAP2 DUP3 SSTORE SWAP14 SLOAD DUP13 MSTORE SWAP9 SWAP1 SWAP11 KECCAK256 SWAP11 DUP12 SSTORE SWAP5 SLOAD DUP11 DUP6 ADD SSTORE SLOAD SWAP4 DUP10 ADD SWAP4 SWAP1 SWAP4 SSTORE SWAP6 SLOAD SWAP5 DUP8 ADD SWAP5 SWAP1 SWAP5 SSTORE SWAP2 SLOAD SWAP6 DUP6 ADD SWAP6 SWAP1 SWAP6 SSTORE PUSH1 0x5 DUP1 DUP7 ADD SLOAD SWAP1 DUP6 ADD SSTORE SLOAD DUP4 DUP4 ADD DUP1 SLOAD DUP7 SWAP6 SWAP5 PUSH1 0xFF SWAP1 SWAP4 AND SWAP4 SWAP2 SWAP3 PUSH1 0xFF NOT SWAP1 SWAP2 AND SWAP2 SWAP1 DUP5 SWAP1 DUP2 GT ISZERO PUSH2 0x10C7 JUMPI PUSH2 0x10C7 PUSH2 0x198A JUMP JUMPDEST MUL OR SWAP1 SSTORE POP PUSH1 0x6 SWAP2 DUP3 ADD SLOAD SWAP1 DUP3 ADD DUP1 SLOAD PUSH1 0x1 PUSH1 0x1 PUSH1 0xA0 SHL SUB PUSH2 0x100 SWAP4 DUP5 SWAP1 DIV DUP2 AND DUP5 MUL PUSH2 0x100 PUSH1 0x1 PUSH1 0xA8 SHL SUB NOT SWAP1 SWAP3 AND SWAP2 SWAP1 SWAP2 OR SWAP1 SWAP2 SSTORE SWAP2 DUP5 ADD DUP1 SLOAD DUP3 SWAP1 DIV DUP4 AND PUSH1 0x0 SWAP1 DUP2 MSTORE PUSH1 0x4 PUSH1 0x20 SWAP1 DUP2 MSTORE PUSH1 0x40 DUP1 DUP4 KECCAK256 PUSH1 0xA DUP1 SLOAD DUP3 SLOAD PUSH1 0x1 DUP2 DUP2 ADD DUP6 SSTORE SWAP4 DUP8 MSTORE DUP6 DUP8 KECCAK256 ADD SSTORE CALLER DUP1 DUP7 MSTORE PUSH1 0x5 DUP6 MSTORE DUP4 DUP7 KECCAK256 DUP3 SLOAD DUP2 SLOAD SWAP5 DUP6 ADD DUP3 SSTORE SWAP1 DUP8 MSTORE SWAP6 DUP6 SWAP1 KECCAK256 SWAP1 SWAP3 ADD SWAP5 SWAP1 SWAP5 SSTORE SWAP3 SLOAD SWAP4 SLOAD PUSH1 0x2 DUP9 ADD SLOAD DUP3 MLOAD SWAP6 DUP7 MSTORE SWAP3 DUP6 ADD SWAP4 SWAP1 SWAP4 MSTORE SWAP4 SWAP1 SWAP2 DIV SWAP1 SWAP4 AND DUP2 DUP4 ADD MSTORE PUSH1 0x60 DUP2 ADD SWAP3 SWAP1 SWAP3 MSTORE PUSH1 0x80 DUP3 ADD DUP6 SWAP1 MSTORE MLOAD PUSH32 0x5F88D55333195757CA319AA0AC617520059267F8245F2067982A6CAAF6916B81 SWAP2 DUP2 SWAP1 SUB PUSH1 0xA0 ADD SWAP1 LOG1 PUSH1 0xA DUP1 SLOAD SWAP1 PUSH1 0x0 PUSH2 0x11BA DUP4 PUSH2 0x1FF2 JUMP JUMPDEST SWAP2 SWAP1 POP SSTORE POP POP POP POP POP JUMP JUMPDEST PUSH1 0x7 SLOAD PUSH1 0x1 PUSH1 0x1 PUSH1 0xA0 SHL SUB AND CALLER EQ PUSH2 0x121F JUMPI PUSH1 0x40 MLOAD PUSH3 0x461BCD PUSH1 0xE5 SHL DUP2 MSTORE PUSH1 0x20 PUSH1 0x4 DUP3 ADD MSTORE PUSH1 0x1E PUSH1 0x24 DUP3 ADD MSTORE PUSH32 0x4E6F7420617574686F726973656420746F2075706461746520636F7572740000 PUSH1 0x44 DUP3 ADD MSTORE PUSH1 0x64 ADD PUSH2 0x563 JUMP JUMPDEST PUSH1 0x6 DUP1 SLOAD PUSH1 0x1 PUSH1 0x1 PUSH1 0xA0 SHL SUB NOT AND PUSH1 0x1 PUSH1 0x1 PUSH1 0xA0 SHL SUB DUP4 AND SWAP1 DUP2 OR SWAP1 SWAP2 SSTORE PUSH1 0x40 MLOAD SWAP1 DUP2 MSTORE PUSH32 0x37F0104BB744A510B6D9827B3BFDF4828CDBDB5F02FB7868916D8BAFEFDD607C SWAP1 PUSH1 0x20 ADD PUSH1 0x40 MLOAD DUP1 SWAP2 SUB SWAP1 LOG1 POP JUMP JUMPDEST PUSH1 0x5 PUSH1 0x20 MSTORE DUP2 PUSH1 0x0 MSTORE PUSH1 0x40 PUSH1 0x0 KECCAK256 DUP2 DUP2 SLOAD DUP2 LT PUSH2 0x455 JUMPI PUSH1 0x0 DUP1 REVERT JUMPDEST PUSH1 0x6 SLOAD PUSH1 0x1 PUSH1 0x1 PUSH1 0xA0 SHL SUB AND PUSH2 0x12D9 JUMPI PUSH1 0x40 MLOAD PUSH3 0x461BCD PUSH1 0xE5 SHL DUP2 MSTORE PUSH1 0x20 PUSH1 0x4 DUP3 ADD MSTORE PUSH1 0xF PUSH1 0x24 DUP3 ADD MSTORE PUSH15 0x10DBDD5C9D081B9BDD08199BDD5B99 PUSH1 0x8A SHL PUSH1 0x44 DUP3 ADD MSTORE PUSH1 0x64 ADD PUSH2 0x563 JUMP JUMPDEST PUSH1 0x0 DUP2 DUP2 MSTORE PUSH1 0x3 PUSH1 0x20 SWAP1 DUP2 MSTORE PUSH1 0x40 DUP1 DUP4 KECCAK256 PUSH1 0x1 DUP2 ADD SLOAD DUP5 MSTORE PUSH1 0x2 SWAP1 SWAP3 MSTORE SWAP1 SWAP2 KECCAK256 PUSH1 0x6 DUP2 ADD SLOAD PUSH2 0x100 SWAP1 DIV PUSH1 0x1 PUSH1 0x1 PUSH1 0xA0 SHL SUB AND CALLER EQ PUSH2 0x135A JUMPI PUSH1 0x40 MLOAD PUSH3 0x461BCD PUSH1 0xE5 SHL DUP2 MSTORE PUSH1 0x20 PUSH1 0x4 DUP3 ADD MSTORE PUSH1 0x1F PUSH1 0x24 DUP3 ADD MSTORE PUSH32 0x4E6F7420617574686F726973656420746F207261697365206469737075746500 PUSH1 0x44 DUP3 ADD MSTORE PUSH1 0x64 ADD PUSH2 0x563 JUMP JUMPDEST PUSH1 0x2 PUSH1 0x6 DUP1 DUP5 ADD SLOAD PUSH1 0xFF AND SWAP1 DUP2 GT ISZERO PUSH2 0x1375 JUMPI PUSH2 0x1375 PUSH2 0x198A JUMP JUMPDEST EQ PUSH2 0x13EA JUMPI PUSH1 0x40 DUP1 MLOAD PUSH3 0x461BCD PUSH1 0xE5 SHL DUP2 MSTORE PUSH1 0x20 PUSH1 0x4 DUP3 ADD MSTORE PUSH1 0x24 DUP2 ADD SWAP2 SWAP1 SWAP2 MSTORE PUSH32 0x4F72646572207374617475732073686F756C6420626520747820646F6E652062 PUSH1 0x44 DUP3 ADD MSTORE PUSH32 0x79207573657220696E206F7264657220746F2072616973652064697370757465 PUSH1 0x64 DUP3 ADD MSTORE PUSH1 0x84 ADD PUSH2 0x563 JUMP JUMPDEST PUSH1 0x6 DUP3 DUP2 ADD DUP1 SLOAD PUSH1 0xFF NOT AND PUSH1 0x4 SWAP1 DUP2 OR SWAP2 DUP3 SWAP1 SSTORE SWAP2 SLOAD PUSH1 0x1 DUP6 ADD SLOAD PUSH1 0x3 DUP7 ADD SLOAD PUSH1 0x40 MLOAD PUSH4 0xFE412BB7 PUSH1 0xE0 SHL DUP2 MSTORE SWAP5 DUP6 ADD SWAP2 SWAP1 SWAP2 MSTORE CALLER PUSH1 0x24 DUP6 ADD MSTORE PUSH1 0x1 PUSH1 0x1 PUSH1 0xA0 SHL SUB PUSH2 0x100 SWAP1 SWAP4 DIV DUP4 AND PUSH1 0x44 DUP6 ADD MSTORE PUSH1 0x64 DUP5 ADD MSTORE AND SWAP1 DUP2 SWAP1 PUSH4 0xFE412BB7 SWAP1 PUSH1 0x84 ADD PUSH1 0x0 PUSH1 0x40 MLOAD DUP1 DUP4 SUB DUP2 PUSH1 0x0 DUP8 DUP1 EXTCODESIZE ISZERO DUP1 ISZERO PUSH2 0x1465 JUMPI PUSH1 0x0 DUP1 REVERT JUMPDEST POP GAS CALL ISZERO DUP1 ISZERO PUSH2 0x1479 JUMPI RETURNDATASIZE PUSH1 0x0 DUP1 RETURNDATACOPY RETURNDATASIZE PUSH1 0x0 REVERT JUMPDEST POP POP POP POP PUSH1 0x1 DUP4 ADD SLOAD PUSH1 0x6 DUP5 ADD SLOAD PUSH1 0x3 DUP6 ADD SLOAD PUSH1 0x40 DUP1 MLOAD SWAP4 DUP5 MSTORE CALLER PUSH1 0x20 DUP6 ADD MSTORE PUSH2 0x100 SWAP1 SWAP3 DIV PUSH1 0x1 PUSH1 0x1 PUSH1 0xA0 SHL SUB AND SWAP2 DUP4 ADD SWAP2 SWAP1 SWAP2 MSTORE PUSH1 0x60 DUP3 ADD MSTORE PUSH32 0xF9BB1578BE18E79F4B850BC7FFFAB5BAEC81F009BF0D9377B4D8C76A094615BE SWAP1 PUSH1 0x80 ADD PUSH2 0x76E JUMP JUMPDEST PUSH1 0x0 DUP2 DUP2 MSTORE PUSH1 0x3 PUSH1 0x20 MSTORE PUSH1 0x40 SWAP1 KECCAK256 PUSH1 0x6 DUP2 ADD SLOAD PUSH2 0x100 SWAP1 DIV PUSH1 0x1 PUSH1 0x1 PUSH1 0xA0 SHL SUB AND CALLER EQ PUSH2 0x151D JUMPI PUSH1 0x40 MLOAD PUSH3 0x461BCD PUSH1 0xE5 SHL DUP2 MSTORE PUSH1 0x4 ADD PUSH2 0x563 SWAP1 PUSH2 0x2184 JUMP JUMPDEST PUSH1 0x1 PUSH1 0x6 DUP1 DUP4 ADD SLOAD PUSH1 0xFF AND SWAP1 DUP2 GT ISZERO PUSH2 0x1538 JUMPI PUSH2 0x1538 PUSH2 0x198A JUMP JUMPDEST EQ PUSH2 0x1555 JUMPI PUSH1 0x40 MLOAD PUSH3 0x461BCD PUSH1 0xE5 SHL DUP2 MSTORE PUSH1 0x4 ADD PUSH2 0x563 SWAP1 PUSH2 0x21C8 JUMP JUMPDEST PUSH1 0x6 DUP2 ADD DUP1 SLOAD PUSH1 0xFF NOT AND PUSH1 0x2 OR SWAP1 SSTORE PUSH1 0x40 MLOAD DUP3 DUP2 MSTORE PUSH32 0x9799C19C1E630CA39E9E38767823152EE18A976772547B7C92FEA71531EBEEB5 SWAP1 PUSH1 0x20 ADD PUSH1 0x40 MLOAD DUP1 SWAP2 SUB SWAP1 LOG1 POP POP JUMP JUMPDEST PUSH1 0x0 DUP2 DUP2 MSTORE PUSH1 0x3 PUSH1 0x20 MSTORE PUSH1 0x40 SWAP1 KECCAK256 PUSH1 0x6 DUP2 ADD SLOAD PUSH2 0x100 SWAP1 DIV PUSH1 0x1 PUSH1 0x1 PUSH1 0xA0 SHL SUB AND CALLER EQ PUSH2 0x15DA JUMPI PUSH1 0x40 MLOAD PUSH3 0x461BCD PUSH1 0xE5 SHL DUP2 MSTORE PUSH1 0x4 ADD PUSH2 0x563 SWAP1 PUSH2 0x2184 JUMP JUMPDEST PUSH1 0x1 PUSH1 0x6 DUP1 DUP4 ADD SLOAD PUSH1 0xFF AND SWAP1 DUP2 GT ISZERO PUSH2 0x15F5 JUMPI PUSH2 0x15F5 PUSH2 0x198A JUMP JUMPDEST EQ PUSH2 0x1612 JUMPI PUSH1 0x40 MLOAD PUSH3 0x461BCD PUSH1 0xE5 SHL DUP2 MSTORE PUSH1 0x4 ADD PUSH2 0x563 SWAP1 PUSH2 0x21C8 JUMP JUMPDEST PUSH1 0x8 SLOAD PUSH1 0x3 DUP3 ADD SLOAD PUSH1 0x40 MLOAD PUSH4 0xA9059CBB PUSH1 0xE0 SHL DUP2 MSTORE CALLER PUSH1 0x4 DUP3 ADD MSTORE PUSH1 0x24 DUP2 ADD SWAP2 SWAP1 SWAP2 MSTORE PUSH1 0x0 SWAP2 PUSH1 0x1 PUSH1 0x1 PUSH1 0xA0 SHL SUB AND SWAP1 PUSH4 0xA9059CBB SWAP1 PUSH1 0x44 ADD PUSH1 0x20 PUSH1 0x40 MLOAD DUP1 DUP4 SUB DUP2 PUSH1 0x0 DUP8 GAS CALL ISZERO DUP1 ISZERO PUSH2 0x166A JUMPI RETURNDATASIZE PUSH1 0x0 DUP1 RETURNDATACOPY RETURNDATASIZE PUSH1 0x0 REVERT JUMPDEST POP POP POP POP PUSH1 0x40 MLOAD RETURNDATASIZE PUSH1 0x1F NOT PUSH1 0x1F DUP3 ADD AND DUP3 ADD DUP1 PUSH1 0x40 MSTORE POP DUP2 ADD SWAP1 PUSH2 0x168E SWAP2 SWAP1 PUSH2 0x1EF4 JUMP JUMPDEST SWAP1 POP DUP1 PUSH2 0x169A JUMPI POP POP POP JUMP JUMPDEST PUSH1 0x6 DUP3 ADD DUP1 SLOAD PUSH1 0xFF NOT AND PUSH1 0x3 OR SWAP1 SSTORE PUSH1 0x40 MLOAD DUP4 DUP2 MSTORE PUSH32 0x824D1E05053F9A7CE963F0D1C34A10AC7B4B16E2D2A473440614F28BABA73461 SWAP1 PUSH1 0x20 ADD PUSH2 0x88B JUMP JUMPDEST PUSH1 0x0 DUP2 DUP2 MSTORE PUSH1 0x3 PUSH1 0x20 SWAP1 DUP2 MSTORE PUSH1 0x40 DUP1 DUP4 KECCAK256 PUSH1 0x1 DUP2 ADD SLOAD DUP5 MSTORE PUSH1 0x2 SWAP1 SWAP3 MSTORE SWAP1 SWAP2 KECCAK256 PUSH1 0x6 DUP2 ADD SLOAD PUSH2 0x100 SWAP1 DIV PUSH1 0x1 PUSH1 0x1 PUSH1 0xA0 SHL SUB AND CALLER EQ PUSH2 0x175A JUMPI PUSH1 0x40 MLOAD PUSH3 0x461BCD PUSH1 0xE5 SHL DUP2 MSTORE PUSH1 0x20 PUSH1 0x4 DUP3 ADD MSTORE PUSH1 0x1E PUSH1 0x24 DUP3 ADD MSTORE PUSH32 0x4E6F7420617574686F726973656420746F20616363657074206F726465720000 PUSH1 0x44 DUP3 ADD MSTORE PUSH1 0x64 ADD PUSH2 0x563 JUMP JUMPDEST PUSH1 0x0 PUSH1 0x6 DUP1 DUP5 ADD SLOAD PUSH1 0xFF AND SWAP1 DUP2 GT ISZERO PUSH2 0x1775 JUMPI PUSH2 0x1775 PUSH2 0x198A JUMP JUMPDEST EQ PUSH2 0x17DC JUMPI PUSH1 0x40 MLOAD PUSH3 0x461BCD PUSH1 0xE5 SHL DUP2 MSTORE PUSH1 0x20 PUSH1 0x4 DUP3 ADD MSTORE PUSH1 0x31 PUSH1 0x24 DUP3 ADD MSTORE PUSH32 0x4F72646572207374617475732073686F756C6420626520637265617465642069 PUSH1 0x44 DUP3 ADD MSTORE PUSH17 0x1B881BDC99195C881D1BC81858D8D95C1D PUSH1 0x7A SHL PUSH1 0x64 DUP3 ADD MSTORE PUSH1 0x84 ADD PUSH2 0x563 JUMP JUMPDEST DUP2 PUSH1 0x3 ADD SLOAD DUP2 PUSH1 0x4 ADD PUSH1 0x0 DUP3 DUP3 SLOAD PUSH2 0x17F4 SWAP2 SWAP1 PUSH2 0x1FDF JUMP JUMPDEST SWAP1 SWAP2 SSTORE POP POP PUSH1 0x6 DUP3 ADD DUP1 SLOAD PUSH1 0xFF NOT AND PUSH1 0x1 OR SWAP1 SSTORE PUSH1 0x40 MLOAD DUP4 DUP2 MSTORE PUSH32 0x262F7AD1922BDCF27203585EF3238620589CE6F74721D45BFF6897A19E4F94A1 SWAP1 PUSH1 0x20 ADD PUSH2 0x88B JUMP JUMPDEST DUP3 DUP1 SLOAD DUP3 DUP3 SSTORE SWAP1 PUSH1 0x0 MSTORE PUSH1 0x20 PUSH1 0x0 KECCAK256 SWAP1 DUP2 ADD SWAP3 DUP3 ISZERO PUSH2 0x187E JUMPI SWAP2 PUSH1 0x20 MUL DUP3 ADD JUMPDEST DUP3 DUP2 GT ISZERO PUSH2 0x187E JUMPI DUP3 MLOAD DUP3 SWAP1 PUSH2 0x186E SWAP1 DUP3 PUSH2 0x205A JUMP JUMPDEST POP SWAP2 PUSH1 0x20 ADD SWAP2 SWAP1 PUSH1 0x1 ADD SWAP1 PUSH2 0x1858 JUMP JUMPDEST POP PUSH2 0x188A SWAP3 SWAP2 POP PUSH2 0x1902 JUMP JUMPDEST POP SWAP1 JUMP JUMPDEST PUSH1 0x40 MLOAD DUP1 PUSH2 0x160 ADD PUSH1 0x40 MSTORE DUP1 PUSH1 0x0 DUP2 MSTORE PUSH1 0x20 ADD PUSH1 0x0 DUP2 MSTORE PUSH1 0x20 ADD PUSH1 0x0 DUP2 MSTORE PUSH1 0x20 ADD PUSH1 0x0 DUP2 MSTORE PUSH1 0x20 ADD PUSH1 0x0 DUP2 MSTORE PUSH1 0x20 ADD PUSH1 0x0 DUP2 MSTORE PUSH1 0x20 ADD PUSH1 0x0 PUSH1 0x1 DUP2 GT ISZERO PUSH2 0x18D7 JUMPI PUSH2 0x18D7 PUSH2 0x198A JUMP JUMPDEST DUP2 MSTORE PUSH1 0x20 ADD PUSH1 0x0 PUSH1 0x1 PUSH1 0x1 PUSH1 0xA0 SHL SUB AND DUP2 MSTORE PUSH1 0x20 ADD PUSH1 0x60 DUP2 MSTORE PUSH1 0x20 ADD PUSH1 0x60 DUP2 MSTORE PUSH1 0x20 ADD PUSH1 0x60 DUP2 MSTORE POP SWAP1 JUMP JUMPDEST DUP1 DUP3 GT ISZERO PUSH2 0x188A JUMPI PUSH1 0x0 PUSH2 0x1916 DUP3 DUP3 PUSH2 0x191F JUMP JUMPDEST POP PUSH1 0x1 ADD PUSH2 0x1902 JUMP JUMPDEST POP DUP1 SLOAD PUSH2 0x192B SWAP1 PUSH2 0x1DF4 JUMP JUMPDEST PUSH1 0x0 DUP3 SSTORE DUP1 PUSH1 0x1F LT PUSH2 0x193B JUMPI POP POP JUMP JUMPDEST PUSH1 0x1F ADD PUSH1 0x20 SWAP1 DIV SWAP1 PUSH1 0x0 MSTORE PUSH1 0x20 PUSH1 0x0 KECCAK256 SWAP1 DUP2 ADD SWAP1 PUSH2 0x1959 SWAP2 SWAP1 PUSH2 0x195C JUMP JUMPDEST POP JUMP JUMPDEST JUMPDEST DUP1 DUP3 GT ISZERO PUSH2 0x188A JUMPI PUSH1 0x0 DUP2 SSTORE PUSH1 0x1 ADD PUSH2 0x195D JUMP JUMPDEST PUSH1 0x0 PUSH1 0x20 DUP3 DUP5 SUB SLT ISZERO PUSH2 0x1983 JUMPI PUSH1 0x0 DUP1 REVERT JUMPDEST POP CALLDATALOAD SWAP2 SWAP1 POP JUMP JUMPDEST PUSH4 0x4E487B71 PUSH1 0xE0 SHL PUSH1 0x0 MSTORE PUSH1 0x21 PUSH1 0x4 MSTORE PUSH1 0x24 PUSH1 0x0 REVERT JUMPDEST PUSH1 0x0 DUP2 MLOAD DUP1 DUP5 MSTORE PUSH1 0x0 JUMPDEST DUP2 DUP2 LT ISZERO PUSH2 0x19C6 JUMPI PUSH1 0x20 DUP2 DUP6 ADD DUP2 ADD MLOAD DUP7 DUP4 ADD DUP3 ADD MSTORE ADD PUSH2 0x19AA JUMP JUMPDEST POP PUSH1 0x0 PUSH1 0x20 DUP3 DUP7 ADD ADD MSTORE PUSH1 0x20 PUSH1 0x1F NOT PUSH1 0x1F DUP4 ADD AND DUP6 ADD ADD SWAP2 POP POP SWAP3 SWAP2 POP POP JUMP JUMPDEST PUSH1 0x0 PUSH2 0x120 DUP12 DUP4 MSTORE DUP11 PUSH1 0x20 DUP5 ADD MSTORE DUP10 PUSH1 0x40 DUP5 ADD MSTORE DUP9 PUSH1 0x60 DUP5 ADD MSTORE DUP8 PUSH1 0x80 DUP5 ADD MSTORE DUP7 PUSH1 0xA0 DUP5 ADD MSTORE PUSH1 0x2 DUP7 LT PUSH2 0x1A1C JUMPI PUSH2 0x1A1C PUSH2 0x198A JUMP JUMPDEST PUSH1 0xC0 DUP4 ADD DUP7 SWAP1 MSTORE PUSH1 0x1 PUSH1 0x1 PUSH1 0xA0 SHL SUB DUP6 AND PUSH1 0xE0 DUP5 ADD MSTORE PUSH2 0x100 DUP4 ADD DUP2 SWAP1 MSTORE PUSH2 0x1A46 DUP2 DUP5 ADD DUP6 PUSH2 0x19A0 JUMP JUMPDEST SWAP13 SWAP12 POP POP POP POP POP POP POP POP POP POP POP POP JUMP JUMPDEST DUP1 CALLDATALOAD PUSH1 0x1 PUSH1 0x1 PUSH1 0xA0 SHL SUB DUP2 AND DUP2 EQ PUSH2 0x1A6D JUMPI PUSH1 0x0 DUP1 REVERT JUMPDEST SWAP2 SWAP1 POP JUMP JUMPDEST PUSH1 0x0 DUP1 PUSH1 0x40 DUP4 DUP6 SUB SLT ISZERO PUSH2 0x1A85 JUMPI PUSH1 0x0 DUP1 REVERT JUMPDEST PUSH2 0x1A8E DUP4 PUSH2 0x1A56 JUMP JUMPDEST SWAP5 PUSH1 0x20 SWAP4 SWAP1 SWAP4 ADD CALLDATALOAD SWAP4 POP POP POP JUMP JUMPDEST PUSH1 0x20 DUP2 MSTORE PUSH1 0x0 PUSH2 0x1AAF PUSH1 0x20 DUP4 ADD DUP5 PUSH2 0x19A0 JUMP JUMPDEST SWAP4 SWAP3 POP POP POP JUMP JUMPDEST PUSH4 0x4E487B71 PUSH1 0xE0 SHL PUSH1 0x0 MSTORE PUSH1 0x41 PUSH1 0x4 MSTORE PUSH1 0x24 PUSH1 0x0 REVERT JUMPDEST PUSH1 0x40 MLOAD PUSH1 0x1F DUP3 ADD PUSH1 0x1F NOT AND DUP2 ADD PUSH8 0xFFFFFFFFFFFFFFFF DUP2 GT DUP3 DUP3 LT OR ISZERO PUSH2 0x1AF5 JUMPI PUSH2 0x1AF5 PUSH2 0x1AB6 JUMP JUMPDEST PUSH1 0x40 MSTORE SWAP2 SWAP1 POP JUMP JUMPDEST PUSH1 0x0 DUP3 PUSH1 0x1F DUP4 ADD SLT PUSH2 0x1B0E JUMPI PUSH1 0x0 DUP1 REVERT JUMPDEST DUP2 CALLDATALOAD PUSH8 0xFFFFFFFFFFFFFFFF DUP2 GT ISZERO PUSH2 0x1B28 JUMPI PUSH2 0x1B28 PUSH2 0x1AB6 JUMP JUMPDEST PUSH2 0x1B3B PUSH1 0x1F DUP3 ADD PUSH1 0x1F NOT AND PUSH1 0x20 ADD PUSH2 0x1ACC JUMP JUMPDEST DUP2 DUP2 MSTORE DUP5 PUSH1 0x20 DUP4 DUP7 ADD ADD GT ISZERO PUSH2 0x1B50 JUMPI PUSH1 0x0 DUP1 REVERT JUMPDEST DUP2 PUSH1 0x20 DUP6 ADD PUSH1 0x20 DUP4 ADD CALLDATACOPY PUSH1 0x0 SWAP2 DUP2 ADD PUSH1 0x20 ADD SWAP2 SWAP1 SWAP2 MSTORE SWAP4 SWAP3 POP POP POP JUMP JUMPDEST PUSH1 0x0 DUP3 PUSH1 0x1F DUP4 ADD SLT PUSH2 0x1B7E JUMPI PUSH1 0x0 DUP1 REVERT JUMPDEST DUP2 CALLDATALOAD PUSH1 0x20 PUSH8 0xFFFFFFFFFFFFFFFF DUP1 DUP4 GT ISZERO PUSH2 0x1B9B JUMPI PUSH2 0x1B9B PUSH2 0x1AB6 JUMP JUMPDEST DUP3 PUSH1 0x5 SHL PUSH2 0x1BAA DUP4 DUP3 ADD PUSH2 0x1ACC JUMP JUMPDEST SWAP4 DUP5 MSTORE DUP6 DUP2 ADD DUP4 ADD SWAP4 DUP4 DUP2 ADD SWAP1 DUP9 DUP7 GT ISZERO PUSH2 0x1BC4 JUMPI PUSH1 0x0 DUP1 REVERT JUMPDEST DUP5 DUP9 ADD SWAP3 POP JUMPDEST DUP6 DUP4 LT ISZERO PUSH2 0x1C00 JUMPI DUP3 CALLDATALOAD DUP5 DUP2 GT ISZERO PUSH2 0x1BE2 JUMPI PUSH1 0x0 DUP1 DUP2 REVERT JUMPDEST PUSH2 0x1BF0 DUP11 DUP8 DUP4 DUP13 ADD ADD PUSH2 0x1AFD JUMP JUMPDEST DUP4 MSTORE POP SWAP2 DUP5 ADD SWAP2 SWAP1 DUP5 ADD SWAP1 PUSH2 0x1BCA JUMP JUMPDEST SWAP9 SWAP8 POP POP POP POP POP POP POP POP JUMP JUMPDEST PUSH1 0x0 DUP1 PUSH1 0x0 DUP1 PUSH1 0x0 DUP1 PUSH1 0x0 PUSH1 0xE0 DUP9 DUP11 SUB SLT ISZERO PUSH2 0x1C27 JUMPI PUSH1 0x0 DUP1 REVERT JUMPDEST DUP8 CALLDATALOAD SWAP7 POP PUSH1 0x20 DUP9 ADD CALLDATALOAD SWAP6 POP PUSH1 0x40 DUP9 ADD CALLDATALOAD SWAP5 POP PUSH1 0x60 DUP9 ADD CALLDATALOAD SWAP4 POP PUSH1 0x80 DUP9 ADD CALLDATALOAD PUSH8 0xFFFFFFFFFFFFFFFF DUP1 DUP3 GT ISZERO PUSH2 0x1C5B JUMPI PUSH1 0x0 DUP1 REVERT JUMPDEST PUSH2 0x1C67 DUP12 DUP4 DUP13 ADD PUSH2 0x1B6D JUMP JUMPDEST SWAP5 POP PUSH1 0xA0 DUP11 ADD CALLDATALOAD SWAP2 POP DUP1 DUP3 GT ISZERO PUSH2 0x1C7D JUMPI PUSH1 0x0 DUP1 REVERT JUMPDEST POP PUSH2 0x1C8A DUP11 DUP3 DUP12 ADD PUSH2 0x1B6D JUMP JUMPDEST SWAP3 POP POP PUSH1 0xC0 DUP9 ADD CALLDATALOAD SWAP1 POP SWAP3 SWAP6 SWAP9 SWAP2 SWAP5 SWAP8 POP SWAP3 SWAP6 POP JUMP JUMPDEST PUSH1 0x0 DUP1 PUSH1 0x40 DUP4 DUP6 SUB SLT ISZERO PUSH2 0x1CB3 JUMPI PUSH1 0x0 DUP1 REVERT JUMPDEST POP POP DUP1 CALLDATALOAD SWAP3 PUSH1 0x20 SWAP1 SWAP2 ADD CALLDATALOAD SWAP2 POP JUMP JUMPDEST PUSH1 0x0 DUP1 PUSH1 0x0 DUP1 PUSH1 0x0 DUP1 PUSH1 0x0 DUP1 PUSH2 0x100 DUP10 DUP12 SUB SLT ISZERO PUSH2 0x1CDF JUMPI PUSH1 0x0 DUP1 REVERT JUMPDEST DUP9 CALLDATALOAD PUSH8 0xFFFFFFFFFFFFFFFF DUP1 DUP3 GT ISZERO PUSH2 0x1CF7 JUMPI PUSH1 0x0 DUP1 REVERT JUMPDEST PUSH2 0x1D03 DUP13 DUP4 DUP14 ADD PUSH2 0x1AFD JUMP JUMPDEST SWAP10 POP PUSH1 0x20 DUP12 ADD CALLDATALOAD SWAP9 POP PUSH1 0x40 DUP12 ADD CALLDATALOAD SWAP8 POP PUSH1 0x60 DUP12 ADD CALLDATALOAD SWAP7 POP PUSH1 0x80 DUP12 ADD CALLDATALOAD SWAP6 POP PUSH1 0xA0 DUP12 ADD CALLDATALOAD SWAP2 POP DUP1 DUP3 GT ISZERO PUSH2 0x1D35 JUMPI PUSH1 0x0 DUP1 REVERT JUMPDEST PUSH2 0x1D41 DUP13 DUP4 DUP14 ADD PUSH2 0x1B6D JUMP JUMPDEST SWAP5 POP PUSH1 0xC0 DUP12 ADD CALLDATALOAD SWAP2 POP DUP1 DUP3 GT ISZERO PUSH2 0x1D57 JUMPI PUSH1 0x0 DUP1 REVERT JUMPDEST POP PUSH2 0x1D64 DUP12 DUP3 DUP13 ADD PUSH2 0x1B6D JUMP JUMPDEST SWAP3 POP POP PUSH1 0xE0 DUP10 ADD CALLDATALOAD SWAP1 POP SWAP3 SWAP6 SWAP9 POP SWAP3 SWAP6 SWAP9 SWAP1 SWAP4 SWAP7 POP JUMP JUMPDEST PUSH1 0x0 PUSH1 0x20 DUP3 DUP5 SUB SLT ISZERO PUSH2 0x1D8D JUMPI PUSH1 0x0 DUP1 REVERT JUMPDEST PUSH2 0x1AAF DUP3 PUSH2 0x1A56 JUMP JUMPDEST PUSH1 0x0 PUSH2 0x100 DUP3 ADD SWAP1 POP DUP10 DUP3 MSTORE DUP9 PUSH1 0x20 DUP4 ADD MSTORE DUP8 PUSH1 0x40 DUP4 ADD MSTORE DUP7 PUSH1 0x60 DUP4 ADD MSTORE DUP6 PUSH1 0x80 DUP4 ADD MSTORE DUP5 PUSH1 0xA0 DUP4 ADD MSTORE PUSH1 0x7 DUP5 LT PUSH2 0x1DD0 JUMPI PUSH2 0x1DD0 PUSH2 0x198A JUMP JUMPDEST PUSH1 0xC0 DUP3 ADD SWAP4 SWAP1 SWAP4 MSTORE PUSH1 0x1 PUSH1 0x1 PUSH1 0xA0 SHL SUB SWAP2 SWAP1 SWAP2 AND PUSH1 0xE0 SWAP1 SWAP2 ADD MSTORE SWAP7 SWAP6 POP POP POP POP POP POP JUMP JUMPDEST PUSH1 0x1 DUP2 DUP2 SHR SWAP1 DUP3 AND DUP1 PUSH2 0x1E08 JUMPI PUSH1 0x7F DUP3 AND SWAP2 POP JUMPDEST PUSH1 0x20 DUP3 LT DUP2 SUB PUSH2 0x1E28 JUMPI PUSH4 0x4E487B71 PUSH1 0xE0 SHL PUSH1 0x0 MSTORE PUSH1 0x22 PUSH1 0x4 MSTORE PUSH1 0x24 PUSH1 0x0 REVERT JUMPDEST POP SWAP2 SWAP1 POP JUMP JUMPDEST PUSH1 0x20 DUP1 DUP3 MSTORE PUSH1 0xF SWAP1 DUP3 ADD MSTORE PUSH15 0x4465616C206E6F7420616374697665 PUSH1 0x88 SHL PUSH1 0x40 DUP3 ADD MSTORE PUSH1 0x60 ADD SWAP1 JUMP JUMPDEST PUSH1 0x0 DUP2 MLOAD DUP1 DUP5 MSTORE PUSH1 0x20 DUP1 DUP6 ADD SWAP5 POP DUP5 DUP3 PUSH1 0x5 SHL DUP7 ADD DUP3 DUP7 ADD PUSH1 0x0 JUMPDEST DUP6 DUP2 LT ISZERO PUSH2 0x1E9C JUMPI DUP4 DUP4 SUB DUP10 MSTORE PUSH2 0x1E8A DUP4 DUP4 MLOAD PUSH2 0x19A0 JUMP JUMPDEST SWAP9 DUP6 ADD SWAP9 SWAP3 POP SWAP1 DUP5 ADD SWAP1 PUSH1 0x1 ADD PUSH2 0x1E72 JUMP JUMPDEST POP SWAP1 SWAP8 SWAP7 POP POP POP POP POP POP POP JUMP JUMPDEST DUP7 DUP2 MSTORE DUP6 PUSH1 0x20 DUP3 ADD MSTORE DUP5 PUSH1 0x40 DUP3 ADD MSTORE PUSH1 0xC0 PUSH1 0x60 DUP3 ADD MSTORE PUSH1 0x0 PUSH2 0x1ECE PUSH1 0xC0 DUP4 ADD DUP7 PUSH2 0x1E57 JUMP JUMPDEST DUP3 DUP2 SUB PUSH1 0x80 DUP5 ADD MSTORE PUSH2 0x1EE0 DUP2 DUP7 PUSH2 0x1E57 JUMP JUMPDEST SWAP2 POP POP DUP3 PUSH1 0xA0 DUP4 ADD MSTORE SWAP8 SWAP7 POP POP POP POP POP POP POP JUMP JUMPDEST PUSH1 0x0 PUSH1 0x20 DUP3 DUP5 SUB SLT ISZERO PUSH2 0x1F06 JUMPI PUSH1 0x0 DUP1 REVERT JUMPDEST DUP2 MLOAD DUP1 ISZERO ISZERO DUP2 EQ PUSH2 0x1AAF JUMPI PUSH1 0x0 DUP1 REVERT JUMPDEST PUSH4 0x4E487B71 PUSH1 0xE0 SHL PUSH1 0x0 MSTORE PUSH1 0x11 PUSH1 0x4 MSTORE PUSH1 0x24 PUSH1 0x0 REVERT JUMPDEST DUP1 DUP3 ADD DUP1 DUP3 GT ISZERO PUSH2 0x1F3F JUMPI PUSH2 0x1F3F PUSH2 0x1F16 JUMP JUMPDEST SWAP3 SWAP2 POP POP JUMP JUMPDEST PUSH1 0x20 DUP1 DUP3 MSTORE PUSH1 0x2F SWAP1 DUP3 ADD MSTORE PUSH32 0x43616E6E6F7420757064617465206F72646572206F6E63652069747320616363 PUSH1 0x40 DUP3 ADD MSTORE PUSH15 0x32B83A32B210313C903232B0B632B9 PUSH1 0x89 SHL PUSH1 0x60 DUP3 ADD MSTORE PUSH1 0x80 ADD SWAP1 JUMP JUMPDEST PUSH1 0x20 DUP1 DUP3 MSTORE PUSH1 0x2B SWAP1 DUP3 ADD MSTORE PUSH32 0x53756666696369656E7420616D6F756E74206E6F7420617661696C61626C6520 PUSH1 0x40 DUP3 ADD MSTORE PUSH11 0x3BB4BA34103232B0B632B9 PUSH1 0xA9 SHL PUSH1 0x60 DUP3 ADD MSTORE PUSH1 0x80 ADD SWAP1 JUMP JUMPDEST DUP2 DUP2 SUB DUP2 DUP2 GT ISZERO PUSH2 0x1F3F JUMPI PUSH2 0x1F3F PUSH2 0x1F16 JUMP JUMPDEST PUSH1 0x0 PUSH1 0x1 DUP3 ADD PUSH2 0x2004 JUMPI PUSH2 0x2004 PUSH2 0x1F16 JUMP JUMPDEST POP PUSH1 0x1 ADD SWAP1 JUMP JUMPDEST PUSH1 0x1F DUP3 GT ISZERO PUSH2 0x2055 JUMPI PUSH1 0x0 DUP2 DUP2 MSTORE PUSH1 0x20 DUP2 KECCAK256 PUSH1 0x1F DUP6 ADD PUSH1 0x5 SHR DUP2 ADD PUSH1 0x20 DUP7 LT ISZERO PUSH2 0x2032 JUMPI POP DUP1 JUMPDEST PUSH1 0x1F DUP6 ADD PUSH1 0x5 SHR DUP3 ADD SWAP2 POP JUMPDEST DUP2 DUP2 LT ISZERO PUSH2 0x2051 JUMPI DUP3 DUP2 SSTORE PUSH1 0x1 ADD PUSH2 0x203E JUMP JUMPDEST POP POP POP JUMPDEST POP POP POP JUMP JUMPDEST DUP2 MLOAD PUSH8 0xFFFFFFFFFFFFFFFF DUP2 GT ISZERO PUSH2 0x2074 JUMPI PUSH2 0x2074 PUSH2 0x1AB6 JUMP JUMPDEST PUSH2 0x2088 DUP2 PUSH2 0x2082 DUP5 SLOAD PUSH2 0x1DF4 JUMP JUMPDEST DUP5 PUSH2 0x200B JUMP JUMPDEST PUSH1 0x20 DUP1 PUSH1 0x1F DUP4 GT PUSH1 0x1 DUP2 EQ PUSH2 0x20BD JUMPI PUSH1 0x0 DUP5 ISZERO PUSH2 0x20A5 JUMPI POP DUP6 DUP4 ADD MLOAD JUMPDEST PUSH1 0x0 NOT PUSH1 0x3 DUP7 SWAP1 SHL SHR NOT AND PUSH1 0x1 DUP6 SWAP1 SHL OR DUP6 SSTORE PUSH2 0x2051 JUMP JUMPDEST PUSH1 0x0 DUP6 DUP2 MSTORE PUSH1 0x20 DUP2 KECCAK256 PUSH1 0x1F NOT DUP7 AND SWAP2 JUMPDEST DUP3 DUP2 LT ISZERO PUSH2 0x20EC JUMPI DUP9 DUP7 ADD MLOAD DUP3 SSTORE SWAP5 DUP5 ADD SWAP5 PUSH1 0x1 SWAP1 SWAP2 ADD SWAP1 DUP5 ADD PUSH2 0x20CD JUMP JUMPDEST POP DUP6 DUP3 LT ISZERO PUSH2 0x210A JUMPI DUP8 DUP6 ADD MLOAD PUSH1 0x0 NOT PUSH1 0x3 DUP9 SWAP1 SHL PUSH1 0xF8 AND SHR NOT AND DUP2 SSTORE JUMPDEST POP POP POP POP POP PUSH1 0x1 SWAP1 DUP2 SHL ADD SWAP1 SSTORE POP JUMP JUMPDEST PUSH1 0x0 PUSH2 0x100 DUP1 DUP4 MSTORE PUSH2 0x212E DUP2 DUP5 ADD DUP13 PUSH2 0x19A0 JUMP JUMPDEST SWAP1 POP DUP10 PUSH1 0x20 DUP5 ADD MSTORE DUP9 PUSH1 0x40 DUP5 ADD MSTORE DUP8 PUSH1 0x60 DUP5 ADD MSTORE DUP7 PUSH1 0x80 DUP5 ADD MSTORE DUP3 DUP2 SUB PUSH1 0xA0 DUP5 ADD MSTORE PUSH2 0x215A DUP2 DUP8 PUSH2 0x1E57 JUMP JUMPDEST SWAP1 POP DUP3 DUP2 SUB PUSH1 0xC0 DUP5 ADD MSTORE PUSH2 0x216E DUP2 DUP7 PUSH2 0x1E57 JUMP JUMPDEST SWAP2 POP POP DUP3 PUSH1 0xE0 DUP4 ADD MSTORE SWAP10 SWAP9 POP POP POP POP POP POP POP POP POP JUMP JUMPDEST PUSH1 0x20 DUP1 DUP3 MSTORE PUSH1 0x24 SWAP1 DUP3 ADD MSTORE PUSH32 0x4E6F7420617574686F726973656420746F206D61726B206F7264657220617320 PUSH1 0x40 DUP3 ADD MSTORE PUSH4 0x646F6E65 PUSH1 0xE0 SHL PUSH1 0x60 DUP3 ADD MSTORE PUSH1 0x80 ADD SWAP1 JUMP JUMPDEST PUSH1 0x20 DUP1 DUP3 MSTORE PUSH1 0x3E SWAP1 DUP3 ADD MSTORE PUSH32 0x4F72646572207374617475732073686F756C6420626520616363657074656420 PUSH1 0x40 DUP3 ADD MSTORE PUSH32 0x6279206465616C657220696E206F7264657220746F20696E6974696174650000 PUSH1 0x60 DUP3 ADD MSTORE PUSH1 0x80 ADD SWAP1 JUMP INVALID LOG2 PUSH5 0x6970667358 0x22 SLT KECCAK256 0x23 LT STOP PUSH30 0x31090D0BB6D3D3A6F8FB2A6427C3056E76E3140FF66100B08EEF04696473 PUSH16 0x6C634300081100330000000000000000 "},"methodIdentifiers":{"acceptOrder(uint256)":"ef18e9ed","cancelOrder(uint256)":"514fcac7","courtAddress()":"b67fc9e6","createDeal(string,uint256,uint256,uint256,uint256,string[],string[],uint256)":"7567a4c6","createOrder(uint256,uint256)":"79109baa","dealerOrders(address,uint256)":"06a2f8b3","deals(uint256)":"03988f84","dealsCount()":"3bf251b9","description()":"7284e416","increaseDealAmount(uint256,uint256)":"3bcfe71a","marketOwner()":"47d90b5c","name()":"06fdde03","orders(uint256)":"a85c38ef","ordersCount()":"35daa731","raiseDispute(uint256)":"a5c1674e","settleOrder(uint256)":"b50e801d","txDoneByUser(uint256)":"abbb9ff0","updateCourt(address)":"7fb5ecd7","updateDeal(uint256,uint256,uint256,uint256,string[],string[],uint256)":"20b68524","updateOrder(uint256,uint256)":"587b71a6","userOrders(address,uint256)":"856652e9"}}}}}