{"contracts/CourtFactory.sol":{"CourtFactory":{"abi":[{"anonymous":false,"inputs":[{"indexed":false,"internalType":"address","name":"courtAddress","type":"address"},{"indexed":false,"internalType":"address","name":"marketAddress","type":"address"},{"indexed":false,"internalType":"address","name":"marketOwner","type":"address"},{"indexed":false,"internalType":"address[]","name":"juries","type":"address[]"}],"name":"CourtCreated","type":"event"},{"inputs":[{"internalType":"address","name":"_marketAddress","type":"address"},{"internalType":"address","name":"_marketOwner","type":"address"},{"internalType":"address[]","name":"_juries","type":"address[]"}],"name":"createCourt","outputs":[{"internalType":"address","name":"","type":"address"}],"stateMutability":"nonpayable","type":"function"},{"inputs":[{"internalType":"address","name":"","type":"address"}],"name":"marketCourts","outputs":[{"internalType":"address","name":"","type":"address"}],"stateMutability":"view","type":"function"}],"evm":{"bytecode":{"linkReferences":{},"object":"608060405234801561001057600080fd5b50611982806100206000396000f3fe608060405234801561001057600080fd5b50600436106100365760003560e01c80633b887e121461003b578063552aa5ff1461006a575b600080fd5b61004e610049366004610185565b610093565b6040516001600160a01b03909116815260200160405180910390f35b61004e61007836600461026d565b6000602081905290815260409020546001600160a01b031681565b6000808484846040516100a590610146565b6100b1939291906102d3565b604051809103906000f0801580156100cd573d6000803e3d6000fd5b506001600160a01b038681166000908152602081905260409081902080546001600160a01b03191692841692909217909155519091507f48321e1105d4749b7437d2752be119a71c6723a4ff31072ad6659a734f58222490610136908390889088908890610308565b60405180910390a1949350505050565b6116068061034783390190565b80356001600160a01b038116811461016a57600080fd5b919050565b634e487b7160e01b600052604160045260246000fd5b60008060006060848603121561019a57600080fd5b6101a384610153565b925060206101b2818601610153565b9250604085013567ffffffffffffffff808211156101cf57600080fd5b818701915087601f8301126101e357600080fd5b8135818111156101f5576101f561016f565b8060051b604051601f19603f8301168101818110858211171561021a5761021a61016f565b60405291825284820192508381018501918a83111561023857600080fd5b938501935b8285101561025d5761024e85610153565b8452938501939285019261023d565b8096505050505050509250925092565b60006020828403121561027f57600080fd5b61028882610153565b9392505050565b600081518084526020808501945080840160005b838110156102c85781516001600160a01b0316875295820195908201906001016102a3565b509495945050505050565b6001600160a01b038481168252831660208201526060604082018190526000906102ff9083018461028f565b95945050505050565b6001600160a01b03858116825284811660208301528316604082015260806060820181905260009061033c9083018461028f565b969550505050505056fe60806040523480156200001157600080fd5b5060405162001606380380620016068339810160408190526200003491620001b2565b600080546001600160a01b038086166001600160a01b031992831617835560018054918616919092161790555b81518110156200017557600160026000848481518110620000865762000086620002ac565b60200260200101516001600160a01b03166001600160a01b0316815260200190815260200160002060006101000a81548160ff021916908315150217905550818181518110620000da57620000da620002ac565b60200260200101516003600083815260200190815260200160002060006101000a8154816001600160a01b0302191690836001600160a01b031602179055508060046000848481518110620001335762000133620002ac565b60200260200101516001600160a01b03166001600160a01b031681526020019081526020016000208190555080806200016c90620002c2565b91505062000061565b50505050620002ea565b80516001600160a01b03811681146200019757600080fd5b919050565b634e487b7160e01b600052604160045260246000fd5b600080600060608486031215620001c857600080fd5b620001d3846200017f565b92506020620001e48186016200017f565b60408601519093506001600160401b03808211156200020257600080fd5b818701915087601f8301126200021757600080fd5b8151818111156200022c576200022c6200019c565b8060051b604051601f19603f830116810181811085821117156200025457620002546200019c565b60405291825284820192508381018501918a8311156200027357600080fd5b938501935b828510156200029c576200028c856200017f565b8452938501939285019262000278565b8096505050505050509250925092565b634e487b7160e01b600052603260045260246000fd5b600060018201620002e357634e487b7160e01b600052601160045260246000fd5b5060010190565b61130c80620002fa6000396000f3fe608060405234801561001057600080fd5b50600436106100b45760003560e01c80639a6b8492116100715780639a6b84921461016e578063aabe1da114610197578063b6e5bde5146101aa578063bfed7dd6146101b4578063c7668a72146101d4578063fe412bb7146101fa57600080fd5b80632a7b95a7146100b957806347d90b5c146100f15780635b28f0e71461011c5780635be5e3ec14610133578063663950e714610148578063956236411461015b575b600080fd5b6100dc6100c7366004610d49565b60026020526000908152604090205460ff1681565b60405190151581526020015b60405180910390f35b600154610104906001600160a01b031681565b6040516001600160a01b0390911681526020016100e8565b61012560055481565b6040519081526020016100e8565b610146610141366004610d6b565b61020d565b005b610146610156366004610dde565b610424565b600054610104906001600160a01b031681565b61010461017c366004610f0a565b6003602052600090815260409020546001600160a01b031681565b6101466101a5366004610f23565b6106fd565b61012562093a8081565b6101256101c2366004610d49565b60046020526000908152604090205481565b6101e76101e2366004610f23565b6108e6565b6040516100e89796959493929190610f7d565b610146610208366004611028565b6109a6565b3360009081526002602052604090205460ff1661026a5760405162461bcd60e51b81526020600482015260166024820152754e6f7420617574686f726973656420746f20766f746560501b60448201526064015b60405180910390fd5b600082815260066020908152604080832084845290915290206001600882015460ff16600381111561029e5761029e610f45565b146102eb5760405162461bcd60e51b815260206004820152601860248201527f43616e6e6f7420766f74652c20706572696f64206f76657200000000000000006044820152606401610261565b4262093a8082600101546102ff9190611082565b1161031757600801805460ff19166002179055505050565b836000036103425760018160050160000160008282546103379190611082565b909155506103a09050565b836001036103625760018160050160010160008282546103379190611082565b60405162461bcd60e51b815260206004820152601360248201527224b73b30b634b2103b37ba329037b83a34b7b760691b6044820152606401610261565b3360009081526004602052604090205460078201805486929081106103c7576103c761109b565b60009182526020918290200191909155604080513381529182018690528101849052606081018390527fdeab8ee83eba63bd94fc0587073ddbf10ed10cffe1e93c8b63411b7fa3ec0214906080015b60405180910390a150505050565b6000838152600660209081526040808320858452909152812090600882015460ff16600381111561045757610457610f45565b146104af5760405162461bcd60e51b815260206004820152602260248201527f45766964656e6365207375626d697373696f6e20706572696f64206973206f7660448201526132b960f11b6064820152608401610261565b60038101546001600160a01b031633036105815781516009820154600a916104d691611082565b111561051d5760405162461bcd60e51b8152602060048201526016602482015275115d9a59195b98d9481b1a5b5a5d081c995858da195960521b6044820152606401610261565b60005b825181101561057b578160090183828151811061053f5761053f61109b565b60209081029190910181015182546001810184556000938452919092200190610568908261113a565b5080610573816111fa565b915050610520565b5061069f565b60048101546001600160a01b0316330361064d578151600a8281015490916105a891611082565b11156105ef5760405162461bcd60e51b8152602060048201526016602482015275115d9a59195b98d9481b1a5b5a5d081c995858da195960521b6044820152606401610261565b60005b825181101561057b5781600a018382815181106106115761061161109b565b6020908102919091018101518254600181018455600093845291909220019061063a908261113a565b5080610645816111fa565b9150506105f2565b60405162461bcd60e51b815260206004820152602160248201527f4e6f7420617574686f726973656420746f207375626d69742065766964656e636044820152606560f81b6064820152608401610261565b6009810154158015906106b55750600a81015415155b156106ca5760088101805460ff191660011790555b7f5b43b0a0604ebe0663f1bca6fddcb55869609dc2c90195a0043fc68633a1477184848460405161041693929190611213565b600082815260066020908152604080832084845290915290206002600882015460ff16600381111561073157610731610f45565b1461077e5760405162461bcd60e51b815260206004820152601f60248201527f4469737075746520696e206e6f6e2d657865637574696f6e20706572696f64006044820152606401610261565b600054600682015460058301546001600160a01b039092169110610821576003820154600283015460405163a9059cbb60e01b81526001600160a01b03928316600482015260248101919091529082169063a9059cbb906044016020604051808303816000875af11580156107f7573d6000803e3d6000fd5b505050506040513d601f19601f8201168201806040525081019061081b91906112b4565b506108a1565b600482810154600284015460405163a9059cbb60e01b81526001600160a01b0392831693810193909352602483015282169063a9059cbb906044016020604051808303816000875af115801561087b573d6000803e3d6000fd5b505050506040513d601f19601f8201168201806040525081019061089f91906112b4565b505b60088201805460ff1916600317905560408051858152602081018590527fd7408b8d6095ebdb9f9a662f6a18e66aa0087fd47da5bf77207b34d0a85b5fe69101610416565b6006602081815260009384526040808520825292845292829020805460018201546002830154600384015460048501548751606081018952600587018054825297870154818b01526007870180548a51818d0281018d018c52818152979b969a95996001600160a01b03958616999490951697939692958601939283018282801561099057602002820191906000526020600020905b81548152602001906001019080831161097c575b5050509190925250505060089091015460ff1687565b6000546001600160a01b03163314610a0f5760405162461bcd60e51b815260206004820152602660248201527f43616e206f6e6c7920626520696e766f6b6564206279206d61726b657420636f6044820152651b9d1c9858dd60d21b6064820152608401610261565b610a17610ba1565b600580548083526001600160a01b03808716606085019081528682166080860190815242602080880191825260408089018a815260008e815260068085528382209982529884528290208a5181559351600185015551600284015593516003830180549187166001600160a01b031992831617905592516004830180549190961693169290921790935560a086015180519584019586558082015194840194909455908301518051869593949392610ad6926007870192910190610c21565b50505060c082015160088201805460ff19166001836003811115610afc57610afc610f45565b021790555060e08201518051610b1c916009840191602090910190610c6c565b506101008201518051610b3991600a840191602090910190610c6c565b50506005805491506000610b4c836111fa565b9091555050604080518681526001600160a01b03868116602083015285168183015290517f32c3577ad32544a8c06c1b330ada404f03a4d405574e524dd6d86eeba5f21e739181900360600190a15050505050565b60405180610120016040528060008152602001600081526020016000815260200160006001600160a01b0316815260200160006001600160a01b03168152602001610c0660405180606001604052806000815260200160008152602001606081525090565b81526020016000815260200160608152602001606081525090565b828054828255906000526020600020908101928215610c5c579160200282015b82811115610c5c578251825591602001919060010190610c41565b50610c68929150610cbe565b5090565b828054828255906000526020600020908101928215610cb2579160200282015b82811115610cb25782518290610ca2908261113a565b5091602001919060010190610c8c565b50610c68929150610cd3565b5b80821115610c685760008155600101610cbf565b80821115610c68576000610ce78282610cf0565b50600101610cd3565b508054610cfc906110b1565b6000825580601f10610d0c575050565b601f016020900490600052602060002090810190610d2a9190610cbe565b50565b80356001600160a01b0381168114610d4457600080fd5b919050565b600060208284031215610d5b57600080fd5b610d6482610d2d565b9392505050565b600080600060608486031215610d8057600080fd5b505081359360208301359350604090920135919050565b634e487b7160e01b600052604160045260246000fd5b604051601f8201601f1916810167ffffffffffffffff81118282101715610dd657610dd6610d97565b604052919050565b600080600060608486031215610df357600080fd5b83359250602080850135925060408086013567ffffffffffffffff80821115610e1b57600080fd5b818801915088601f830112610e2f57600080fd5b813581811115610e4157610e41610d97565b8060051b610e50868201610dad565b918252838101860191868101908c841115610e6a57600080fd5b87860192505b83831015610ef857823585811115610e885760008081fd5b8601603f81018e13610e9a5760008081fd5b8881013586811115610eae57610eae610d97565b610ec0601f8201601f19168b01610dad565b8181528f8a838501011115610ed55760008081fd5b818a84018c83013760009181018b01919091528352509187019190870190610e70565b80985050505050505050509250925092565b600060208284031215610f1c57600080fd5b5035919050565b60008060408385031215610f3657600080fd5b50508035926020909101359150565b634e487b7160e01b600052602160045260246000fd5b60048110610f7957634e487b7160e01b600052602160045260246000fd5b9052565b87815260006020888184015287604084015260018060a01b03808816606085015280871660808501525060e060a08401526101408301855160e08501528186015161010085015260408601516060610120860152818151808452610160870191508483019350600092505b808310156110085783518252928401926001929092019190840190610fe8565b50935061101c9250505060c0830184610f5b565b98975050505050505050565b6000806000806080858703121561103e57600080fd5b8435935061104e60208601610d2d565b925061105c60408601610d2d565b9396929550929360600135925050565b634e487b7160e01b600052601160045260246000fd5b808201808211156110955761109561106c565b92915050565b634e487b7160e01b600052603260045260246000fd5b600181811c908216806110c557607f821691505b6020821081036110e557634e487b7160e01b600052602260045260246000fd5b50919050565b601f82111561113557600081815260208120601f850160051c810160208610156111125750805b601f850160051c820191505b818110156111315782815560010161111e565b5050505b505050565b815167ffffffffffffffff81111561115457611154610d97565b6111688161116284546110b1565b846110eb565b602080601f83116001811461119d57600084156111855750858301515b600019600386901b1c1916600185901b178555611131565b600085815260208120601f198616915b828110156111cc578886015182559484019460019091019084016111ad565b50858210156111ea5787850151600019600388901b60f8161c191681555b5050505050600190811b01905550565b60006001820161120c5761120c61106c565b5060010190565b600060608201858352602085818501526060604085015281855180845260808601915060808160051b87010193508287016000805b838110156112a457888703607f1901855282518051808952835b8181101561127d578281018901518a82018a01528801611262565b508881018801849052601f01601f1916909701860196509385019391850191600101611248565b50949a9950505050505050505050565b6000602082840312156112c657600080fd5b81518015158114610d6457600080fdfea264697066735822122027a2fed761f89698aacc8109ecb287081182a24215f49daaf3fc1e6737b53e7d64736f6c63430008110033a2646970667358221220bc090b106a53451da33eb485a7843e95f82ee4e6c4b01b7a8841efad5088d40c64736f6c63430008110033","opcodes":"PUSH1 0x80 PUSH1 0x40 MSTORE CALLVALUE DUP1 ISZERO PUSH2 0x10 JUMPI PUSH1 0x0 DUP1 REVERT JUMPDEST POP PUSH2 0x1982 DUP1 PUSH2 0x20 PUSH1 0x0 CODECOPY PUSH1 0x0 RETURN INVALID PUSH1 0x80 PUSH1 0x40 MSTORE CALLVALUE DUP1 ISZERO PUSH2 0x10 JUMPI PUSH1 0x0 DUP1 REVERT JUMPDEST POP PUSH1 0x4 CALLDATASIZE LT PUSH2 0x36 JUMPI PUSH1 0x0 CALLDATALOAD PUSH1 0xE0 SHR DUP1 PUSH4 0x3B887E12 EQ PUSH2 0x3B JUMPI DUP1 PUSH4 0x552AA5FF EQ PUSH2 0x6A JUMPI JUMPDEST PUSH1 0x0 DUP1 REVERT JUMPDEST PUSH2 0x4E PUSH2 0x49 CALLDATASIZE PUSH1 0x4 PUSH2 0x185 JUMP JUMPDEST PUSH2 0x93 JUMP JUMPDEST PUSH1 0x40 MLOAD PUSH1 0x1 PUSH1 0x1 PUSH1 0xA0 SHL SUB SWAP1 SWAP2 AND DUP2 MSTORE PUSH1 0x20 ADD PUSH1 0x40 MLOAD DUP1 SWAP2 SUB SWAP1 RETURN JUMPDEST PUSH2 0x4E PUSH2 0x78 CALLDATASIZE PUSH1 0x4 PUSH2 0x26D JUMP JUMPDEST PUSH1 0x0 PUSH1 0x20 DUP2 SWAP1 MSTORE SWAP1 DUP2 MSTORE PUSH1 0x40 SWAP1 KECCAK256 SLOAD PUSH1 0x1 PUSH1 0x1 PUSH1 0xA0 SHL SUB AND DUP2 JUMP JUMPDEST PUSH1 0x0 DUP1 DUP5 DUP5 DUP5 PUSH1 0x40 MLOAD PUSH2 0xA5 SWAP1 PUSH2 0x146 JUMP JUMPDEST PUSH2 0xB1 SWAP4 SWAP3 SWAP2 SWAP1 PUSH2 0x2D3 JUMP JUMPDEST PUSH1 0x40 MLOAD DUP1 SWAP2 SUB SWAP1 PUSH1 0x0 CREATE DUP1 ISZERO DUP1 ISZERO PUSH2 0xCD JUMPI RETURNDATASIZE PUSH1 0x0 DUP1 RETURNDATACOPY RETURNDATASIZE PUSH1 0x0 REVERT JUMPDEST POP PUSH1 0x1 PUSH1 0x1 PUSH1 0xA0 SHL SUB DUP7 DUP2 AND PUSH1 0x0 SWAP1 DUP2 MSTORE PUSH1 0x20 DUP2 SWAP1 MSTORE PUSH1 0x40 SWAP1 DUP2 SWAP1 KECCAK256 DUP1 SLOAD PUSH1 0x1 PUSH1 0x1 PUSH1 0xA0 SHL SUB NOT AND SWAP3 DUP5 AND SWAP3 SWAP1 SWAP3 OR SWAP1 SWAP2 SSTORE MLOAD SWAP1 SWAP2 POP PUSH32 0x48321E1105D4749B7437D2752BE119A71C6723A4FF31072AD6659A734F582224 SWAP1 PUSH2 0x136 SWAP1 DUP4 SWAP1 DUP9 SWAP1 DUP9 SWAP1 DUP9 SWAP1 PUSH2 0x308 JUMP JUMPDEST PUSH1 0x40 MLOAD DUP1 SWAP2 SUB SWAP1 LOG1 SWAP5 SWAP4 POP POP POP POP JUMP JUMPDEST PUSH2 0x1606 DUP1 PUSH2 0x347 DUP4 CODECOPY ADD SWAP1 JUMP JUMPDEST DUP1 CALLDATALOAD PUSH1 0x1 PUSH1 0x1 PUSH1 0xA0 SHL SUB DUP2 AND DUP2 EQ PUSH2 0x16A JUMPI PUSH1 0x0 DUP1 REVERT JUMPDEST SWAP2 SWAP1 POP JUMP JUMPDEST PUSH4 0x4E487B71 PUSH1 0xE0 SHL PUSH1 0x0 MSTORE PUSH1 0x41 PUSH1 0x4 MSTORE PUSH1 0x24 PUSH1 0x0 REVERT JUMPDEST PUSH1 0x0 DUP1 PUSH1 0x0 PUSH1 0x60 DUP5 DUP7 SUB SLT ISZERO PUSH2 0x19A JUMPI PUSH1 0x0 DUP1 REVERT JUMPDEST PUSH2 0x1A3 DUP5 PUSH2 0x153 JUMP JUMPDEST SWAP3 POP PUSH1 0x20 PUSH2 0x1B2 DUP2 DUP7 ADD PUSH2 0x153 JUMP JUMPDEST SWAP3 POP PUSH1 0x40 DUP6 ADD CALLDATALOAD PUSH8 0xFFFFFFFFFFFFFFFF DUP1 DUP3 GT ISZERO PUSH2 0x1CF JUMPI PUSH1 0x0 DUP1 REVERT JUMPDEST DUP2 DUP8 ADD SWAP2 POP DUP8 PUSH1 0x1F DUP4 ADD SLT PUSH2 0x1E3 JUMPI PUSH1 0x0 DUP1 REVERT JUMPDEST DUP2 CALLDATALOAD DUP2 DUP2 GT ISZERO PUSH2 0x1F5 JUMPI PUSH2 0x1F5 PUSH2 0x16F JUMP JUMPDEST DUP1 PUSH1 0x5 SHL PUSH1 0x40 MLOAD PUSH1 0x1F NOT PUSH1 0x3F DUP4 ADD AND DUP2 ADD DUP2 DUP2 LT DUP6 DUP3 GT OR ISZERO PUSH2 0x21A JUMPI PUSH2 0x21A PUSH2 0x16F JUMP JUMPDEST PUSH1 0x40 MSTORE SWAP2 DUP3 MSTORE DUP5 DUP3 ADD SWAP3 POP DUP4 DUP2 ADD DUP6 ADD SWAP2 DUP11 DUP4 GT ISZERO PUSH2 0x238 JUMPI PUSH1 0x0 DUP1 REVERT JUMPDEST SWAP4 DUP6 ADD SWAP4 JUMPDEST DUP3 DUP6 LT ISZERO PUSH2 0x25D JUMPI PUSH2 0x24E DUP6 PUSH2 0x153 JUMP JUMPDEST DUP5 MSTORE SWAP4 DUP6 ADD SWAP4 SWAP3 DUP6 ADD SWAP3 PUSH2 0x23D JUMP JUMPDEST DUP1 SWAP7 POP POP POP POP POP POP POP SWAP3 POP SWAP3 POP SWAP3 JUMP JUMPDEST PUSH1 0x0 PUSH1 0x20 DUP3 DUP5 SUB SLT ISZERO PUSH2 0x27F JUMPI PUSH1 0x0 DUP1 REVERT JUMPDEST PUSH2 0x288 DUP3 PUSH2 0x153 JUMP JUMPDEST SWAP4 SWAP3 POP POP POP JUMP JUMPDEST PUSH1 0x0 DUP2 MLOAD DUP1 DUP5 MSTORE PUSH1 0x20 DUP1 DUP6 ADD SWAP5 POP DUP1 DUP5 ADD PUSH1 0x0 JUMPDEST DUP4 DUP2 LT ISZERO PUSH2 0x2C8 JUMPI DUP2 MLOAD PUSH1 0x1 PUSH1 0x1 PUSH1 0xA0 SHL SUB AND DUP8 MSTORE SWAP6 DUP3 ADD SWAP6 SWAP1 DUP3 ADD SWAP1 PUSH1 0x1 ADD PUSH2 0x2A3 JUMP JUMPDEST POP SWAP5 SWAP6 SWAP5 POP POP POP POP POP JUMP JUMPDEST PUSH1 0x1 PUSH1 0x1 PUSH1 0xA0 SHL SUB DUP5 DUP2 AND DUP3 MSTORE DUP4 AND PUSH1 0x20 DUP3 ADD MSTORE PUSH1 0x60 PUSH1 0x40 DUP3 ADD DUP2 SWAP1 MSTORE PUSH1 0x0 SWAP1 PUSH2 0x2FF SWAP1 DUP4 ADD DUP5 PUSH2 0x28F JUMP JUMPDEST SWAP6 SWAP5 POP POP POP POP POP JUMP JUMPDEST PUSH1 0x1 PUSH1 0x1 PUSH1 0xA0 SHL SUB DUP6 DUP2 AND DUP3 MSTORE DUP5 DUP2 AND PUSH1 0x20 DUP4 ADD MSTORE DUP4 AND PUSH1 0x40 DUP3 ADD MSTORE PUSH1 0x80 PUSH1 0x60 DUP3 ADD DUP2 SWAP1 MSTORE PUSH1 0x0 SWAP1 PUSH2 0x33C SWAP1 DUP4 ADD DUP5 PUSH2 0x28F JUMP JUMPDEST SWAP7 SWAP6 POP POP POP POP POP POP JUMP INVALID PUSH1 0x80 PUSH1 0x40 MSTORE CALLVALUE DUP1 ISZERO PUSH3 0x11 JUMPI PUSH1 0x0 DUP1 REVERT JUMPDEST POP PUSH1 0x40 MLOAD PUSH3 0x1606 CODESIZE SUB DUP1 PUSH3 0x1606 DUP4 CODECOPY DUP2 ADD PUSH1 0x40 DUP2 SWAP1 MSTORE PUSH3 0x34 SWAP2 PUSH3 0x1B2 JUMP JUMPDEST PUSH1 0x0 DUP1 SLOAD PUSH1 0x1 PUSH1 0x1 PUSH1 0xA0 SHL SUB DUP1 DUP7 AND PUSH1 0x1 PUSH1 0x1 PUSH1 0xA0 SHL SUB NOT SWAP3 DUP4 AND OR DUP4 SSTORE PUSH1 0x1 DUP1 SLOAD SWAP2 DUP7 AND SWAP2 SWAP1 SWAP3 AND OR SWAP1 SSTORE JUMPDEST DUP2 MLOAD DUP2 LT ISZERO PUSH3 0x175 JUMPI PUSH1 0x1 PUSH1 0x2 PUSH1 0x0 DUP5 DUP5 DUP2 MLOAD DUP2 LT PUSH3 0x86 JUMPI PUSH3 0x86 PUSH3 0x2AC JUMP JUMPDEST PUSH1 0x20 MUL PUSH1 0x20 ADD ADD MLOAD PUSH1 0x1 PUSH1 0x1 PUSH1 0xA0 SHL SUB AND PUSH1 0x1 PUSH1 0x1 PUSH1 0xA0 SHL SUB AND DUP2 MSTORE PUSH1 0x20 ADD SWAP1 DUP2 MSTORE PUSH1 0x20 ADD PUSH1 0x0 KECCAK256 PUSH1 0x0 PUSH2 0x100 EXP DUP2 SLOAD DUP2 PUSH1 0xFF MUL NOT AND SWAP1 DUP4 ISZERO ISZERO MUL OR SWAP1 SSTORE POP DUP2 DUP2 DUP2 MLOAD DUP2 LT PUSH3 0xDA JUMPI PUSH3 0xDA PUSH3 0x2AC JUMP JUMPDEST PUSH1 0x20 MUL PUSH1 0x20 ADD ADD MLOAD PUSH1 0x3 PUSH1 0x0 DUP4 DUP2 MSTORE PUSH1 0x20 ADD SWAP1 DUP2 MSTORE PUSH1 0x20 ADD PUSH1 0x0 KECCAK256 PUSH1 0x0 PUSH2 0x100 EXP DUP2 SLOAD DUP2 PUSH1 0x1 PUSH1 0x1 PUSH1 0xA0 SHL SUB MUL NOT AND SWAP1 DUP4 PUSH1 0x1 PUSH1 0x1 PUSH1 0xA0 SHL SUB AND MUL OR SWAP1 SSTORE POP DUP1 PUSH1 0x4 PUSH1 0x0 DUP5 DUP5 DUP2 MLOAD DUP2 LT PUSH3 0x133 JUMPI PUSH3 0x133 PUSH3 0x2AC JUMP JUMPDEST PUSH1 0x20 MUL PUSH1 0x20 ADD ADD MLOAD PUSH1 0x1 PUSH1 0x1 PUSH1 0xA0 SHL SUB AND PUSH1 0x1 PUSH1 0x1 PUSH1 0xA0 SHL SUB AND DUP2 MSTORE PUSH1 0x20 ADD SWAP1 DUP2 MSTORE PUSH1 0x20 ADD PUSH1 0x0 KECCAK256 DUP2 SWAP1 SSTORE POP DUP1 DUP1 PUSH3 0x16C SWAP1 PUSH3 0x2C2 JUMP JUMPDEST SWAP2 POP POP PUSH3 0x61 JUMP JUMPDEST POP POP POP POP PUSH3 0x2EA JUMP JUMPDEST DUP1 MLOAD PUSH1 0x1 PUSH1 0x1 PUSH1 0xA0 SHL SUB DUP2 AND DUP2 EQ PUSH3 0x197 JUMPI PUSH1 0x0 DUP1 REVERT JUMPDEST SWAP2 SWAP1 POP JUMP JUMPDEST PUSH4 0x4E487B71 PUSH1 0xE0 SHL PUSH1 0x0 MSTORE PUSH1 0x41 PUSH1 0x4 MSTORE PUSH1 0x24 PUSH1 0x0 REVERT JUMPDEST PUSH1 0x0 DUP1 PUSH1 0x0 PUSH1 0x60 DUP5 DUP7 SUB SLT ISZERO PUSH3 0x1C8 JUMPI PUSH1 0x0 DUP1 REVERT JUMPDEST PUSH3 0x1D3 DUP5 PUSH3 0x17F JUMP JUMPDEST SWAP3 POP PUSH1 0x20 PUSH3 0x1E4 DUP2 DUP7 ADD PUSH3 0x17F JUMP JUMPDEST PUSH1 0x40 DUP7 ADD MLOAD SWAP1 SWAP4 POP PUSH1 0x1 PUSH1 0x1 PUSH1 0x40 SHL SUB DUP1 DUP3 GT ISZERO PUSH3 0x202 JUMPI PUSH1 0x0 DUP1 REVERT JUMPDEST DUP2 DUP8 ADD SWAP2 POP DUP8 PUSH1 0x1F DUP4 ADD SLT PUSH3 0x217 JUMPI PUSH1 0x0 DUP1 REVERT JUMPDEST DUP2 MLOAD DUP2 DUP2 GT ISZERO PUSH3 0x22C JUMPI PUSH3 0x22C PUSH3 0x19C JUMP JUMPDEST DUP1 PUSH1 0x5 SHL PUSH1 0x40 MLOAD PUSH1 0x1F NOT PUSH1 0x3F DUP4 ADD AND DUP2 ADD DUP2 DUP2 LT DUP6 DUP3 GT OR ISZERO PUSH3 0x254 JUMPI PUSH3 0x254 PUSH3 0x19C JUMP JUMPDEST PUSH1 0x40 MSTORE SWAP2 DUP3 MSTORE DUP5 DUP3 ADD SWAP3 POP DUP4 DUP2 ADD DUP6 ADD SWAP2 DUP11 DUP4 GT ISZERO PUSH3 0x273 JUMPI PUSH1 0x0 DUP1 REVERT JUMPDEST SWAP4 DUP6 ADD SWAP4 JUMPDEST DUP3 DUP6 LT ISZERO PUSH3 0x29C JUMPI PUSH3 0x28C DUP6 PUSH3 0x17F JUMP JUMPDEST DUP5 MSTORE SWAP4 DUP6 ADD SWAP4 SWAP3 DUP6 ADD SWAP3 PUSH3 0x278 JUMP JUMPDEST DUP1 SWAP7 POP POP POP POP POP POP POP SWAP3 POP SWAP3 POP SWAP3 JUMP JUMPDEST PUSH4 0x4E487B71 PUSH1 0xE0 SHL PUSH1 0x0 MSTORE PUSH1 0x32 PUSH1 0x4 MSTORE PUSH1 0x24 PUSH1 0x0 REVERT JUMPDEST PUSH1 0x0 PUSH1 0x1 DUP3 ADD PUSH3 0x2E3 JUMPI PUSH4 0x4E487B71 PUSH1 0xE0 SHL PUSH1 0x0 MSTORE PUSH1 0x11 PUSH1 0x4 MSTORE PUSH1 0x24 PUSH1 0x0 REVERT JUMPDEST POP PUSH1 0x1 ADD SWAP1 JUMP JUMPDEST PUSH2 0x130C DUP1 PUSH3 0x2FA PUSH1 0x0 CODECOPY PUSH1 0x0 RETURN INVALID PUSH1 0x80 PUSH1 0x40 MSTORE CALLVALUE DUP1 ISZERO PUSH2 0x10 JUMPI PUSH1 0x0 DUP1 REVERT JUMPDEST POP PUSH1 0x4 CALLDATASIZE LT PUSH2 0xB4 JUMPI PUSH1 0x0 CALLDATALOAD PUSH1 0xE0 SHR DUP1 PUSH4 0x9A6B8492 GT PUSH2 0x71 JUMPI DUP1 PUSH4 0x9A6B8492 EQ PUSH2 0x16E JUMPI DUP1 PUSH4 0xAABE1DA1 EQ PUSH2 0x197 JUMPI DUP1 PUSH4 0xB6E5BDE5 EQ PUSH2 0x1AA JUMPI DUP1 PUSH4 0xBFED7DD6 EQ PUSH2 0x1B4 JUMPI DUP1 PUSH4 0xC7668A72 EQ PUSH2 0x1D4 JUMPI DUP1 PUSH4 0xFE412BB7 EQ PUSH2 0x1FA JUMPI PUSH1 0x0 DUP1 REVERT JUMPDEST DUP1 PUSH4 0x2A7B95A7 EQ PUSH2 0xB9 JUMPI DUP1 PUSH4 0x47D90B5C EQ PUSH2 0xF1 JUMPI DUP1 PUSH4 0x5B28F0E7 EQ PUSH2 0x11C JUMPI DUP1 PUSH4 0x5BE5E3EC EQ PUSH2 0x133 JUMPI DUP1 PUSH4 0x663950E7 EQ PUSH2 0x148 JUMPI DUP1 PUSH4 0x95623641 EQ PUSH2 0x15B JUMPI JUMPDEST PUSH1 0x0 DUP1 REVERT JUMPDEST PUSH2 0xDC PUSH2 0xC7 CALLDATASIZE PUSH1 0x4 PUSH2 0xD49 JUMP JUMPDEST PUSH1 0x2 PUSH1 0x20 MSTORE PUSH1 0x0 SWAP1 DUP2 MSTORE PUSH1 0x40 SWAP1 KECCAK256 SLOAD PUSH1 0xFF AND DUP2 JUMP JUMPDEST PUSH1 0x40 MLOAD SWAP1 ISZERO ISZERO DUP2 MSTORE PUSH1 0x20 ADD JUMPDEST PUSH1 0x40 MLOAD DUP1 SWAP2 SUB SWAP1 RETURN JUMPDEST PUSH1 0x1 SLOAD PUSH2 0x104 SWAP1 PUSH1 0x1 PUSH1 0x1 PUSH1 0xA0 SHL SUB AND DUP2 JUMP JUMPDEST PUSH1 0x40 MLOAD PUSH1 0x1 PUSH1 0x1 PUSH1 0xA0 SHL SUB SWAP1 SWAP2 AND DUP2 MSTORE PUSH1 0x20 ADD PUSH2 0xE8 JUMP JUMPDEST PUSH2 0x125 PUSH1 0x5 SLOAD DUP2 JUMP JUMPDEST PUSH1 0x40 MLOAD SWAP1 DUP2 MSTORE PUSH1 0x20 ADD PUSH2 0xE8 JUMP JUMPDEST PUSH2 0x146 PUSH2 0x141 CALLDATASIZE PUSH1 0x4 PUSH2 0xD6B JUMP JUMPDEST PUSH2 0x20D JUMP JUMPDEST STOP JUMPDEST PUSH2 0x146 PUSH2 0x156 CALLDATASIZE PUSH1 0x4 PUSH2 0xDDE JUMP JUMPDEST PUSH2 0x424 JUMP JUMPDEST PUSH1 0x0 SLOAD PUSH2 0x104 SWAP1 PUSH1 0x1 PUSH1 0x1 PUSH1 0xA0 SHL SUB AND DUP2 JUMP JUMPDEST PUSH2 0x104 PUSH2 0x17C CALLDATASIZE PUSH1 0x4 PUSH2 0xF0A JUMP JUMPDEST PUSH1 0x3 PUSH1 0x20 MSTORE PUSH1 0x0 SWAP1 DUP2 MSTORE PUSH1 0x40 SWAP1 KECCAK256 SLOAD PUSH1 0x1 PUSH1 0x1 PUSH1 0xA0 SHL SUB AND DUP2 JUMP JUMPDEST PUSH2 0x146 PUSH2 0x1A5 CALLDATASIZE PUSH1 0x4 PUSH2 0xF23 JUMP JUMPDEST PUSH2 0x6FD JUMP JUMPDEST PUSH2 0x125 PUSH3 0x93A80 DUP2 JUMP JUMPDEST PUSH2 0x125 PUSH2 0x1C2 CALLDATASIZE PUSH1 0x4 PUSH2 0xD49 JUMP JUMPDEST PUSH1 0x4 PUSH1 0x20 MSTORE PUSH1 0x0 SWAP1 DUP2 MSTORE PUSH1 0x40 SWAP1 KECCAK256 SLOAD DUP2 JUMP JUMPDEST PUSH2 0x1E7 PUSH2 0x1E2 CALLDATASIZE PUSH1 0x4 PUSH2 0xF23 JUMP JUMPDEST PUSH2 0x8E6 JUMP JUMPDEST PUSH1 0x40 MLOAD PUSH2 0xE8 SWAP8 SWAP7 SWAP6 SWAP5 SWAP4 SWAP3 SWAP2 SWAP1 PUSH2 0xF7D JUMP JUMPDEST PUSH2 0x146 PUSH2 0x208 CALLDATASIZE PUSH1 0x4 PUSH2 0x1028 JUMP JUMPDEST PUSH2 0x9A6 JUMP JUMPDEST CALLER PUSH1 0x0 SWAP1 DUP2 MSTORE PUSH1 0x2 PUSH1 0x20 MSTORE PUSH1 0x40 SWAP1 KECCAK256 SLOAD PUSH1 0xFF AND PUSH2 0x26A JUMPI PUSH1 0x40 MLOAD PUSH3 0x461BCD PUSH1 0xE5 SHL DUP2 MSTORE PUSH1 0x20 PUSH1 0x4 DUP3 ADD MSTORE PUSH1 0x16 PUSH1 0x24 DUP3 ADD MSTORE PUSH22 0x4E6F7420617574686F726973656420746F20766F7465 PUSH1 0x50 SHL PUSH1 0x44 DUP3 ADD MSTORE PUSH1 0x64 ADD JUMPDEST PUSH1 0x40 MLOAD DUP1 SWAP2 SUB SWAP1 REVERT JUMPDEST PUSH1 0x0 DUP3 DUP2 MSTORE PUSH1 0x6 PUSH1 0x20 SWAP1 DUP2 MSTORE PUSH1 0x40 DUP1 DUP4 KECCAK256 DUP5 DUP5 MSTORE SWAP1 SWAP2 MSTORE SWAP1 KECCAK256 PUSH1 0x1 PUSH1 0x8 DUP3 ADD SLOAD PUSH1 0xFF AND PUSH1 0x3 DUP2 GT ISZERO PUSH2 0x29E JUMPI PUSH2 0x29E PUSH2 0xF45 JUMP JUMPDEST EQ PUSH2 0x2EB JUMPI PUSH1 0x40 MLOAD PUSH3 0x461BCD PUSH1 0xE5 SHL DUP2 MSTORE PUSH1 0x20 PUSH1 0x4 DUP3 ADD MSTORE PUSH1 0x18 PUSH1 0x24 DUP3 ADD MSTORE PUSH32 0x43616E6E6F7420766F74652C20706572696F64206F7665720000000000000000 PUSH1 0x44 DUP3 ADD MSTORE PUSH1 0x64 ADD PUSH2 0x261 JUMP JUMPDEST TIMESTAMP PUSH3 0x93A80 DUP3 PUSH1 0x1 ADD SLOAD PUSH2 0x2FF SWAP2 SWAP1 PUSH2 0x1082 JUMP JUMPDEST GT PUSH2 0x317 JUMPI PUSH1 0x8 ADD DUP1 SLOAD PUSH1 0xFF NOT AND PUSH1 0x2 OR SWAP1 SSTORE POP POP POP JUMP JUMPDEST DUP4 PUSH1 0x0 SUB PUSH2 0x342 JUMPI PUSH1 0x1 DUP2 PUSH1 0x5 ADD PUSH1 0x0 ADD PUSH1 0x0 DUP3 DUP3 SLOAD PUSH2 0x337 SWAP2 SWAP1 PUSH2 0x1082 JUMP JUMPDEST SWAP1 SWAP2 SSTORE POP PUSH2 0x3A0 SWAP1 POP JUMP JUMPDEST DUP4 PUSH1 0x1 SUB PUSH2 0x362 JUMPI PUSH1 0x1 DUP2 PUSH1 0x5 ADD PUSH1 0x1 ADD PUSH1 0x0 DUP3 DUP3 SLOAD PUSH2 0x337 SWAP2 SWAP1 PUSH2 0x1082 JUMP JUMPDEST PUSH1 0x40 MLOAD PUSH3 0x461BCD PUSH1 0xE5 SHL DUP2 MSTORE PUSH1 0x20 PUSH1 0x4 DUP3 ADD MSTORE PUSH1 0x13 PUSH1 0x24 DUP3 ADD MSTORE PUSH19 0x24B73B30B634B2103B37BA329037B83A34B7B7 PUSH1 0x69 SHL PUSH1 0x44 DUP3 ADD MSTORE PUSH1 0x64 ADD PUSH2 0x261 JUMP JUMPDEST CALLER PUSH1 0x0 SWAP1 DUP2 MSTORE PUSH1 0x4 PUSH1 0x20 MSTORE PUSH1 0x40 SWAP1 KECCAK256 SLOAD PUSH1 0x7 DUP3 ADD DUP1 SLOAD DUP7 SWAP3 SWAP1 DUP2 LT PUSH2 0x3C7 JUMPI PUSH2 0x3C7 PUSH2 0x109B JUMP JUMPDEST PUSH1 0x0 SWAP2 DUP3 MSTORE PUSH1 0x20 SWAP2 DUP3 SWAP1 KECCAK256 ADD SWAP2 SWAP1 SWAP2 SSTORE PUSH1 0x40 DUP1 MLOAD CALLER DUP2 MSTORE SWAP2 DUP3 ADD DUP7 SWAP1 MSTORE DUP2 ADD DUP5 SWAP1 MSTORE PUSH1 0x60 DUP2 ADD DUP4 SWAP1 MSTORE PUSH32 0xDEAB8EE83EBA63BD94FC0587073DDBF10ED10CFFE1E93C8B63411B7FA3EC0214 SWAP1 PUSH1 0x80 ADD JUMPDEST PUSH1 0x40 MLOAD DUP1 SWAP2 SUB SWAP1 LOG1 POP POP POP POP JUMP JUMPDEST PUSH1 0x0 DUP4 DUP2 MSTORE PUSH1 0x6 PUSH1 0x20 SWAP1 DUP2 MSTORE PUSH1 0x40 DUP1 DUP4 KECCAK256 DUP6 DUP5 MSTORE SWAP1 SWAP2 MSTORE DUP2 KECCAK256 SWAP1 PUSH1 0x8 DUP3 ADD SLOAD PUSH1 0xFF AND PUSH1 0x3 DUP2 GT ISZERO PUSH2 0x457 JUMPI PUSH2 0x457 PUSH2 0xF45 JUMP JUMPDEST EQ PUSH2 0x4AF JUMPI PUSH1 0x40 MLOAD PUSH3 0x461BCD PUSH1 0xE5 SHL DUP2 MSTORE PUSH1 0x20 PUSH1 0x4 DUP3 ADD MSTORE PUSH1 0x22 PUSH1 0x24 DUP3 ADD MSTORE PUSH32 0x45766964656E6365207375626D697373696F6E20706572696F64206973206F76 PUSH1 0x44 DUP3 ADD MSTORE PUSH2 0x32B9 PUSH1 0xF1 SHL PUSH1 0x64 DUP3 ADD MSTORE PUSH1 0x84 ADD PUSH2 0x261 JUMP JUMPDEST PUSH1 0x3 DUP2 ADD SLOAD PUSH1 0x1 PUSH1 0x1 PUSH1 0xA0 SHL SUB AND CALLER SUB PUSH2 0x581 JUMPI DUP2 MLOAD PUSH1 0x9 DUP3 ADD SLOAD PUSH1 0xA SWAP2 PUSH2 0x4D6 SWAP2 PUSH2 0x1082 JUMP JUMPDEST GT ISZERO PUSH2 0x51D JUMPI PUSH1 0x40 MLOAD PUSH3 0x461BCD PUSH1 0xE5 SHL DUP2 MSTORE PUSH1 0x20 PUSH1 0x4 DUP3 ADD MSTORE PUSH1 0x16 PUSH1 0x24 DUP3 ADD MSTORE PUSH22 0x115D9A59195B98D9481B1A5B5A5D081C995858DA1959 PUSH1 0x52 SHL PUSH1 0x44 DUP3 ADD MSTORE PUSH1 0x64 ADD PUSH2 0x261 JUMP JUMPDEST PUSH1 0x0 JUMPDEST DUP3 MLOAD DUP2 LT ISZERO PUSH2 0x57B JUMPI DUP2 PUSH1 0x9 ADD DUP4 DUP3 DUP2 MLOAD DUP2 LT PUSH2 0x53F JUMPI PUSH2 0x53F PUSH2 0x109B JUMP JUMPDEST PUSH1 0x20 SWAP1 DUP2 MUL SWAP2 SWAP1 SWAP2 ADD DUP2 ADD MLOAD DUP3 SLOAD PUSH1 0x1 DUP2 ADD DUP5 SSTORE PUSH1 0x0 SWAP4 DUP5 MSTORE SWAP2 SWAP1 SWAP3 KECCAK256 ADD SWAP1 PUSH2 0x568 SWAP1 DUP3 PUSH2 0x113A JUMP JUMPDEST POP DUP1 PUSH2 0x573 DUP2 PUSH2 0x11FA JUMP JUMPDEST SWAP2 POP POP PUSH2 0x520 JUMP JUMPDEST POP PUSH2 0x69F JUMP JUMPDEST PUSH1 0x4 DUP2 ADD SLOAD PUSH1 0x1 PUSH1 0x1 PUSH1 0xA0 SHL SUB AND CALLER SUB PUSH2 0x64D JUMPI DUP2 MLOAD PUSH1 0xA DUP3 DUP2 ADD SLOAD SWAP1 SWAP2 PUSH2 0x5A8 SWAP2 PUSH2 0x1082 JUMP JUMPDEST GT ISZERO PUSH2 0x5EF JUMPI PUSH1 0x40 MLOAD PUSH3 0x461BCD PUSH1 0xE5 SHL DUP2 MSTORE PUSH1 0x20 PUSH1 0x4 DUP3 ADD MSTORE PUSH1 0x16 PUSH1 0x24 DUP3 ADD MSTORE PUSH22 0x115D9A59195B98D9481B1A5B5A5D081C995858DA1959 PUSH1 0x52 SHL PUSH1 0x44 DUP3 ADD MSTORE PUSH1 0x64 ADD PUSH2 0x261 JUMP JUMPDEST PUSH1 0x0 JUMPDEST DUP3 MLOAD DUP2 LT ISZERO PUSH2 0x57B JUMPI DUP2 PUSH1 0xA ADD DUP4 DUP3 DUP2 MLOAD DUP2 LT PUSH2 0x611 JUMPI PUSH2 0x611 PUSH2 0x109B JUMP JUMPDEST PUSH1 0x20 SWAP1 DUP2 MUL SWAP2 SWAP1 SWAP2 ADD DUP2 ADD MLOAD DUP3 SLOAD PUSH1 0x1 DUP2 ADD DUP5 SSTORE PUSH1 0x0 SWAP4 DUP5 MSTORE SWAP2 SWAP1 SWAP3 KECCAK256 ADD SWAP1 PUSH2 0x63A SWAP1 DUP3 PUSH2 0x113A JUMP JUMPDEST POP DUP1 PUSH2 0x645 DUP2 PUSH2 0x11FA JUMP JUMPDEST SWAP2 POP POP PUSH2 0x5F2 JUMP JUMPDEST PUSH1 0x40 MLOAD PUSH3 0x461BCD PUSH1 0xE5 SHL DUP2 MSTORE PUSH1 0x20 PUSH1 0x4 DUP3 ADD MSTORE PUSH1 0x21 PUSH1 0x24 DUP3 ADD MSTORE PUSH32 0x4E6F7420617574686F726973656420746F207375626D69742065766964656E63 PUSH1 0x44 DUP3 ADD MSTORE PUSH1 0x65 PUSH1 0xF8 SHL PUSH1 0x64 DUP3 ADD MSTORE PUSH1 0x84 ADD PUSH2 0x261 JUMP JUMPDEST PUSH1 0x9 DUP2 ADD SLOAD ISZERO DUP1 ISZERO SWAP1 PUSH2 0x6B5 JUMPI POP PUSH1 0xA DUP2 ADD SLOAD ISZERO ISZERO JUMPDEST ISZERO PUSH2 0x6CA JUMPI PUSH1 0x8 DUP2 ADD DUP1 SLOAD PUSH1 0xFF NOT AND PUSH1 0x1 OR SWAP1 SSTORE JUMPDEST PUSH32 0x5B43B0A0604EBE0663F1BCA6FDDCB55869609DC2C90195A0043FC68633A14771 DUP5 DUP5 DUP5 PUSH1 0x40 MLOAD PUSH2 0x416 SWAP4 SWAP3 SWAP2 SWAP1 PUSH2 0x1213 JUMP JUMPDEST PUSH1 0x0 DUP3 DUP2 MSTORE PUSH1 0x6 PUSH1 0x20 SWAP1 DUP2 MSTORE PUSH1 0x40 DUP1 DUP4 KECCAK256 DUP5 DUP5 MSTORE SWAP1 SWAP2 MSTORE SWAP1 KECCAK256 PUSH1 0x2 PUSH1 0x8 DUP3 ADD SLOAD PUSH1 0xFF AND PUSH1 0x3 DUP2 GT ISZERO PUSH2 0x731 JUMPI PUSH2 0x731 PUSH2 0xF45 JUMP JUMPDEST EQ PUSH2 0x77E JUMPI PUSH1 0x40 MLOAD PUSH3 0x461BCD PUSH1 0xE5 SHL DUP2 MSTORE PUSH1 0x20 PUSH1 0x4 DUP3 ADD MSTORE PUSH1 0x1F PUSH1 0x24 DUP3 ADD MSTORE PUSH32 0x4469737075746520696E206E6F6E2D657865637574696F6E20706572696F6400 PUSH1 0x44 DUP3 ADD MSTORE PUSH1 0x64 ADD PUSH2 0x261 JUMP JUMPDEST PUSH1 0x0 SLOAD PUSH1 0x6 DUP3 ADD SLOAD PUSH1 0x5 DUP4 ADD SLOAD PUSH1 0x1 PUSH1 0x1 PUSH1 0xA0 SHL SUB SWAP1 SWAP3 AND SWAP2 LT PUSH2 0x821 JUMPI PUSH1 0x3 DUP3 ADD SLOAD PUSH1 0x2 DUP4 ADD SLOAD PUSH1 0x40 MLOAD PUSH4 0xA9059CBB PUSH1 0xE0 SHL DUP2 MSTORE PUSH1 0x1 PUSH1 0x1 PUSH1 0xA0 SHL SUB SWAP3 DUP4 AND PUSH1 0x4 DUP3 ADD MSTORE PUSH1 0x24 DUP2 ADD SWAP2 SWAP1 SWAP2 MSTORE SWAP1 DUP3 AND SWAP1 PUSH4 0xA9059CBB SWAP1 PUSH1 0x44 ADD PUSH1 0x20 PUSH1 0x40 MLOAD DUP1 DUP4 SUB DUP2 PUSH1 0x0 DUP8 GAS CALL ISZERO DUP1 ISZERO PUSH2 0x7F7 JUMPI RETURNDATASIZE PUSH1 0x0 DUP1 RETURNDATACOPY RETURNDATASIZE PUSH1 0x0 REVERT JUMPDEST POP POP POP POP PUSH1 0x40 MLOAD RETURNDATASIZE PUSH1 0x1F NOT PUSH1 0x1F DUP3 ADD AND DUP3 ADD DUP1 PUSH1 0x40 MSTORE POP DUP2 ADD SWAP1 PUSH2 0x81B SWAP2 SWAP1 PUSH2 0x12B4 JUMP JUMPDEST POP PUSH2 0x8A1 JUMP JUMPDEST PUSH1 0x4 DUP3 DUP2 ADD SLOAD PUSH1 0x2 DUP5 ADD SLOAD PUSH1 0x40 MLOAD PUSH4 0xA9059CBB PUSH1 0xE0 SHL DUP2 MSTORE PUSH1 0x1 PUSH1 0x1 PUSH1 0xA0 SHL SUB SWAP3 DUP4 AND SWAP4 DUP2 ADD SWAP4 SWAP1 SWAP4 MSTORE PUSH1 0x24 DUP4 ADD MSTORE DUP3 AND SWAP1 PUSH4 0xA9059CBB SWAP1 PUSH1 0x44 ADD PUSH1 0x20 PUSH1 0x40 MLOAD DUP1 DUP4 SUB DUP2 PUSH1 0x0 DUP8 GAS CALL ISZERO DUP1 ISZERO PUSH2 0x87B JUMPI RETURNDATASIZE PUSH1 0x0 DUP1 RETURNDATACOPY RETURNDATASIZE PUSH1 0x0 REVERT JUMPDEST POP POP POP POP PUSH1 0x40 MLOAD RETURNDATASIZE PUSH1 0x1F NOT PUSH1 0x1F DUP3 ADD AND DUP3 ADD DUP1 PUSH1 0x40 MSTORE POP DUP2 ADD SWAP1 PUSH2 0x89F SWAP2 SWAP1 PUSH2 0x12B4 JUMP JUMPDEST POP JUMPDEST PUSH1 0x8 DUP3 ADD DUP1 SLOAD PUSH1 0xFF NOT AND PUSH1 0x3 OR SWAP1 SSTORE PUSH1 0x40 DUP1 MLOAD DUP6 DUP2 MSTORE PUSH1 0x20 DUP2 ADD DUP6 SWAP1 MSTORE PUSH32 0xD7408B8D6095EBDB9F9A662F6A18E66AA0087FD47DA5BF77207B34D0A85B5FE6 SWAP2 ADD PUSH2 0x416 JUMP JUMPDEST PUSH1 0x6 PUSH1 0x20 DUP2 DUP2 MSTORE PUSH1 0x0 SWAP4 DUP5 MSTORE PUSH1 0x40 DUP1 DUP6 KECCAK256 DUP3 MSTORE SWAP3 DUP5 MSTORE SWAP3 DUP3 SWAP1 KECCAK256 DUP1 SLOAD PUSH1 0x1 DUP3 ADD SLOAD PUSH1 0x2 DUP4 ADD SLOAD PUSH1 0x3 DUP5 ADD SLOAD PUSH1 0x4 DUP6 ADD SLOAD DUP8 MLOAD PUSH1 0x60 DUP2 ADD DUP10 MSTORE PUSH1 0x5 DUP8 ADD DUP1 SLOAD DUP3 MSTORE SWAP8 DUP8 ADD SLOAD DUP2 DUP12 ADD MSTORE PUSH1 0x7 DUP8 ADD DUP1 SLOAD DUP11 MLOAD DUP2 DUP14 MUL DUP2 ADD DUP14 ADD DUP13 MSTORE DUP2 DUP2 MSTORE SWAP8 SWAP12 SWAP7 SWAP11 SWAP6 SWAP10 PUSH1 0x1 PUSH1 0x1 PUSH1 0xA0 SHL SUB SWAP6 DUP7 AND SWAP10 SWAP5 SWAP1 SWAP6 AND SWAP8 SWAP4 SWAP7 SWAP3 SWAP6 DUP7 ADD SWAP4 SWAP3 DUP4 ADD DUP3 DUP3 DUP1 ISZERO PUSH2 0x990 JUMPI PUSH1 0x20 MUL DUP3 ADD SWAP2 SWAP1 PUSH1 0x0 MSTORE PUSH1 0x20 PUSH1 0x0 KECCAK256 SWAP1 JUMPDEST DUP2 SLOAD DUP2 MSTORE PUSH1 0x20 ADD SWAP1 PUSH1 0x1 ADD SWAP1 DUP1 DUP4 GT PUSH2 0x97C JUMPI JUMPDEST POP POP POP SWAP2 SWAP1 SWAP3 MSTORE POP POP POP PUSH1 0x8 SWAP1 SWAP2 ADD SLOAD PUSH1 0xFF AND DUP8 JUMP JUMPDEST PUSH1 0x0 SLOAD PUSH1 0x1 PUSH1 0x1 PUSH1 0xA0 SHL SUB AND CALLER EQ PUSH2 0xA0F JUMPI PUSH1 0x40 MLOAD PUSH3 0x461BCD PUSH1 0xE5 SHL DUP2 MSTORE PUSH1 0x20 PUSH1 0x4 DUP3 ADD MSTORE PUSH1 0x26 PUSH1 0x24 DUP3 ADD MSTORE PUSH32 0x43616E206F6E6C7920626520696E766F6B6564206279206D61726B657420636F PUSH1 0x44 DUP3 ADD MSTORE PUSH6 0x1B9D1C9858DD PUSH1 0xD2 SHL PUSH1 0x64 DUP3 ADD MSTORE PUSH1 0x84 ADD PUSH2 0x261 JUMP JUMPDEST PUSH2 0xA17 PUSH2 0xBA1 JUMP JUMPDEST PUSH1 0x5 DUP1 SLOAD DUP1 DUP4 MSTORE PUSH1 0x1 PUSH1 0x1 PUSH1 0xA0 SHL SUB DUP1 DUP8 AND PUSH1 0x60 DUP6 ADD SWAP1 DUP2 MSTORE DUP7 DUP3 AND PUSH1 0x80 DUP7 ADD SWAP1 DUP2 MSTORE TIMESTAMP PUSH1 0x20 DUP1 DUP9 ADD SWAP2 DUP3 MSTORE PUSH1 0x40 DUP1 DUP10 ADD DUP11 DUP2 MSTORE PUSH1 0x0 DUP15 DUP2 MSTORE PUSH1 0x6 DUP1 DUP6 MSTORE DUP4 DUP3 KECCAK256 SWAP10 DUP3 MSTORE SWAP9 DUP5 MSTORE DUP3 SWAP1 KECCAK256 DUP11 MLOAD DUP2 SSTORE SWAP4 MLOAD PUSH1 0x1 DUP6 ADD SSTORE MLOAD PUSH1 0x2 DUP5 ADD SSTORE SWAP4 MLOAD PUSH1 0x3 DUP4 ADD DUP1 SLOAD SWAP2 DUP8 AND PUSH1 0x1 PUSH1 0x1 PUSH1 0xA0 SHL SUB NOT SWAP3 DUP4 AND OR SWAP1 SSTORE SWAP3 MLOAD PUSH1 0x4 DUP4 ADD DUP1 SLOAD SWAP2 SWAP1 SWAP7 AND SWAP4 AND SWAP3 SWAP1 SWAP3 OR SWAP1 SWAP4 SSTORE PUSH1 0xA0 DUP7 ADD MLOAD DUP1 MLOAD SWAP6 DUP5 ADD SWAP6 DUP7 SSTORE DUP1 DUP3 ADD MLOAD SWAP5 DUP5 ADD SWAP5 SWAP1 SWAP5 SSTORE SWAP1 DUP4 ADD MLOAD DUP1 MLOAD DUP7 SWAP6 SWAP4 SWAP5 SWAP4 SWAP3 PUSH2 0xAD6 SWAP3 PUSH1 0x7 DUP8 ADD SWAP3 SWAP2 ADD SWAP1 PUSH2 0xC21 JUMP JUMPDEST POP POP POP PUSH1 0xC0 DUP3 ADD MLOAD PUSH1 0x8 DUP3 ADD DUP1 SLOAD PUSH1 0xFF NOT AND PUSH1 0x1 DUP4 PUSH1 0x3 DUP2 GT ISZERO PUSH2 0xAFC JUMPI PUSH2 0xAFC PUSH2 0xF45 JUMP JUMPDEST MUL OR SWAP1 SSTORE POP PUSH1 0xE0 DUP3 ADD MLOAD DUP1 MLOAD PUSH2 0xB1C SWAP2 PUSH1 0x9 DUP5 ADD SWAP2 PUSH1 0x20 SWAP1 SWAP2 ADD SWAP1 PUSH2 0xC6C JUMP JUMPDEST POP PUSH2 0x100 DUP3 ADD MLOAD DUP1 MLOAD PUSH2 0xB39 SWAP2 PUSH1 0xA DUP5 ADD SWAP2 PUSH1 0x20 SWAP1 SWAP2 ADD SWAP1 PUSH2 0xC6C JUMP JUMPDEST POP POP PUSH1 0x5 DUP1 SLOAD SWAP2 POP PUSH1 0x0 PUSH2 0xB4C DUP4 PUSH2 0x11FA JUMP JUMPDEST SWAP1 SWAP2 SSTORE POP POP PUSH1 0x40 DUP1 MLOAD DUP7 DUP2 MSTORE PUSH1 0x1 PUSH1 0x1 PUSH1 0xA0 SHL SUB DUP7 DUP2 AND PUSH1 0x20 DUP4 ADD MSTORE DUP6 AND DUP2 DUP4 ADD MSTORE SWAP1 MLOAD PUSH32 0x32C3577AD32544A8C06C1B330ADA404F03A4D405574E524DD6D86EEBA5F21E73 SWAP2 DUP2 SWAP1 SUB PUSH1 0x60 ADD SWAP1 LOG1 POP POP POP POP POP JUMP JUMPDEST PUSH1 0x40 MLOAD DUP1 PUSH2 0x120 ADD PUSH1 0x40 MSTORE DUP1 PUSH1 0x0 DUP2 MSTORE PUSH1 0x20 ADD PUSH1 0x0 DUP2 MSTORE PUSH1 0x20 ADD PUSH1 0x0 DUP2 MSTORE PUSH1 0x20 ADD PUSH1 0x0 PUSH1 0x1 PUSH1 0x1 PUSH1 0xA0 SHL SUB AND DUP2 MSTORE PUSH1 0x20 ADD PUSH1 0x0 PUSH1 0x1 PUSH1 0x1 PUSH1 0xA0 SHL SUB AND DUP2 MSTORE PUSH1 0x20 ADD PUSH2 0xC06 PUSH1 0x40 MLOAD DUP1 PUSH1 0x60 ADD PUSH1 0x40 MSTORE DUP1 PUSH1 0x0 DUP2 MSTORE PUSH1 0x20 ADD PUSH1 0x0 DUP2 MSTORE PUSH1 0x20 ADD PUSH1 0x60 DUP2 MSTORE POP SWAP1 JUMP JUMPDEST DUP2 MSTORE PUSH1 0x20 ADD PUSH1 0x0 DUP2 MSTORE PUSH1 0x20 ADD PUSH1 0x60 DUP2 MSTORE PUSH1 0x20 ADD PUSH1 0x60 DUP2 MSTORE POP SWAP1 JUMP JUMPDEST DUP3 DUP1 SLOAD DUP3 DUP3 SSTORE SWAP1 PUSH1 0x0 MSTORE PUSH1 0x20 PUSH1 0x0 KECCAK256 SWAP1 DUP2 ADD SWAP3 DUP3 ISZERO PUSH2 0xC5C JUMPI SWAP2 PUSH1 0x20 MUL DUP3 ADD JUMPDEST DUP3 DUP2 GT ISZERO PUSH2 0xC5C JUMPI DUP3 MLOAD DUP3 SSTORE SWAP2 PUSH1 0x20 ADD SWAP2 SWAP1 PUSH1 0x1 ADD SWAP1 PUSH2 0xC41 JUMP JUMPDEST POP PUSH2 0xC68 SWAP3 SWAP2 POP PUSH2 0xCBE JUMP JUMPDEST POP SWAP1 JUMP JUMPDEST DUP3 DUP1 SLOAD DUP3 DUP3 SSTORE SWAP1 PUSH1 0x0 MSTORE PUSH1 0x20 PUSH1 0x0 KECCAK256 SWAP1 DUP2 ADD SWAP3 DUP3 ISZERO PUSH2 0xCB2 JUMPI SWAP2 PUSH1 0x20 MUL DUP3 ADD JUMPDEST DUP3 DUP2 GT ISZERO PUSH2 0xCB2 JUMPI DUP3 MLOAD DUP3 SWAP1 PUSH2 0xCA2 SWAP1 DUP3 PUSH2 0x113A JUMP JUMPDEST POP SWAP2 PUSH1 0x20 ADD SWAP2 SWAP1 PUSH1 0x1 ADD SWAP1 PUSH2 0xC8C JUMP JUMPDEST POP PUSH2 0xC68 SWAP3 SWAP2 POP PUSH2 0xCD3 JUMP JUMPDEST JUMPDEST DUP1 DUP3 GT ISZERO PUSH2 0xC68 JUMPI PUSH1 0x0 DUP2 SSTORE PUSH1 0x1 ADD PUSH2 0xCBF JUMP JUMPDEST DUP1 DUP3 GT ISZERO PUSH2 0xC68 JUMPI PUSH1 0x0 PUSH2 0xCE7 DUP3 DUP3 PUSH2 0xCF0 JUMP JUMPDEST POP PUSH1 0x1 ADD PUSH2 0xCD3 JUMP JUMPDEST POP DUP1 SLOAD PUSH2 0xCFC SWAP1 PUSH2 0x10B1 JUMP JUMPDEST PUSH1 0x0 DUP3 SSTORE DUP1 PUSH1 0x1F LT PUSH2 0xD0C JUMPI POP POP JUMP JUMPDEST PUSH1 0x1F ADD PUSH1 0x20 SWAP1 DIV SWAP1 PUSH1 0x0 MSTORE PUSH1 0x20 PUSH1 0x0 KECCAK256 SWAP1 DUP2 ADD SWAP1 PUSH2 0xD2A SWAP2 SWAP1 PUSH2 0xCBE JUMP JUMPDEST POP JUMP JUMPDEST DUP1 CALLDATALOAD PUSH1 0x1 PUSH1 0x1 PUSH1 0xA0 SHL SUB DUP2 AND DUP2 EQ PUSH2 0xD44 JUMPI PUSH1 0x0 DUP1 REVERT JUMPDEST SWAP2 SWAP1 POP JUMP JUMPDEST PUSH1 0x0 PUSH1 0x20 DUP3 DUP5 SUB SLT ISZERO PUSH2 0xD5B JUMPI PUSH1 0x0 DUP1 REVERT JUMPDEST PUSH2 0xD64 DUP3 PUSH2 0xD2D JUMP JUMPDEST SWAP4 SWAP3 POP POP POP JUMP JUMPDEST PUSH1 0x0 DUP1 PUSH1 0x0 PUSH1 0x60 DUP5 DUP7 SUB SLT ISZERO PUSH2 0xD80 JUMPI PUSH1 0x0 DUP1 REVERT JUMPDEST POP POP DUP2 CALLDATALOAD SWAP4 PUSH1 0x20 DUP4 ADD CALLDATALOAD SWAP4 POP PUSH1 0x40 SWAP1 SWAP3 ADD CALLDATALOAD SWAP2 SWAP1 POP JUMP JUMPDEST PUSH4 0x4E487B71 PUSH1 0xE0 SHL PUSH1 0x0 MSTORE PUSH1 0x41 PUSH1 0x4 MSTORE PUSH1 0x24 PUSH1 0x0 REVERT JUMPDEST PUSH1 0x40 MLOAD PUSH1 0x1F DUP3 ADD PUSH1 0x1F NOT AND DUP2 ADD PUSH8 0xFFFFFFFFFFFFFFFF DUP2 GT DUP3 DUP3 LT OR ISZERO PUSH2 0xDD6 JUMPI PUSH2 0xDD6 PUSH2 0xD97 JUMP JUMPDEST PUSH1 0x40 MSTORE SWAP2 SWAP1 POP JUMP JUMPDEST PUSH1 0x0 DUP1 PUSH1 0x0 PUSH1 0x60 DUP5 DUP7 SUB SLT ISZERO PUSH2 0xDF3 JUMPI PUSH1 0x0 DUP1 REVERT JUMPDEST DUP4 CALLDATALOAD SWAP3 POP PUSH1 0x20 DUP1 DUP6 ADD CALLDATALOAD SWAP3 POP PUSH1 0x40 DUP1 DUP7 ADD CALLDATALOAD PUSH8 0xFFFFFFFFFFFFFFFF DUP1 DUP3 GT ISZERO PUSH2 0xE1B JUMPI PUSH1 0x0 DUP1 REVERT JUMPDEST DUP2 DUP9 ADD SWAP2 POP DUP9 PUSH1 0x1F DUP4 ADD SLT PUSH2 0xE2F JUMPI PUSH1 0x0 DUP1 REVERT JUMPDEST DUP2 CALLDATALOAD DUP2 DUP2 GT ISZERO PUSH2 0xE41 JUMPI PUSH2 0xE41 PUSH2 0xD97 JUMP JUMPDEST DUP1 PUSH1 0x5 SHL PUSH2 0xE50 DUP7 DUP3 ADD PUSH2 0xDAD JUMP JUMPDEST SWAP2 DUP3 MSTORE DUP4 DUP2 ADD DUP7 ADD SWAP2 DUP7 DUP2 ADD SWAP1 DUP13 DUP5 GT ISZERO PUSH2 0xE6A JUMPI PUSH1 0x0 DUP1 REVERT JUMPDEST DUP8 DUP7 ADD SWAP3 POP JUMPDEST DUP4 DUP4 LT ISZERO PUSH2 0xEF8 JUMPI DUP3 CALLDATALOAD DUP6 DUP2 GT ISZERO PUSH2 0xE88 JUMPI PUSH1 0x0 DUP1 DUP2 REVERT JUMPDEST DUP7 ADD PUSH1 0x3F DUP2 ADD DUP15 SGT PUSH2 0xE9A JUMPI PUSH1 0x0 DUP1 DUP2 REVERT JUMPDEST DUP9 DUP2 ADD CALLDATALOAD DUP7 DUP2 GT ISZERO PUSH2 0xEAE JUMPI PUSH2 0xEAE PUSH2 0xD97 JUMP JUMPDEST PUSH2 0xEC0 PUSH1 0x1F DUP3 ADD PUSH1 0x1F NOT AND DUP12 ADD PUSH2 0xDAD JUMP JUMPDEST DUP2 DUP2 MSTORE DUP16 DUP11 DUP4 DUP6 ADD ADD GT ISZERO PUSH2 0xED5 JUMPI PUSH1 0x0 DUP1 DUP2 REVERT JUMPDEST DUP2 DUP11 DUP5 ADD DUP13 DUP4 ADD CALLDATACOPY PUSH1 0x0 SWAP2 DUP2 ADD DUP12 ADD SWAP2 SWAP1 SWAP2 MSTORE DUP4 MSTORE POP SWAP2 DUP8 ADD SWAP2 SWAP1 DUP8 ADD SWAP1 PUSH2 0xE70 JUMP JUMPDEST DUP1 SWAP9 POP POP POP POP POP POP POP POP POP SWAP3 POP SWAP3 POP SWAP3 JUMP JUMPDEST PUSH1 0x0 PUSH1 0x20 DUP3 DUP5 SUB SLT ISZERO PUSH2 0xF1C JUMPI PUSH1 0x0 DUP1 REVERT JUMPDEST POP CALLDATALOAD SWAP2 SWAP1 POP JUMP JUMPDEST PUSH1 0x0 DUP1 PUSH1 0x40 DUP4 DUP6 SUB SLT ISZERO PUSH2 0xF36 JUMPI PUSH1 0x0 DUP1 REVERT JUMPDEST POP POP DUP1 CALLDATALOAD SWAP3 PUSH1 0x20 SWAP1 SWAP2 ADD CALLDATALOAD SWAP2 POP JUMP JUMPDEST PUSH4 0x4E487B71 PUSH1 0xE0 SHL PUSH1 0x0 MSTORE PUSH1 0x21 PUSH1 0x4 MSTORE PUSH1 0x24 PUSH1 0x0 REVERT JUMPDEST PUSH1 0x4 DUP2 LT PUSH2 0xF79 JUMPI PUSH4 0x4E487B71 PUSH1 0xE0 SHL PUSH1 0x0 MSTORE PUSH1 0x21 PUSH1 0x4 MSTORE PUSH1 0x24 PUSH1 0x0 REVERT JUMPDEST SWAP1 MSTORE JUMP JUMPDEST DUP8 DUP2 MSTORE PUSH1 0x0 PUSH1 0x20 DUP9 DUP2 DUP5 ADD MSTORE DUP8 PUSH1 0x40 DUP5 ADD MSTORE PUSH1 0x1 DUP1 PUSH1 0xA0 SHL SUB DUP1 DUP9 AND PUSH1 0x60 DUP6 ADD MSTORE DUP1 DUP8 AND PUSH1 0x80 DUP6 ADD MSTORE POP PUSH1 0xE0 PUSH1 0xA0 DUP5 ADD MSTORE PUSH2 0x140 DUP4 ADD DUP6 MLOAD PUSH1 0xE0 DUP6 ADD MSTORE DUP2 DUP7 ADD MLOAD PUSH2 0x100 DUP6 ADD MSTORE PUSH1 0x40 DUP7 ADD MLOAD PUSH1 0x60 PUSH2 0x120 DUP7 ADD MSTORE DUP2 DUP2 MLOAD DUP1 DUP5 MSTORE PUSH2 0x160 DUP8 ADD SWAP2 POP DUP5 DUP4 ADD SWAP4 POP PUSH1 0x0 SWAP3 POP JUMPDEST DUP1 DUP4 LT ISZERO PUSH2 0x1008 JUMPI DUP4 MLOAD DUP3 MSTORE SWAP3 DUP5 ADD SWAP3 PUSH1 0x1 SWAP3 SWAP1 SWAP3 ADD SWAP2 SWAP1 DUP5 ADD SWAP1 PUSH2 0xFE8 JUMP JUMPDEST POP SWAP4 POP PUSH2 0x101C SWAP3 POP POP POP PUSH1 0xC0 DUP4 ADD DUP5 PUSH2 0xF5B JUMP JUMPDEST SWAP9 SWAP8 POP POP POP POP POP POP POP POP JUMP JUMPDEST PUSH1 0x0 DUP1 PUSH1 0x0 DUP1 PUSH1 0x80 DUP6 DUP8 SUB SLT ISZERO PUSH2 0x103E JUMPI PUSH1 0x0 DUP1 REVERT JUMPDEST DUP5 CALLDATALOAD SWAP4 POP PUSH2 0x104E PUSH1 0x20 DUP7 ADD PUSH2 0xD2D JUMP JUMPDEST SWAP3 POP PUSH2 0x105C PUSH1 0x40 DUP7 ADD PUSH2 0xD2D JUMP JUMPDEST SWAP4 SWAP7 SWAP3 SWAP6 POP SWAP3 SWAP4 PUSH1 0x60 ADD CALLDATALOAD SWAP3 POP POP JUMP JUMPDEST PUSH4 0x4E487B71 PUSH1 0xE0 SHL PUSH1 0x0 MSTORE PUSH1 0x11 PUSH1 0x4 MSTORE PUSH1 0x24 PUSH1 0x0 REVERT JUMPDEST DUP1 DUP3 ADD DUP1 DUP3 GT ISZERO PUSH2 0x1095 JUMPI PUSH2 0x1095 PUSH2 0x106C JUMP JUMPDEST SWAP3 SWAP2 POP POP JUMP JUMPDEST PUSH4 0x4E487B71 PUSH1 0xE0 SHL PUSH1 0x0 MSTORE PUSH1 0x32 PUSH1 0x4 MSTORE PUSH1 0x24 PUSH1 0x0 REVERT JUMPDEST PUSH1 0x1 DUP2 DUP2 SHR SWAP1 DUP3 AND DUP1 PUSH2 0x10C5 JUMPI PUSH1 0x7F DUP3 AND SWAP2 POP JUMPDEST PUSH1 0x20 DUP3 LT DUP2 SUB PUSH2 0x10E5 JUMPI PUSH4 0x4E487B71 PUSH1 0xE0 SHL PUSH1 0x0 MSTORE PUSH1 0x22 PUSH1 0x4 MSTORE PUSH1 0x24 PUSH1 0x0 REVERT JUMPDEST POP SWAP2 SWAP1 POP JUMP JUMPDEST PUSH1 0x1F DUP3 GT ISZERO PUSH2 0x1135 JUMPI PUSH1 0x0 DUP2 DUP2 MSTORE PUSH1 0x20 DUP2 KECCAK256 PUSH1 0x1F DUP6 ADD PUSH1 0x5 SHR DUP2 ADD PUSH1 0x20 DUP7 LT ISZERO PUSH2 0x1112 JUMPI POP DUP1 JUMPDEST PUSH1 0x1F DUP6 ADD PUSH1 0x5 SHR DUP3 ADD SWAP2 POP JUMPDEST DUP2 DUP2 LT ISZERO PUSH2 0x1131 JUMPI DUP3 DUP2 SSTORE PUSH1 0x1 ADD PUSH2 0x111E JUMP JUMPDEST POP POP POP JUMPDEST POP POP POP JUMP JUMPDEST DUP2 MLOAD PUSH8 0xFFFFFFFFFFFFFFFF DUP2 GT ISZERO PUSH2 0x1154 JUMPI PUSH2 0x1154 PUSH2 0xD97 JUMP JUMPDEST PUSH2 0x1168 DUP2 PUSH2 0x1162 DUP5 SLOAD PUSH2 0x10B1 JUMP JUMPDEST DUP5 PUSH2 0x10EB JUMP JUMPDEST PUSH1 0x20 DUP1 PUSH1 0x1F DUP4 GT PUSH1 0x1 DUP2 EQ PUSH2 0x119D JUMPI PUSH1 0x0 DUP5 ISZERO PUSH2 0x1185 JUMPI POP DUP6 DUP4 ADD MLOAD JUMPDEST PUSH1 0x0 NOT PUSH1 0x3 DUP7 SWAP1 SHL SHR NOT AND PUSH1 0x1 DUP6 SWAP1 SHL OR DUP6 SSTORE PUSH2 0x1131 JUMP JUMPDEST PUSH1 0x0 DUP6 DUP2 MSTORE PUSH1 0x20 DUP2 KECCAK256 PUSH1 0x1F NOT DUP7 AND SWAP2 JUMPDEST DUP3 DUP2 LT ISZERO PUSH2 0x11CC JUMPI DUP9 DUP7 ADD MLOAD DUP3 SSTORE SWAP5 DUP5 ADD SWAP5 PUSH1 0x1 SWAP1 SWAP2 ADD SWAP1 DUP5 ADD PUSH2 0x11AD JUMP JUMPDEST POP DUP6 DUP3 LT ISZERO PUSH2 0x11EA JUMPI DUP8 DUP6 ADD MLOAD PUSH1 0x0 NOT PUSH1 0x3 DUP9 SWAP1 SHL PUSH1 0xF8 AND SHR NOT AND DUP2 SSTORE JUMPDEST POP POP POP POP POP PUSH1 0x1 SWAP1 DUP2 SHL ADD SWAP1 SSTORE POP JUMP JUMPDEST PUSH1 0x0 PUSH1 0x1 DUP3 ADD PUSH2 0x120C JUMPI PUSH2 0x120C PUSH2 0x106C JUMP JUMPDEST POP PUSH1 0x1 ADD SWAP1 JUMP JUMPDEST PUSH1 0x0 PUSH1 0x60 DUP3 ADD DUP6 DUP4 MSTORE PUSH1 0x20 DUP6 DUP2 DUP6 ADD MSTORE PUSH1 0x60 PUSH1 0x40 DUP6 ADD MSTORE DUP2 DUP6 MLOAD DUP1 DUP5 MSTORE PUSH1 0x80 DUP7 ADD SWAP2 POP PUSH1 0x80 DUP2 PUSH1 0x5 SHL DUP8 ADD ADD SWAP4 POP DUP3 DUP8 ADD PUSH1 0x0 DUP1 JUMPDEST DUP4 DUP2 LT ISZERO PUSH2 0x12A4 JUMPI DUP9 DUP8 SUB PUSH1 0x7F NOT ADD DUP6 MSTORE DUP3 MLOAD DUP1 MLOAD DUP1 DUP10 MSTORE DUP4 JUMPDEST DUP2 DUP2 LT ISZERO PUSH2 0x127D JUMPI DUP3 DUP2 ADD DUP10 ADD MLOAD DUP11 DUP3 ADD DUP11 ADD MSTORE DUP9 ADD PUSH2 0x1262 JUMP JUMPDEST POP DUP9 DUP2 ADD DUP9 ADD DUP5 SWAP1 MSTORE PUSH1 0x1F ADD PUSH1 0x1F NOT AND SWAP1 SWAP8 ADD DUP7 ADD SWAP7 POP SWAP4 DUP6 ADD SWAP4 SWAP2 DUP6 ADD SWAP2 PUSH1 0x1 ADD PUSH2 0x1248 JUMP JUMPDEST POP SWAP5 SWAP11 SWAP10 POP POP POP POP POP POP POP POP POP POP JUMP JUMPDEST PUSH1 0x0 PUSH1 0x20 DUP3 DUP5 SUB SLT ISZERO PUSH2 0x12C6 JUMPI PUSH1 0x0 DUP1 REVERT JUMPDEST DUP2 MLOAD DUP1 ISZERO ISZERO DUP2 EQ PUSH2 0xD64 JUMPI PUSH1 0x0 DUP1 REVERT INVALID LOG2 PUSH5 0x6970667358 0x22 SLT KECCAK256 0x27 LOG2 INVALID 0xD7 PUSH2 0xF896 SWAP9 0xAA 0xCC DUP2 MULMOD 0xEC 0xB2 DUP8 ADDMOD GT DUP3 LOG2 TIMESTAMP ISZERO DELEGATECALL SWAP14 0xAA RETURN 0xFC 0x1E PUSH8 0x37B53E7D64736F6C PUSH4 0x43000811 STOP CALLER LOG2 PUSH5 0x6970667358 0x22 SLT KECCAK256 0xBC MULMOD SIGNEXTEND LT PUSH11 0x53451DA33EB485A7843E95 0xF8 0x2E 0xE4 0xE6 0xC4 0xB0 SHL PUSH27 0x8841EFAD5088D40C64736F6C634300081100330000000000000000 "},"methodIdentifiers":{"createCourt(address,address,address[])":"3b887e12","marketCourts(address)":"552aa5ff"}}}}}